{
  "contractName": "BasicTxFee",
  "abi": [
    {
      "inputs": [
        {
          "name": "_fee",
          "type": "uint256"
        }
      ],
      "payable": false,
      "stateMutability": "nonpayable",
      "type": "constructor"
    },
    {
      "constant": true,
      "inputs": [
        {
          "name": "",
          "type": "address"
        },
        {
          "name": "",
          "type": "address"
        },
        {
          "name": "",
          "type": "uint256"
        }
      ],
      "name": "calculateFee",
      "outputs": [
        {
          "name": "",
          "type": "uint256"
        }
      ],
      "payable": false,
      "stateMutability": "view",
      "type": "function"
    }
  ],
  "bytecode": "0x608060405234801561001057600080fd5b506040516020806100eb8339810180604052602081101561003057600080fd5b505160005560a8806100436000396000f3fe6080604052348015600f57600080fd5b506004361060285760003560e01c80637ca87cb614602d575b600080fd5b606060048036036060811015604157600080fd5b506001600160a01b038135811691602081013590911690604001356072565b60408051918252519081900360200190f35b600054939250505056fea165627a7a72305820f6693de7a695abb6d8772a1ff2030e71b59f13016813457aac83fd6d2189e19f0029",
  "source": "pragma solidity 0.5.7;\n\n\n/**\n * Simple Transaction Fee contract for testing. \n */\ncontract BasicTxFee {\n\n    uint256 fee;\n    constructor(uint256 _fee) public {\n        fee = _fee;\n    }\n\n    function calculateFee(address, address, uint256) external view returns(uint256) {\n        return fee;\n    }\n}\n",
  "sourcePath": "/Users/taylorbrent/reserve/simple-portal/contracts/test/BasicTxFee.sol",
  "compiler": {
    "name": "solc",
    "version": "0.5.7+commit.6da8b019.Emscripten.clang"
  },
  "schemaVersion": "3.0.17",
  "updatedAt": "2019-12-12T00:07:39.153Z",
  "devdoc": {
    "methods": {}
  },
  "userdoc": {
    "methods": {},
    "notice": "Simple Transaction Fee contract for testing. "
  }
}