{
  "contractName": "Basket",
  "abi": [
    {
      "constant": true,
      "inputs": [
        {
          "name": "",
          "type": "address"
        }
      ],
      "name": "has",
      "outputs": [
        {
          "name": "",
          "type": "bool"
        }
      ],
      "payable": false,
      "stateMutability": "view",
      "type": "function"
    },
    {
      "constant": true,
      "inputs": [
        {
          "name": "",
          "type": "uint256"
        }
      ],
      "name": "tokens",
      "outputs": [
        {
          "name": "",
          "type": "address"
        }
      ],
      "payable": false,
      "stateMutability": "view",
      "type": "function"
    },
    {
      "constant": true,
      "inputs": [
        {
          "name": "",
          "type": "address"
        }
      ],
      "name": "weights",
      "outputs": [
        {
          "name": "",
          "type": "uint256"
        }
      ],
      "payable": false,
      "stateMutability": "view",
      "type": "function"
    },
    {
      "inputs": [
        {
          "name": "trustedPrev",
          "type": "address"
        },
        {
          "name": "_tokens",
          "type": "address[]"
        },
        {
          "name": "_weights",
          "type": "uint256[]"
        }
      ],
      "payable": false,
      "stateMutability": "nonpayable",
      "type": "constructor"
    },
    {
      "constant": true,
      "inputs": [],
      "name": "getTokens",
      "outputs": [
        {
          "name": "",
          "type": "address[]"
        }
      ],
      "payable": false,
      "stateMutability": "view",
      "type": "function"
    },
    {
      "constant": true,
      "inputs": [],
      "name": "size",
      "outputs": [
        {
          "name": "",
          "type": "uint256"
        }
      ],
      "payable": false,
      "stateMutability": "view",
      "type": "function"
    }
  ],
  "bytecode": "0x608060405234801561001057600080fd5b506040516108993803806108998339810180604052606081101561003357600080fd5b81516020830180519193928301929164010000000081111561005457600080fd5b8201602081018481111561006757600080fd5b815185602082028301116401000000008211171561008457600080fd5b505092919060200180516401000000008111156100a057600080fd5b820160208101848111156100b357600080fd5b81518560208202830111640100000000821117156100d057600080fd5b5050929190505050805182511461014857604080517f08c379a000000000000000000000000000000000000000000000000000000000815260206004820152601d60248201527f4261736b65743a20756e657175616c206172726179206c656e67746873000000604482015290519081900360640190fd5b8151604051908082528060200260200182016040528015610173578160200160208202803883390190505b508051610188916000916020909101906105b5565b5060005b825181101561032b57600260008483815181106101a557fe5b6020908102919091018101516001600160a01b031682528101919091526040016000205460ff161561023857604080517f08c379a000000000000000000000000000000000000000000000000000000000815260206004820152601760248201527f6475706c696361746520746f6b656e20656e7472696573000000000000000000604482015290519081900360640190fd5b81818151811061024457fe5b60200260200101516001600085848151811061025c57fe5b60200260200101516001600160a01b03166001600160a01b031681526020019081526020016000208190555060016002600085848151811061029a57fe5b60200260200101516001600160a01b03166001600160a01b0316815260200190815260200160002060006101000a81548160ff0219169083151502179055508281815181106102e557fe5b6020026020010151600082815481106102fa57fe5b600091825260209091200180546001600160a01b0319166001600160a01b039290921691909117905560010161018c565b506001600160a01b0383161561053b5760005b836001600160a01b031663949d225d6040518163ffffffff1660e01b815260040160206040518083038186803b15801561037757600080fd5b505afa15801561038b573d6000803e3d6000fd5b505050506040513d60208110156103a157600080fd5b5051811015610539576000846001600160a01b0316634f64b2be836040518263ffffffff1660e01b81526004018082815260200191505060206040518083038186803b1580156103f057600080fd5b505afa158015610404573d6000803e3d6000fd5b505050506040513d602081101561041a57600080fd5b50516001600160a01b03811660009081526002602052604090205490915060ff1661053057846001600160a01b031663a7cac846826040518263ffffffff1660e01b815260040180826001600160a01b03166001600160a01b0316815260200191505060206040518083038186803b15801561049557600080fd5b505afa1580156104a9573d6000803e3d6000fd5b505050506040513d60208110156104bf57600080fd5b50516001600160a01b03821660008181526001602081815260408084209590955560029052928120805460ff1916841790558054928301815580527f290decd9548b62a8d60345a988386fc84ba6bc95484008f6362f93160ef3e56390910180546001600160a01b03191690911790555b5060010161033e565b505b600054600a10156105ad57604080517f08c379a000000000000000000000000000000000000000000000000000000000815260206004820152601260248201527f4261736b65743a20626164206c656e6774680000000000000000000000000000604482015290519081900360640190fd5b505050610641565b82805482825590600052602060002090810192821561060a579160200282015b8281111561060a57825182546001600160a01b0319166001600160a01b039091161782556020909201916001909101906105d5565b5061061692915061061a565b5090565b61063e91905b808211156106165780546001600160a01b0319168155600101610620565b90565b610249806106506000396000f3fe608060405234801561001057600080fd5b50600436106100575760003560e01c806321887c3d1461005c5780634f64b2be14610096578063949d225d146100cf578063a7cac846146100e9578063aa6ca8081461010f575b600080fd5b6100826004803603602081101561007257600080fd5b50356001600160a01b0316610167565b604080519115158252519081900360200190f35b6100b3600480360360208110156100ac57600080fd5b503561017c565b604080516001600160a01b039092168252519081900360200190f35b6100d76101a3565b60408051918252519081900360200190f35b6100d7600480360360208110156100ff57600080fd5b50356001600160a01b03166101a9565b6101176101bb565b60408051602080825283518183015283519192839290830191858101910280838360005b8381101561015357818101518382015260200161013b565b505050509050019250505060405180910390f35b60026020526000908152604090205460ff1681565b6000818154811061018957fe5b6000918252602090912001546001600160a01b0316905081565b60005490565b60016020526000908152604090205481565b6060600080548060200260200160405190810160405280929190818152602001828054801561021357602002820191906000526020600020905b81546001600160a01b031681526001909101906020018083116101f5575b505050505090509056fea165627a7a72305820059443131c81b029ae4befd56bfbe95c797ef801e8dcfb2b8d9a0040f92dbc850029",
  "source": "pragma solidity 0.5.7;\n\n\n/**\n * This Basket contract is essentially just a data structure; it represents the tokens and weights\n * in some Reserve-backing basket, either proposed or accepted.\n *\n * @dev Each `weights` value is an integer, with unit aqToken/RSV. (That is, atto-quantum-Tokens\n * per RSV). If you prefer, you can think about this as if the weights value is itself an\n * 18-decimal fixed-point value with unit qToken/RSV. (It would be prettier if these were just\n * straightforwardly qTokens/RSV, but that introduces unacceptable rounding error in some of our\n * basket computations.)\n *\n * @dev For example, let's say we have the token USDX in the vault, and it's represented to 6\n * decimal places, and the RSV basket should include 3/10ths of a USDX for each RSV. Then the\n * corresponding basket weight will be represented as 3*(10**23), because:\n *\n * @dev 3*(10**23) aqToken/RSV == 0.3 Token/RSV * (10**6 qToken/Token) * (10**18 aqToken/qToken)\n *\n * @dev For further notes on units, see the header comment for Manager.sol.\n*/\n\ncontract Basket {\n    address[] public tokens;\n    mapping(address => uint256) public weights; // unit: aqToken/RSV\n    mapping(address => bool) public has;\n    // INVARIANT: {addr | addr in tokens} == {addr | has[addr] == true}\n    \n    // SECURITY PROPERTY: The value of prev is always a Basket, and cannot be set by any user.\n    \n    // WARNING: A basket can be of size 0. It is the Manager's responsibility\n    //                    to ensure Issuance does not happen against an empty basket.\n\n    /// Construct a new basket from an old Basket `prev`, and a list of tokens and weights with\n    /// which to update `prev`. If `prev == address(0)`, act like it's an empty basket.\n    constructor(Basket trustedPrev, address[] memory _tokens, uint256[] memory _weights) public {\n        require(_tokens.length == _weights.length, \"Basket: unequal array lengths\");\n\n        // Initialize data from input arrays\n        tokens = new address[](_tokens.length);\n        for (uint256 i = 0; i < _tokens.length; i++) {\n            require(!has[_tokens[i]], \"duplicate token entries\");\n            weights[_tokens[i]] = _weights[i];\n            has[_tokens[i]] = true;\n            tokens[i] = _tokens[i];\n        }\n\n        // If there's a previous basket, copy those of its contents not already set.\n        if (trustedPrev != Basket(0)) {\n            for (uint256 i = 0; i < trustedPrev.size(); i++) {\n                address tok = trustedPrev.tokens(i);\n                if (!has[tok]) {\n                    weights[tok] = trustedPrev.weights(tok);\n                    has[tok] = true;\n                    tokens.push(tok);\n                }\n            }\n        }\n        require(tokens.length <= 10, \"Basket: bad length\");\n    }\n\n    function getTokens() external view returns(address[] memory) {\n        return tokens;\n    }\n\n    function size() external view returns(uint256) {\n        return tokens.length;\n    }\n}\n",
  "sourcePath": "/Users/taylorbrent/reserve/simple-portal/contracts/Basket.sol",
  "compiler": {
    "name": "solc",
    "version": "0.5.7+commit.6da8b019.Emscripten.clang"
  },
  "schemaVersion": "3.0.17",
  "updatedAt": "2019-12-17T01:34:26.210Z",
  "networkType": "ethereum",
  "devdoc": {
    "details": "Each `weights` value is an integer, with unit aqToken/RSV. (That is, atto-quantum-Tokens per RSV). If you prefer, you can think about this as if the weights value is itself an 18-decimal fixed-point value with unit qToken/RSV. (It would be prettier if these were just straightforwardly qTokens/RSV, but that introduces unacceptable rounding error in some of our basket computations.)For example, let's say we have the token USDX in the vault, and it's represented to 6 decimal places, and the RSV basket should include 3/10ths of a USDX for each RSV. Then the corresponding basket weight will be represented as 3*(10**23), because:3*(10**23) aqToken/RSV == 0.3 Token/RSV * (10**6 qToken/Token) * (10**18 aqToken/qToken)For further notes on units, see the header comment for Manager.sol.",
    "methods": {}
  },
  "userdoc": {
    "methods": {
      "constructor": "Construct a new basket from an old Basket `prev`, and a list of tokens and weights with which to update `prev`. If `prev == address(0)`, act like it's an empty basket."
    },
    "notice": "This Basket contract is essentially just a data structure; it represents the tokens and weights in some Reserve-backing basket, either proposed or accepted."
  }
}