{
  "contractName": "ManagerV2",
  "abi": [
    {
      "constant": false,
      "inputs": [
        {
          "name": "val",
          "type": "bool"
        }
      ],
      "name": "setEmergency",
      "outputs": [],
      "payable": false,
      "stateMutability": "nonpayable",
      "type": "function"
    },
    {
      "constant": true,
      "inputs": [],
      "name": "isFullyCollateralized",
      "outputs": [
        {
          "name": "",
          "type": "bool"
        }
      ],
      "payable": false,
      "stateMutability": "view",
      "type": "function"
    },
    {
      "constant": false,
      "inputs": [
        {
          "name": "id",
          "type": "uint256"
        }
      ],
      "name": "executeProposal",
      "outputs": [],
      "payable": false,
      "stateMutability": "nonpayable",
      "type": "function"
    },
    {
      "constant": false,
      "inputs": [
        {
          "name": "newOwner",
          "type": "address"
        }
      ],
      "name": "nominateNewOwner",
      "outputs": [],
      "payable": false,
      "stateMutability": "nonpayable",
      "type": "function"
    },
    {
      "constant": true,
      "inputs": [
        {
          "name": "rsvAmount",
          "type": "uint256"
        }
      ],
      "name": "toIssue",
      "outputs": [
        {
          "name": "",
          "type": "uint256[]"
        }
      ],
      "payable": false,
      "stateMutability": "view",
      "type": "function"
    },
    {
      "constant": true,
      "inputs": [
        {
          "name": "rsvAmount",
          "type": "uint256"
        }
      ],
      "name": "toRedeem",
      "outputs": [
        {
          "name": "",
          "type": "uint256[]"
        }
      ],
      "payable": false,
      "stateMutability": "view",
      "type": "function"
    },
    {
      "constant": true,
      "inputs": [],
      "name": "trustedVault",
      "outputs": [
        {
          "name": "",
          "type": "address"
        }
      ],
      "payable": false,
      "stateMutability": "view",
      "type": "function"
    },
    {
      "constant": true,
      "inputs": [],
      "name": "proposalsLength",
      "outputs": [
        {
          "name": "",
          "type": "uint256"
        }
      ],
      "payable": false,
      "stateMutability": "view",
      "type": "function"
    },
    {
      "constant": true,
      "inputs": [],
      "name": "seigniorage",
      "outputs": [
        {
          "name": "",
          "type": "uint256"
        }
      ],
      "payable": false,
      "stateMutability": "view",
      "type": "function"
    },
    {
      "constant": false,
      "inputs": [
        {
          "name": "declaration",
          "type": "string"
        }
      ],
      "name": "renounceOwnership",
      "outputs": [],
      "payable": false,
      "stateMutability": "nonpayable",
      "type": "function"
    },
    {
      "constant": true,
      "inputs": [],
      "name": "nominatedOwner",
      "outputs": [
        {
          "name": "",
          "type": "address"
        }
      ],
      "payable": false,
      "stateMutability": "view",
      "type": "function"
    },
    {
      "constant": true,
      "inputs": [],
      "name": "operator",
      "outputs": [
        {
          "name": "",
          "type": "address"
        }
      ],
      "payable": false,
      "stateMutability": "view",
      "type": "function"
    },
    {
      "constant": false,
      "inputs": [],
      "name": "clearProposals",
      "outputs": [],
      "payable": false,
      "stateMutability": "nonpayable",
      "type": "function"
    },
    {
      "constant": false,
      "inputs": [
        {
          "name": "id",
          "type": "uint256"
        }
      ],
      "name": "acceptProposal",
      "outputs": [],
      "payable": false,
      "stateMutability": "nonpayable",
      "type": "function"
    },
    {
      "constant": false,
      "inputs": [
        {
          "name": "newVaultAddress",
          "type": "address"
        }
      ],
      "name": "setVault",
      "outputs": [],
      "payable": false,
      "stateMutability": "nonpayable",
      "type": "function"
    },
    {
      "constant": true,
      "inputs": [],
      "name": "delay",
      "outputs": [
        {
          "name": "",
          "type": "uint256"
        }
      ],
      "payable": false,
      "stateMutability": "view",
      "type": "function"
    },
    {
      "constant": false,
      "inputs": [],
      "name": "acceptOwnership",
      "outputs": [],
      "payable": false,
      "stateMutability": "nonpayable",
      "type": "function"
    },
    {
      "constant": true,
      "inputs": [],
      "name": "owner",
      "outputs": [
        {
          "name": "",
          "type": "address"
        }
      ],
      "payable": false,
      "stateMutability": "view",
      "type": "function"
    },
    {
      "constant": false,
      "inputs": [
        {
          "name": "tokens",
          "type": "address[]"
        },
        {
          "name": "amounts",
          "type": "uint256[]"
        },
        {
          "name": "toVault",
          "type": "bool[]"
        }
      ],
      "name": "proposeSwap",
      "outputs": [
        {
          "name": "",
          "type": "uint256"
        }
      ],
      "payable": false,
      "stateMutability": "nonpayable",
      "type": "function"
    },
    {
      "constant": true,
      "inputs": [],
      "name": "trustedBasket",
      "outputs": [
        {
          "name": "",
          "type": "address"
        }
      ],
      "payable": false,
      "stateMutability": "view",
      "type": "function"
    },
    {
      "constant": false,
      "inputs": [
        {
          "name": "_operator",
          "type": "address"
        }
      ],
      "name": "setOperator",
      "outputs": [],
      "payable": false,
      "stateMutability": "nonpayable",
      "type": "function"
    },
    {
      "constant": true,
      "inputs": [],
      "name": "trustedRSV",
      "outputs": [
        {
          "name": "",
          "type": "address"
        }
      ],
      "payable": false,
      "stateMutability": "view",
      "type": "function"
    },
    {
      "constant": true,
      "inputs": [
        {
          "name": "",
          "type": "uint256"
        }
      ],
      "name": "trustedProposals",
      "outputs": [
        {
          "name": "",
          "type": "address"
        }
      ],
      "payable": false,
      "stateMutability": "view",
      "type": "function"
    },
    {
      "constant": true,
      "inputs": [],
      "name": "issuancePaused",
      "outputs": [
        {
          "name": "",
          "type": "bool"
        }
      ],
      "payable": false,
      "stateMutability": "view",
      "type": "function"
    },
    {
      "constant": false,
      "inputs": [
        {
          "name": "val",
          "type": "bool"
        }
      ],
      "name": "setIssuancePaused",
      "outputs": [],
      "payable": false,
      "stateMutability": "nonpayable",
      "type": "function"
    },
    {
      "constant": false,
      "inputs": [
        {
          "name": "tokens",
          "type": "address[]"
        },
        {
          "name": "weights",
          "type": "uint256[]"
        }
      ],
      "name": "proposeWeights",
      "outputs": [
        {
          "name": "",
          "type": "uint256"
        }
      ],
      "payable": false,
      "stateMutability": "nonpayable",
      "type": "function"
    },
    {
      "constant": true,
      "inputs": [],
      "name": "emergency",
      "outputs": [
        {
          "name": "",
          "type": "bool"
        }
      ],
      "payable": false,
      "stateMutability": "view",
      "type": "function"
    },
    {
      "constant": false,
      "inputs": [
        {
          "name": "rsvAmount",
          "type": "uint256"
        }
      ],
      "name": "issue",
      "outputs": [],
      "payable": false,
      "stateMutability": "nonpayable",
      "type": "function"
    },
    {
      "constant": false,
      "inputs": [
        {
          "name": "_seigniorage",
          "type": "uint256"
        }
      ],
      "name": "setSeigniorage",
      "outputs": [],
      "payable": false,
      "stateMutability": "nonpayable",
      "type": "function"
    },
    {
      "constant": false,
      "inputs": [
        {
          "name": "rsvAmount",
          "type": "uint256"
        }
      ],
      "name": "redeem",
      "outputs": [],
      "payable": false,
      "stateMutability": "nonpayable",
      "type": "function"
    },
    {
      "constant": false,
      "inputs": [
        {
          "name": "id",
          "type": "uint256"
        }
      ],
      "name": "cancelProposal",
      "outputs": [],
      "payable": false,
      "stateMutability": "nonpayable",
      "type": "function"
    },
    {
      "constant": false,
      "inputs": [
        {
          "name": "_delay",
          "type": "uint256"
        }
      ],
      "name": "setDelay",
      "outputs": [],
      "payable": false,
      "stateMutability": "nonpayable",
      "type": "function"
    },
    {
      "constant": true,
      "inputs": [],
      "name": "trustedProposalFactory",
      "outputs": [
        {
          "name": "",
          "type": "address"
        }
      ],
      "payable": false,
      "stateMutability": "view",
      "type": "function"
    },
    {
      "constant": true,
      "inputs": [],
      "name": "VERSION",
      "outputs": [
        {
          "name": "",
          "type": "uint256"
        }
      ],
      "payable": false,
      "stateMutability": "view",
      "type": "function"
    },
    {
      "inputs": [
        {
          "name": "vaultAddr",
          "type": "address"
        },
        {
          "name": "rsvAddr",
          "type": "address"
        },
        {
          "name": "proposalFactoryAddr",
          "type": "address"
        },
        {
          "name": "basketAddr",
          "type": "address"
        },
        {
          "name": "operatorAddr",
          "type": "address"
        },
        {
          "name": "_seigniorage",
          "type": "uint256"
        }
      ],
      "payable": false,
      "stateMutability": "nonpayable",
      "type": "constructor"
    },
    {
      "anonymous": false,
      "inputs": [],
      "name": "ProposalsCleared",
      "type": "event"
    },
    {
      "anonymous": false,
      "inputs": [
        {
          "indexed": true,
          "name": "user",
          "type": "address"
        },
        {
          "indexed": true,
          "name": "amount",
          "type": "uint256"
        }
      ],
      "name": "Issuance",
      "type": "event"
    },
    {
      "anonymous": false,
      "inputs": [
        {
          "indexed": true,
          "name": "user",
          "type": "address"
        },
        {
          "indexed": true,
          "name": "amount",
          "type": "uint256"
        }
      ],
      "name": "Redemption",
      "type": "event"
    },
    {
      "anonymous": false,
      "inputs": [
        {
          "indexed": true,
          "name": "oldVal",
          "type": "bool"
        },
        {
          "indexed": true,
          "name": "newVal",
          "type": "bool"
        }
      ],
      "name": "IssuancePausedChanged",
      "type": "event"
    },
    {
      "anonymous": false,
      "inputs": [
        {
          "indexed": true,
          "name": "oldVal",
          "type": "bool"
        },
        {
          "indexed": true,
          "name": "newVal",
          "type": "bool"
        }
      ],
      "name": "EmergencyChanged",
      "type": "event"
    },
    {
      "anonymous": false,
      "inputs": [
        {
          "indexed": true,
          "name": "oldAccount",
          "type": "address"
        },
        {
          "indexed": true,
          "name": "newAccount",
          "type": "address"
        }
      ],
      "name": "OperatorChanged",
      "type": "event"
    },
    {
      "anonymous": false,
      "inputs": [
        {
          "indexed": false,
          "name": "oldVal",
          "type": "uint256"
        },
        {
          "indexed": false,
          "name": "newVal",
          "type": "uint256"
        }
      ],
      "name": "SeigniorageChanged",
      "type": "event"
    },
    {
      "anonymous": false,
      "inputs": [
        {
          "indexed": true,
          "name": "oldVaultAddr",
          "type": "address"
        },
        {
          "indexed": true,
          "name": "newVaultAddr",
          "type": "address"
        }
      ],
      "name": "VaultChanged",
      "type": "event"
    },
    {
      "anonymous": false,
      "inputs": [
        {
          "indexed": false,
          "name": "oldVal",
          "type": "uint256"
        },
        {
          "indexed": false,
          "name": "newVal",
          "type": "uint256"
        }
      ],
      "name": "DelayChanged",
      "type": "event"
    },
    {
      "anonymous": false,
      "inputs": [
        {
          "indexed": true,
          "name": "id",
          "type": "uint256"
        },
        {
          "indexed": true,
          "name": "proposer",
          "type": "address"
        },
        {
          "indexed": false,
          "name": "tokens",
          "type": "address[]"
        },
        {
          "indexed": false,
          "name": "weights",
          "type": "uint256[]"
        }
      ],
      "name": "WeightsProposed",
      "type": "event"
    },
    {
      "anonymous": false,
      "inputs": [
        {
          "indexed": true,
          "name": "id",
          "type": "uint256"
        },
        {
          "indexed": true,
          "name": "proposer",
          "type": "address"
        },
        {
          "indexed": false,
          "name": "tokens",
          "type": "address[]"
        },
        {
          "indexed": false,
          "name": "amounts",
          "type": "uint256[]"
        },
        {
          "indexed": false,
          "name": "toVault",
          "type": "bool[]"
        }
      ],
      "name": "SwapProposed",
      "type": "event"
    },
    {
      "anonymous": false,
      "inputs": [
        {
          "indexed": true,
          "name": "id",
          "type": "uint256"
        },
        {
          "indexed": true,
          "name": "proposer",
          "type": "address"
        }
      ],
      "name": "ProposalAccepted",
      "type": "event"
    },
    {
      "anonymous": false,
      "inputs": [
        {
          "indexed": true,
          "name": "id",
          "type": "uint256"
        },
        {
          "indexed": true,
          "name": "proposer",
          "type": "address"
        },
        {
          "indexed": true,
          "name": "canceler",
          "type": "address"
        }
      ],
      "name": "ProposalCanceled",
      "type": "event"
    },
    {
      "anonymous": false,
      "inputs": [
        {
          "indexed": true,
          "name": "id",
          "type": "uint256"
        },
        {
          "indexed": true,
          "name": "proposer",
          "type": "address"
        },
        {
          "indexed": true,
          "name": "executor",
          "type": "address"
        },
        {
          "indexed": false,
          "name": "oldBasket",
          "type": "address"
        },
        {
          "indexed": false,
          "name": "newBasket",
          "type": "address"
        }
      ],
      "name": "ProposalExecuted",
      "type": "event"
    },
    {
      "anonymous": false,
      "inputs": [
        {
          "indexed": true,
          "name": "previousOwner",
          "type": "address"
        },
        {
          "indexed": true,
          "name": "nominee",
          "type": "address"
        }
      ],
      "name": "NewOwnerNominated",
      "type": "event"
    },
    {
      "anonymous": false,
      "inputs": [
        {
          "indexed": true,
          "name": "previousOwner",
          "type": "address"
        },
        {
          "indexed": true,
          "name": "newOwner",
          "type": "address"
        }
      ],
      "name": "OwnershipTransferred",
      "type": "event"
    }
  ],
  "bytecode": "0x6080604052620151806009553480156200001857600080fd5b5060405160c080620049bd833981018060405260c08110156200003a57600080fd5b50805160208083015160408401516060850151608086015160a090960151949592949193909291908690869086908690869086906000906200008090620001bb811b901c565b600080546001600160a01b0319166001600160a01b0383169081178255604051929350917f8be0079c531659141344cd1fd0a4f28419497f9722a3daafe3b4186f6b6457e0908290a3506103e88111156200013c57604080517f08c379a000000000000000000000000000000000000000000000000000000000815260206004820152601360248201527f6d617820736569676e696f726167652031302500000000000000000000000000604482015290519081900360640190fd5b600480546001600160a01b03199081166001600160a01b0398891617909155600580548216968816969096179095556006805486169487169490941790935560038054851692861692909217909155600280549093169316929092179055600b555050600a805461010061ff001990911617905550620001bf92505050565b3390565b6147ee80620001cf6000396000f3fe60806040523480156200001157600080fd5b5060043610620002385760003560e01c80638da5cb5b1162000135578063c9ae743611620000bd578063db006a751162000087578063db006a751462000753578063e0a8f6f51462000773578063e177246e1462000793578063ea9f9c3a14620007b3578063ffa1ad7414620007bd5762000238565b8063c9ae74361462000642578063caa6fea41462000709578063cc872b661462000713578063ce232e8714620007335762000238565b8063bb7a109b11620000ff578063bb7a109b14620005ec578063c11fb13e14620005f6578063c691af921462000616578063c6ffb6cb14620006205762000238565b80638da5cb5b1462000495578063a1672a3c146200049f578063a5ea7fdd14620005b9578063b3ab15fb14620005c35762000238565b80634e1d9df511620001c55780635d3e9deb116200018f5780635d3e9deb146200042e57806360c5cc3a14620004385780636817031b14620004585780636a42b8f8146200048157806379ba5097146200048b5762000238565b80634e1d9df5146200039c5780634fdb7f4414620003a657806353a47bb7146200041a578063570ca73514620004245762000238565b80631d9afe5e11620002075780631d9afe5e14620002c85780632404e26d146200033a578063279fdf6d146200035a57806344c7c86714620003805762000238565b80630501d556146200023d5780630ad7ef5114620002615780630d61b519146200027f5780631627540c146200029f575b600080fd5b6200025f600480360360208110156200025557600080fd5b50351515620007c7565b005b6200026b62000884565b604080519115158252519081900360200190f35b6200025f600480360360208110156200029757600080fd5b503562000c06565b6200025f60048036036020811015620002b757600080fd5b50356001600160a01b031662001301565b620002e860048036036020811015620002e057600080fd5b5035620013c5565b60408051602080825283518183015283519192839290830191858101910280838360005b83811015620003265781810151838201526020016200030c565b505050509050019250505060405180910390f35b620002e8600480360360208110156200035257600080fd5b50356200167d565b62000364620018eb565b604080516001600160a01b039092168252519081900360200190f35b6200038a620018fa565b60408051918252519081900360200190f35b6200038a62001900565b6200025f60048036036020811015620003be57600080fd5b810190602081018135600160201b811115620003d957600080fd5b820183602082011115620003ec57600080fd5b803590602001918460018302840111600160201b831117156200040e57600080fd5b50909250905062001906565b6200036462001a71565b6200036462001a80565b6200025f62001a8f565b6200025f600480360360208110156200045057600080fd5b503562001b27565b6200025f600480360360208110156200047057600080fd5b50356001600160a01b031662001dd0565b6200038a62001e36565b6200025f62001e3c565b6200036462001f0d565b6200038a60048036036060811015620004b757600080fd5b810190602081018135600160201b811115620004d257600080fd5b820183602082011115620004e557600080fd5b803590602001918460208302840111600160201b831117156200050757600080fd5b919390929091602081019035600160201b8111156200052557600080fd5b8201836020820111156200053857600080fd5b803590602001918460208302840111600160201b831117156200055a57600080fd5b919390929091602081019035600160201b8111156200057857600080fd5b8201836020820111156200058b57600080fd5b803590602001918460208302840111600160201b83111715620005ad57600080fd5b50909250905062001f1c565b62000364620022c6565b6200025f60048036036020811015620005db57600080fd5b50356001600160a01b0316620022d5565b620003646200233b565b62000364600480360360208110156200060e57600080fd5b50356200234a565b6200026b62002365565b6200025f600480360360208110156200063857600080fd5b503515156200236e565b6200038a600480360360408110156200065a57600080fd5b810190602081018135600160201b8111156200067557600080fd5b8201836020820111156200068857600080fd5b803590602001918460208302840111600160201b83111715620006aa57600080fd5b919390929091602081019035600160201b811115620006c857600080fd5b820183602082011115620006db57600080fd5b803590602001918460208302840111600160201b83111715620006fd57600080fd5b5090925090506200241f565b6200026b62002808565b6200025f600480360360208110156200072b57600080fd5b503562002816565b6200025f600480360360208110156200074b57600080fd5b503562002c7b565b6200025f600480360360208110156200076b57600080fd5b503562002d22565b6200025f600480360360208110156200078b57600080fd5b503562003187565b6200025f60048036036020811015620007ab57600080fd5b503562003519565b6200036462003565565b6200038a62003574565b6002546001600160a01b0316620007dd62003579565b6001600160a01b0316146200082f5760408051600160e51b62461bcd02815260206004820152600d6024820152600160981b6c6f70657261746f72206f6e6c7902604482015290519081900360640190fd5b600a5460405182151591610100900460ff161515907fcf0e29214fd33dc9e1fb57399bdb5e5de6e43c27d6ec7f016d2662c78fb5ddda90600090a3600a80549115156101000261ff0019909216919091179055565b60008062000924600560009054906101000a90046001600160a01b03166001600160a01b031663313ce5676040518163ffffffff1660e01b815260040160206040518083038186803b158015620008da57600080fd5b505afa158015620008ef573d6000803e3d6000fd5b505050506040513d60208110156200090657600080fd5b5051670de0b6b3a76400009060ff16600a0a63ffffffff6200357d16565b905060005b600360009054906101000a90046001600160a01b03166001600160a01b031663949d225d6040518163ffffffff1660e01b815260040160206040518083038186803b1580156200097857600080fd5b505afa1580156200098d573d6000803e3d6000fd5b505050506040513d6020811015620009a457600080fd5b505181101562000bfc5760035460408051600160e11b6327b2595f0281526004810184905290516000926001600160a01b031691634f64b2be916024808301926020929190829003018186803b158015620009fe57600080fd5b505afa15801562000a13573d6000803e3d6000fd5b505050506040513d602081101562000a2a57600080fd5b505160035460408051600160e11b6353e564230281526001600160a01b0380851660048301529151939450600093919092169163a7cac846916024808301926020929190829003018186803b15801562000a8357600080fd5b505afa15801562000a98573d6000803e3d6000fd5b505050506040513d602081101562000aaf57600080fd5b50516004805460408051600160e01b6370a082310281526001600160a01b039283169381019390935251929350600092908516916370a08231916024808301926020929190829003018186803b15801562000b0957600080fd5b505afa15801562000b1e573d6000803e3d6000fd5b505050506040513d602081101562000b3557600080fd5b5051905062000b4b818663ffffffff6200357d16565b62000bda83600560009054906101000a90046001600160a01b03166001600160a01b03166318160ddd6040518163ffffffff1660e01b815260040160206040518083038186803b15801562000b9f57600080fd5b505afa15801562000bb4573d6000803e3d6000fd5b505050506040513d602081101562000bcb57600080fd5b50519063ffffffff6200357d16565b111562000bf05760009550505050505062000c03565b50505060010162000929565b5060019150505b90565b6002546001600160a01b031662000c1c62003579565b6001600160a01b03161462000c6e5760408051600160e51b62461bcd02815260206004820152600d6024820152600160981b6c6f70657261746f72206f6e6c7902604482015290519081900360640190fd5b600a54610100900460ff161562000cbe5760408051600160e51b62461bcd028152602060048201526012602482015260008051602062004738833981519152604482015290519081900360640190fd5b62000cc862000884565b62000d0c5760408051600160e51b62461bcd028152602060048201526013602482015260008051602062004779833981519152604482015290519081900360640190fd5b806008541162000d665760408051600160e51b62461bcd02815260206004820152601660248201527f70726f706f73616c73206c656e677468203c3d20696400000000000000000000604482015290519081900360640190fd5b6000818152600760209081526040808320548151600160e41b630a8e4fb902815291516001600160a01b039091169263a8e4fb90926004808201939182900301818787803b15801562000db857600080fd5b505af115801562000dcd573d6000803e3d6000fd5b505050506040513d602081101562000de457600080fd5b50516003546000848152600760209081526040808320546005548251600160e21b6339624bd90281526001600160a01b039182166004820152958116602487018190529251969750919591169363e5892f649360448083019493928390030190829087803b15801562000e5657600080fd5b505af115801562000e6b573d6000803e3d6000fd5b505050506040513d602081101562000e8257600080fd5b5051600380546001600160a01b0319166001600160a01b0390921691909117905560005b816001600160a01b031663949d225d6040518163ffffffff1660e01b815260040160206040518083038186803b15801562000ee057600080fd5b505afa15801562000ef5573d6000803e3d6000fd5b505050506040513d602081101562000f0c57600080fd5b5051811015620010a0576000826001600160a01b0316634f64b2be836040518263ffffffff1660e01b81526004018082815260200191505060206040518083038186803b15801562000f5d57600080fd5b505afa15801562000f72573d6000803e3d6000fd5b505050506040513d602081101562000f8957600080fd5b505160408051600160e11b6353e564230281526001600160a01b038084166004830152915192935062001096929186169163a7cac84691602480820192602092909190829003018186803b15801562000fe157600080fd5b505afa15801562000ff6573d6000803e3d6000fd5b505050506040513d60208110156200100d57600080fd5b505160035460408051600160e11b6353e564230281526001600160a01b0386811660048301529151919092169163a7cac846916024808301926020929190829003018186803b1580156200106057600080fd5b505afa15801562001075573d6000803e3d6000fd5b505050506040513d60208110156200108c57600080fd5b50518387620035e7565b5060010162000ea6565b5060005b600360009054906101000a90046001600160a01b03166001600160a01b031663949d225d6040518163ffffffff1660e01b815260040160206040518083038186803b158015620010f357600080fd5b505afa15801562001108573d6000803e3d6000fd5b505050506040513d60208110156200111f57600080fd5b5051811015620012905760035460408051600160e11b6327b2595f0281526004810184905290516000926001600160a01b031691634f64b2be916024808301926020929190829003018186803b1580156200117957600080fd5b505afa1580156200118e573d6000803e3d6000fd5b505050506040513d6020811015620011a557600080fd5b505160408051600160e01b6321887c3d0281526001600160a01b0380841660048301529151929350908516916321887c3d91602480820192602092909190829003018186803b158015620011f857600080fd5b505afa1580156200120d573d6000803e3d6000fd5b505050506040513d60208110156200122457600080fd5b5051620012865762001286836001600160a01b031663a7cac846836040518263ffffffff1660e01b815260040180826001600160a01b03166001600160a01b0316815260200191505060206040518083038186803b15801562000fe157600080fd5b50600101620010a4565b506200129b62003579565b600354604080516001600160a01b03858116825292831660208201528151938316939286169287927f0c61d799d734d5537f38b565a766360b56e01d78d32a2edbf0b49f63dab3259e928290030190a45050620012f762000884565b620012fe57fe5b50565b6200130b620037f7565b6001600160a01b0381166200136a5760408051600160e51b62461bcd02815260206004820152601660248201527f6e6577206f776e65722069732030206164647265737300000000000000000000604482015290519081900360640190fd5b600080546040516001600160a01b03808516939216917fb59bab42c554cfd49f4f001c983b6ed93ede25748b10114b7d1cb1b3c97df7af91a3600180546001600160a01b0319166001600160a01b0392909216919091179055565b606080600360009054906101000a90046001600160a01b03166001600160a01b031663949d225d6040518163ffffffff1660e01b815260040160206040518083038186803b1580156200141757600080fd5b505afa1580156200142c573d6000803e3d6000fd5b505050506040513d60208110156200144357600080fd5b50516040805182815260208084028201019091529080156200146f578160200160208202803883390190505b50905060006200148d612710600b546200386e90919063ffffffff16565b90506000620014b7612710620014aa878563ffffffff6200357d16565b9063ffffffff620038cc16565b905060005b600360009054906101000a90046001600160a01b03166001600160a01b031663949d225d6040518163ffffffff1660e01b815260040160206040518083038186803b1580156200150b57600080fd5b505afa15801562001520573d6000803e3d6000fd5b505050506040513d60208110156200153757600080fd5b5051811015620016735760035460408051600160e11b6327b2595f0281526004810184905290516000926001600160a01b031691634f64b2be916024808301926020929190829003018186803b1580156200159157600080fd5b505afa158015620015a6573d6000803e3d6000fd5b505050506040513d6020811015620015bd57600080fd5b505160035460408051600160e11b6353e564230281526001600160a01b038085166004830152915193945062001651938793929092169163a7cac84691602480820192602092909190829003018186803b1580156200161b57600080fd5b505afa15801562001630573d6000803e3d6000fd5b505050506040513d60208110156200164757600080fd5b5051600062003910565b8583815181106200165e57fe5b602090810291909101015250600101620014bc565b5091949350505050565b606080600360009054906101000a90046001600160a01b03166001600160a01b031663949d225d6040518163ffffffff1660e01b815260040160206040518083038186803b158015620016cf57600080fd5b505afa158015620016e4573d6000803e3d6000fd5b505050506040513d6020811015620016fb57600080fd5b505160408051828152602080840282010190915290801562001727578160200160208202803883390190505b50905060005b600360009054906101000a90046001600160a01b03166001600160a01b031663949d225d6040518163ffffffff1660e01b815260040160206040518083038186803b1580156200177c57600080fd5b505afa15801562001791573d6000803e3d6000fd5b505050506040513d6020811015620017a857600080fd5b5051811015620018e45760035460408051600160e11b6327b2595f0281526004810184905290516000926001600160a01b031691634f64b2be916024808301926020929190829003018186803b1580156200180257600080fd5b505afa15801562001817573d6000803e3d6000fd5b505050506040513d60208110156200182e57600080fd5b505160035460408051600160e11b6353e564230281526001600160a01b0380851660048301529151939450620018c2938993929092169163a7cac84691602480820192602092909190829003018186803b1580156200188c57600080fd5b505afa158015620018a1573d6000803e3d6000fd5b505050506040513d6020811015620018b857600080fd5b5051600162003910565b838381518110620018cf57fe5b6020908102919091010152506001016200172d565b5092915050565b6004546001600160a01b031681565b60085481565b600b5481565b62001910620037f7565b606060405180606001604052806035815260200162004703603591399050806040516020018082805190602001908083835b60208310620019635780518252601f19909201916020918201910162001942565b6001836020036101000a038019825116818451168082178552505050505050905001915050604051602081830303815290604052805190602001208383604051602001808383808284378083019250505092505050604051602081830303815290604052805190602001201462001a245760408051600160e51b62461bcd02815260206004820152601560248201527f6465636c61726174696f6e20696e636f72726563740000000000000000000000604482015290519081900360640190fd5b600080546040516001600160a01b03909116907f8be0079c531659141344cd1fd0a4f28419497f9722a3daafe3b4186f6b6457e0908390a35050600080546001600160a01b031916905550565b6001546001600160a01b031690565b6002546001600160a01b031681565b6002546001600160a01b031662001aa562003579565b6001600160a01b03161462001af75760408051600160e51b62461bcd02815260206004820152600d6024820152600160981b6c6f70657261746f72206f6e6c7902604482015290519081900360640190fd5b600060088190556040517fe89b7d17759242abd80309cee2479e2cd462f8a25d06a0f90fba1de050de66239190a1565b6002546001600160a01b031662001b3d62003579565b6001600160a01b03161462001b8f5760408051600160e51b62461bcd02815260206004820152600d6024820152600160981b6c6f70657261746f72206f6e6c7902604482015290519081900360640190fd5b600a54610100900460ff161562001bdf5760408051600160e51b62461bcd028152602060048201526012602482015260008051602062004738833981519152604482015290519081900360640190fd5b62001be962000884565b62001c2d5760408051600160e51b62461bcd028152602060048201526013602482015260008051602062004779833981519152604482015290519081900360640190fd5b806008541162001c875760408051600160e51b62461bcd02815260206004820152601660248201527f70726f706f73616c73206c656e677468203c3d20696400000000000000000000604482015290519081900360640190fd5b6000818152600760205260409020546009546001600160a01b03909116906319b05f499062001cbe90429063ffffffff6200386e16565b6040518263ffffffff1660e01b815260040180828152602001915050600060405180830381600087803b15801562001cf557600080fd5b505af115801562001d0a573d6000803e3d6000fd5b5050506000828152600760209081526040808320548151600160e41b630a8e4fb902815291516001600160a01b03909116945063a8e4fb9093600480840194938390030190829087803b15801562001d6157600080fd5b505af115801562001d76573d6000803e3d6000fd5b505050506040513d602081101562001d8d57600080fd5b50516040516001600160a01b039091169082907f488e676b8b729cd92586573f5b7b42787c118396c4a19f570e9c9e422e4dbf1890600090a3620012f762000884565b62001dda620037f7565b6004546040516001600160a01b038084169216907f16e2accad9173abff57b295b56993ec5d86b3cbf791fea02f02a6616463754ea90600090a3600480546001600160a01b0319166001600160a01b0392909216919091179055565b60095481565b62001e4662003579565b6001546001600160a01b0390811691161462001eac5760408051600160e51b62461bcd02815260206004820152600c60248201527f756e617574686f72697a65640000000000000000000000000000000000000000604482015290519081900360640190fd5b600154600080546040516001600160a01b0393841693909116917f8be0079c531659141344cd1fd0a4f28419497f9722a3daafe3b4186f6b6457e091a3600154600080546001600160a01b0319166001600160a01b03909216919091179055565b6000546001600160a01b031690565b600a54600090610100900460ff161562001f6f5760408051600160e51b62461bcd028152602060048201526012602482015260008051602062004738833981519152604482015290519081900360640190fd5b62001f7962000884565b62001fbd5760408051600160e51b62461bcd028152602060048201526013602482015260008051602062004779833981519152604482015290519081900360640190fd5b858414801562001fcc57508382145b620020215760408051600160e51b62461bcd02815260206004820152601c60248201527f70726f706f7365537761703a20756e657175616c206c656e6774687300000000604482015290519081900360640190fd5b60088054600181019091556006546001600160a01b031663c6f120bc6200204762003579565b8a8a8a8a8a8a6040518863ffffffff1660e01b815260040180886001600160a01b03166001600160a01b0316815260200180602001806020018060200184810384528a8a82818152602001925060200280828437600083820152601f01601f19169091018581038452888152602090810191508990890280828437600083820152601f01601f19169091018581038352868152602090810191508790870280828437600081840152601f19601f8201169050808301925050509a5050505050505050505050602060405180830381600087803b1580156200212757600080fd5b505af11580156200213c573d6000803e3d6000fd5b505050506040513d60208110156200215357600080fd5b505160008281526007602052604080822080546001600160a01b0319166001600160a01b0394851617908190558151600160e01b6379ba509702815291519316926379ba50979260048084019391929182900301818387803b158015620021b957600080fd5b505af1158015620021ce573d6000803e3d6000fd5b50505050620021dc62003579565b6001600160a01b0316817fb1040e2fdc9b1fc50275ea4f0268b7aea14253a84269a880a272a77fc27c957c8a8a8a8a8a8a6040518080602001806020018060200184810384528a8a82818152602001925060200280828437600083820152601f01601f19169091018581038452888152602090810191508990890280828437600083820152601f01601f19169091018581038352868152602090810191508790870280828437600083820152604051601f909101601f19169092018290039b50909950505050505050505050a39050620022b562000884565b620022bc57fe5b9695505050505050565b6003546001600160a01b031681565b620022df620037f7565b6002546040516001600160a01b038084169216907fd58299b712891143e76310d5e664c4203c940a67db37cf856bdaa3c5c76a802c90600090a3600280546001600160a01b0319166001600160a01b0392909216919091179055565b6005546001600160a01b031681565b6007602052600090815260409020546001600160a01b031681565b600a5460ff1681565b6002546001600160a01b03166200238462003579565b6001600160a01b031614620023d65760408051600160e51b62461bcd02815260206004820152600d6024820152600160981b6c6f70657261746f72206f6e6c7902604482015290519081900360640190fd5b600a546040518215159160ff161515907f76331eaf0929435122e80481aea28d5c30a0836554d6ef8b15d770fd0d4d5c9890600090a3600a805460ff1916911515919091179055565b600a54600090610100900460ff1615620024725760408051600160e51b62461bcd028152602060048201526012602482015260008051602062004738833981519152604482015290519081900360640190fd5b6200247c62000884565b620024c05760408051600160e51b62461bcd028152602060048201526013602482015260008051602062004779833981519152604482015290519081900360640190fd5b838214620025185760408051600160e51b62461bcd02815260206004820152601f60248201527f70726f706f7365576569676874733a20756e657175616c206c656e6774687300604482015290519081900360640190fd5b836200256e5760408051600160e51b62461bcd02815260206004820152601b60248201527f70726f706f7365576569676874733a207a65726f206c656e6774680000000000604482015290519081900360640190fd5b60088054600181019091556006546001600160a01b0316630894e5206200259462003579565b600089898989604051620025a89062003e5b565b6001600160a01b038616815260606020808301828152918301869052604083019060808401908890880280828437600083820152601f01601f191690910184810383528581526020908101915086908602808284376000838201819052604051601f909201601f19169093018190039a509850909650505050505050f08015801562002638573d6000803e3d6000fd5b506040518363ffffffff1660e01b815260040180836001600160a01b03166001600160a01b03168152602001826001600160a01b03166001600160a01b0316815260200192505050602060405180830381600087803b1580156200269b57600080fd5b505af1158015620026b0573d6000803e3d6000fd5b505050506040513d6020811015620026c757600080fd5b505160008281526007602052604080822080546001600160a01b0319166001600160a01b0394851617908190558151600160e01b6379ba509702815291519316926379ba50979260048084019391929182900301818387803b1580156200272d57600080fd5b505af115801562002742573d6000803e3d6000fd5b505050506200275062003579565b6001600160a01b0316817fc0d5f605ca054f36f4da2c6a9fc359f8ac4cddae7e9d18f37b47104604587d13888888886040518080602001806020018381038352878782818152602001925060200280828437600083820152601f01601f19169091018481038352858152602090810191508690860280828437600083820152604051601f909101601f19169092018290039850909650505050505050a39050620027f962000884565b6200280057fe5b949350505050565b600a54610100900460ff1681565b600a5460ff1615620028725760408051600160e51b62461bcd02815260206004820152601260248201527f69737375616e6365206973207061757365640000000000000000000000000000604482015290519081900360640190fd5b600a54610100900460ff1615620028c25760408051600160e51b62461bcd028152602060048201526012602482015260008051602062004738833981519152604482015290519081900360640190fd5b620028cc62000884565b620029105760408051600160e51b62461bcd028152602060048201526013602482015260008051602062004779833981519152604482015290519081900360640190fd5b60008111620029695760408051600160e51b62461bcd02815260206004820152601560248201527f63616e6e6f74206973737565207a65726f205253560000000000000000000000604482015290519081900360640190fd5b60035460408051600160e01b63949d225d02815290516000926001600160a01b03169163949d225d916004808301926020929190829003018186803b158015620029b257600080fd5b505afa158015620029c7573d6000803e3d6000fd5b505050506040513d6020811015620029de57600080fd5b50511162002a365760408051600160e51b62461bcd02815260206004820152601660248201527f6261736b65742063616e6e6f7420626520656d70747900000000000000000000604482015290519081900360640190fd5b606062002a4382620013c5565b905060005b600360009054906101000a90046001600160a01b03166001600160a01b031663949d225d6040518163ffffffff1660e01b815260040160206040518083038186803b15801562002a9757600080fd5b505afa15801562002aac573d6000803e3d6000fd5b505050506040513d602081101562002ac357600080fd5b505181101562002baa5762002ba162002adb62003579565b60045484516001600160a01b039091169085908590811062002af957fe5b6020026020010151600360009054906101000a90046001600160a01b03166001600160a01b0316634f64b2be866040518263ffffffff1660e01b81526004018082815260200191505060206040518083038186803b15801562002b5b57600080fd5b505afa15801562002b70573d6000803e3d6000fd5b505050506040513d602081101562002b8757600080fd5b50516001600160a01b031692919063ffffffff620039fc16565b60010162002a48565b506005546001600160a01b03166340c10f1962002bc662003579565b846040518363ffffffff1660e01b815260040180836001600160a01b03166001600160a01b0316815260200182815260200192505050600060405180830381600087803b15801562002c1757600080fd5b505af115801562002c2c573d6000803e3d6000fd5b505050508162002c3b62003579565b6001600160a01b03167f9cb9c14f7bc76e3a89b796b091850526236115352a198b1e472f00e91376bbcb60405160405180910390a350620012f762000884565b62002c85620037f7565b6103e881111562002ce05760408051600160e51b62461bcd02815260206004820152601360248201527f6d617820736569676e696f726167652031302500000000000000000000000000604482015290519081900360640190fd5b600b54604080519182526020820183905280517f739fc76c925698caa5b5b65517fbbf8148d051b676bfac3769c10dc9f146a7519281900390910190a1600b55565b600a54610100900460ff161562002d725760408051600160e51b62461bcd028152602060048201526012602482015260008051602062004738833981519152604482015290519081900360640190fd5b62002d7c62000884565b62002dc05760408051600160e51b62461bcd028152602060048201526013602482015260008051602062004779833981519152604482015290519081900360640190fd5b6000811162002e195760408051600160e51b62461bcd02815260206004820152601360248201527f63616e6e6f742072656465656d20302052535600000000000000000000000000604482015290519081900360640190fd5b60035460408051600160e01b63949d225d02815290516000926001600160a01b03169163949d225d916004808301926020929190829003018186803b15801562002e6257600080fd5b505afa15801562002e77573d6000803e3d6000fd5b505050506040513d602081101562002e8e57600080fd5b50511162002ee65760408051600160e51b62461bcd02815260206004820152601660248201527f6261736b65742063616e6e6f7420626520656d70747900000000000000000000604482015290519081900360640190fd5b6005546001600160a01b03166379cc679062002f0162003579565b836040518363ffffffff1660e01b815260040180836001600160a01b03166001600160a01b0316815260200182815260200192505050600060405180830381600087803b15801562002f5257600080fd5b505af115801562002f67573d6000803e3d6000fd5b50505050606062002f78826200167d565b905060005b600360009054906101000a90046001600160a01b03166001600160a01b031663949d225d6040518163ffffffff1660e01b815260040160206040518083038186803b15801562002fcc57600080fd5b505afa15801562002fe1573d6000803e3d6000fd5b505050506040513d602081101562002ff857600080fd5b50518110156200313b576004805460035460408051600160e11b6327b2595f028152938401859052516001600160a01b039283169363c4e2c1e69390921691634f64b2be916024808301926020929190829003018186803b1580156200305d57600080fd5b505afa15801562003072573d6000803e3d6000fd5b505050506040513d60208110156200308957600080fd5b505184518590859081106200309a57fe5b6020026020010151620030ac62003579565b6040518463ffffffff1660e01b815260040180846001600160a01b03166001600160a01b03168152602001838152602001826001600160a01b03166001600160a01b031681526020019350505050600060405180830381600087803b1580156200311557600080fd5b505af11580156200312a573d6000803e3d6000fd5b50506001909201915062002f7d9050565b50816200314762003579565b6001600160a01b03167fe6c82503aaaa3db78b70f183901ae8668918f895b3982b2c851cf2ffe0c6c63960405160405180910390a350620012f762000884565b600a54610100900460ff1615620031d75760408051600160e51b62461bcd028152602060048201526012602482015260008051602062004738833981519152604482015290519081900360640190fd5b620031e162000884565b620032255760408051600160e51b62461bcd028152602060048201526013602482015260008051602062004779833981519152604482015290519081900360640190fd5b6000818152600760209081526040808320548151600160e41b630a8e4fb902815291516001600160a01b039091169363a8e4fb9093600480850194919392918390030190829087803b1580156200327b57600080fd5b505af115801562003290573d6000803e3d6000fd5b505050506040513d6020811015620032a757600080fd5b50516001600160a01b0316620032bc62003579565b6001600160a01b03161480620032f55750620032d762001f0d565b6001600160a01b0316620032ea62003579565b6001600160a01b0316145b806200331d57506002546001600160a01b03166200331262003579565b6001600160a01b0316145b620033725760408051600160e51b62461bcd02815260206004820152600d60248201527f63616e6e6f742063616e63656c00000000000000000000000000000000000000604482015290519081900360640190fd5b8060085411620033cc5760408051600160e51b62461bcd02815260206004820152601660248201527f70726f706f73616c73206c656e677468203c3d20696400000000000000000000604482015290519081900360640190fd5b600081815260076020526040808220548151600160e41b630ea8a1af02815291516001600160a01b039091169263ea8a1af0926004808201939182900301818387803b1580156200341c57600080fd5b505af115801562003431573d6000803e3d6000fd5b505050506200343f62003579565b6001600160a01b03166007600083815260200190815260200160002060009054906101000a90046001600160a01b03166001600160a01b031663a8e4fb906040518163ffffffff1660e01b8152600401602060405180830381600087803b158015620034aa57600080fd5b505af1158015620034bf573d6000803e3d6000fd5b505050506040513d6020811015620034d657600080fd5b50516040516001600160a01b039091169083907f3fde9f26258b83c66883b772bf01883817f4e42a165033c6799b06dddf45686b90600090a4620012f762000884565b62003523620037f7565b600954604080519182526020820183905280517fe238f342cc2d86b842f1511bd768de5dbea53639f6b5335c5d877543bc355c719281900390910190a1600955565b6006546001600160a01b031681565b600281565b3390565b6000826200358e57506000620035e1565b828202828482816200359c57fe5b0414620035de57604051600160e51b62461bcd028152600401808060200182810382526021815260200180620047586021913960400191505060405180910390fd5b90505b92915050565b83831115620036c15760006200368d600560009054906101000a90046001600160a01b03166001600160a01b03166318160ddd6040518163ffffffff1660e01b815260040160206040518083038186803b1580156200364557600080fd5b505afa1580156200365a573d6000803e3d6000fd5b505050506040513d60208110156200367157600080fd5b505162003685868863ffffffff62003a5b16565b600062003910565b90508015620036ba57600454620036ba906001600160a01b03858116918591168463ffffffff620039fc16565b50620037f1565b83831015620037f157600062003767600560009054906101000a90046001600160a01b03166001600160a01b03166318160ddd6040518163ffffffff1660e01b815260040160206040518083038186803b1580156200371f57600080fd5b505afa15801562003734573d6000803e3d6000fd5b505050506040513d60208110156200374b57600080fd5b50516200375f878763ffffffff62003a5b16565b600162003910565b90508015620037ef576004805460408051600160e11b63627160f30281526001600160a01b03878116948201949094526024810185905285841660448201529051929091169163c4e2c1e69160648082019260009290919082900301818387803b158015620037d557600080fd5b505af1158015620037ea573d6000803e3d6000fd5b505050505b505b50505050565b6000546001600160a01b03166200380d62003579565b6001600160a01b0316146200386c5760408051600160e51b62461bcd02815260206004820152601360248201527f63616c6c6572206973206e6f74206f776e657200000000000000000000000000604482015290519081900360640190fd5b565b600082820183811015620035de5760408051600160e51b62461bcd02815260206004820152601b60248201527f536166654d6174683a206164646974696f6e206f766572666c6f770000000000604482015290519081900360640190fd5b6000620035de83836040518060400160405280601a81526020017f536166654d6174683a206469766973696f6e206279207a65726f00000000000081525062003a9f565b60008062003966600560009054906101000a90046001600160a01b03166001600160a01b031663313ce5676040518163ffffffff1660e01b815260040160206040518083038186803b158015620008da57600080fd5b905060006200397c868663ffffffff6200357d16565b905060018460018111156200398d57fe5b1480620039a95750620039a7818363ffffffff62003b4916565b155b15620039cb57620039c1818363ffffffff620038cc16565b92505050620039f5565b620039f06001620039e3838563ffffffff620038cc16565b9063ffffffff6200386e16565b925050505b9392505050565b604080516001600160a01b0385811660248301528416604482015260648082018490528251808303909101815260849091019091526020810180516001600160e01b0316600160e01b6323b872dd02179052620037f190859062003b8d565b6000620035de83836040518060400160405280601e81526020017f536166654d6174683a207375627472616374696f6e206f766572666c6f77000081525062003d5a565b6000818362003b3257604051600160e51b62461bcd0281526004018080602001828103825283818151815260200191508051906020019080838360005b8381101562003af657818101518382015260200162003adc565b50505050905090810190601f16801562003b245780820380516001836020036101000a031916815260200191505b509250505060405180910390fd5b50600083858162003b3f57fe5b0495945050505050565b6000620035de83836040518060400160405280601881526020017f536166654d6174683a206d6f64756c6f206279207a65726f000000000000000081525062003dba565b62003ba1826001600160a01b031662003e23565b62003bf65760408051600160e51b62461bcd02815260206004820152601f60248201527f5361666545524332303a2063616c6c20746f206e6f6e2d636f6e747261637400604482015290519081900360640190fd5b60006060836001600160a01b0316836040518082805190602001908083835b6020831062003c365780518252601f19909201916020918201910162003c15565b6001836020036101000a0380198251168184511680821785525050505050509050019150506000604051808303816000865af19150503d806000811462003c9a576040519150601f19603f3d011682016040523d82523d6000602084013e62003c9f565b606091505b50915091508162003cfa5760408051600160e51b62461bcd02815260206004820181905260248201527f5361666545524332303a206c6f772d6c6576656c2063616c6c206661696c6564604482015290519081900360640190fd5b805115620037f15780806020019051602081101562003d1857600080fd5b5051620037f157604051600160e51b62461bcd02815260040180806020018281038252602a81526020018062004799602a913960400191505060405180910390fd5b6000818484111562003db257604051600160e51b62461bcd02815260206004820181815283516024840152835190928392604490910191908501908083836000831562003af657818101518382015260200162003adc565b505050900390565b6000818362003e0f57604051600160e51b62461bcd02815260206004820181815283516024840152835190928392604490910191908501908083836000831562003af657818101518382015260200162003adc565b5082848162003e1a57fe5b06949350505050565b6000813f7fc5d2460186f7233c927e7db2dcc703c0e500b653ca82273b7bfad8045d85a4708115801590620028005750141592915050565b6108998062003e6a8339019056fe608060405234801561001057600080fd5b506040516108993803806108998339810180604052606081101561003357600080fd5b81516020830180519193928301929164010000000081111561005457600080fd5b8201602081018481111561006757600080fd5b815185602082028301116401000000008211171561008457600080fd5b505092919060200180516401000000008111156100a057600080fd5b820160208101848111156100b357600080fd5b81518560208202830111640100000000821117156100d057600080fd5b5050929190505050805182511461014857604080517f08c379a000000000000000000000000000000000000000000000000000000000815260206004820152601d60248201527f4261736b65743a20756e657175616c206172726179206c656e67746873000000604482015290519081900360640190fd5b8151604051908082528060200260200182016040528015610173578160200160208202803883390190505b508051610188916000916020909101906105b5565b5060005b825181101561032b57600260008483815181106101a557fe5b6020908102919091018101516001600160a01b031682528101919091526040016000205460ff161561023857604080517f08c379a000000000000000000000000000000000000000000000000000000000815260206004820152601760248201527f6475706c696361746520746f6b656e20656e7472696573000000000000000000604482015290519081900360640190fd5b81818151811061024457fe5b60200260200101516001600085848151811061025c57fe5b60200260200101516001600160a01b03166001600160a01b031681526020019081526020016000208190555060016002600085848151811061029a57fe5b60200260200101516001600160a01b03166001600160a01b0316815260200190815260200160002060006101000a81548160ff0219169083151502179055508281815181106102e557fe5b6020026020010151600082815481106102fa57fe5b600091825260209091200180546001600160a01b0319166001600160a01b039290921691909117905560010161018c565b506001600160a01b0383161561053b5760005b836001600160a01b031663949d225d6040518163ffffffff1660e01b815260040160206040518083038186803b15801561037757600080fd5b505afa15801561038b573d6000803e3d6000fd5b505050506040513d60208110156103a157600080fd5b5051811015610539576000846001600160a01b0316634f64b2be836040518263ffffffff1660e01b81526004018082815260200191505060206040518083038186803b1580156103f057600080fd5b505afa158015610404573d6000803e3d6000fd5b505050506040513d602081101561041a57600080fd5b50516001600160a01b03811660009081526002602052604090205490915060ff1661053057846001600160a01b031663a7cac846826040518263ffffffff1660e01b815260040180826001600160a01b03166001600160a01b0316815260200191505060206040518083038186803b15801561049557600080fd5b505afa1580156104a9573d6000803e3d6000fd5b505050506040513d60208110156104bf57600080fd5b50516001600160a01b03821660008181526001602081815260408084209590955560029052928120805460ff1916841790558054928301815580527f290decd9548b62a8d60345a988386fc84ba6bc95484008f6362f93160ef3e56390910180546001600160a01b03191690911790555b5060010161033e565b505b600054600a10156105ad57604080517f08c379a000000000000000000000000000000000000000000000000000000000815260206004820152601260248201527f4261736b65743a20626164206c656e6774680000000000000000000000000000604482015290519081900360640190fd5b505050610641565b82805482825590600052602060002090810192821561060a579160200282015b8281111561060a57825182546001600160a01b0319166001600160a01b039091161782556020909201916001909101906105d5565b5061061692915061061a565b5090565b61063e91905b808211156106165780546001600160a01b0319168155600101610620565b90565b610249806106506000396000f3fe608060405234801561001057600080fd5b50600436106100575760003560e01c806321887c3d1461005c5780634f64b2be14610096578063949d225d146100cf578063a7cac846146100e9578063aa6ca8081461010f575b600080fd5b6100826004803603602081101561007257600080fd5b50356001600160a01b0316610167565b604080519115158252519081900360200190f35b6100b3600480360360208110156100ac57600080fd5b503561017c565b604080516001600160a01b039092168252519081900360200190f35b6100d76101a3565b60408051918252519081900360200190f35b6100d7600480360360208110156100ff57600080fd5b50356001600160a01b03166101a9565b6101176101bb565b60408051602080825283518183015283519192839290830191858101910280838360005b8381101561015357818101518382015260200161013b565b505050509050019250505060405180910390f35b60026020526000908152604090205460ff1681565b6000818154811061018957fe5b6000918252602090912001546001600160a01b0316905081565b60005490565b60016020526000908152604090205481565b6060600080548060200260200160405190810160405280929190818152602001828054801561021357602002820191906000526020600020905b81546001600160a01b031681526001909101906020018083116101f5575b505050505090509056fea165627a7a72305820059443131c81b029ae4befd56bfbe95c797ef801e8dcfb2b8d9a0040f92dbc85002949206865726562792072656e6f756e6365206f776e657273686970206f66207468697320636f6e747261637420666f72657665722e636f6e7472616374206973207061757365640000000000000000000000000000536166654d6174683a206d756c7469706c69636174696f6e206f766572666c6f77756e646572636f6c6c61746572616c697a6564000000000000000000000000005361666545524332303a204552433230206f7065726174696f6e20646964206e6f742073756363656564a165627a7a723058204c48c1276e8c8ec088a1ca50558d6909c3acf2e60a65f1ee1bb5b1b98f4a2bca0029",
  "source": "pragma solidity 0.5.7;\n\nimport \"../Manager.sol\";\n\n/**\n * @dev A version of the Manager for testing upgrades.\n */\ncontract ManagerV2 is Manager {\n\n    uint256 public constant VERSION = 2;\n\n    constructor(\n        address vaultAddr,\n        address rsvAddr,\n        address proposalFactoryAddr,\n        address basketAddr,\n        address operatorAddr,\n        uint256 _seigniorage\n    ) Manager(\n        vaultAddr, \n        rsvAddr, \n        proposalFactoryAddr, \n        basketAddr, \n        operatorAddr, \n        _seigniorage\n    ) public {}\n}\n",
  "sourcePath": "/Users/taylorbrent/reserve/simple-portal/contracts/test/ManagerV2.sol",
  "compiler": {
    "name": "solc",
    "version": "0.5.7+commit.6da8b019.Emscripten.clang"
  },
  "schemaVersion": "3.0.17",
  "updatedAt": "2019-12-12T00:07:39.153Z",
  "devdoc": {
    "details": "A version of the Manager for testing upgrades.",
    "methods": {
      "acceptOwnership()": {
        "details": "Accepts ownership of the contract."
      },
      "nominateNewOwner(address)": {
        "details": "Nominates a new owner `newOwner`. Requires a follow-up `acceptOwnership`. Can only be called by the current owner."
      },
      "nominatedOwner()": {
        "details": "Returns the address of the current nominated owner."
      },
      "owner()": {
        "details": "Returns the address of the current owner."
      }
    }
  },
  "userdoc": {
    "methods": {
      "acceptProposal(uint256)": {
        "notice": "Accepts a proposal for a new basket, beginning the required delay."
      },
      "cancelProposal(uint256)": {
        "notice": "Cancels a proposal. This can be done anytime before it is enacted by any of: 1. Proposer 2. Operator 3. Owner"
      },
      "clearProposals()": {
        "notice": "Clear the list of proposals."
      },
      "executeProposal(uint256)": {
        "notice": "Executes a proposal by exchanging collateral tokens with the proposer."
      },
      "isFullyCollateralized()": {
        "notice": "Ensure that the Vault is fully collateralized.  That this is true should be an invariant of this contract: it's true before and after every txn."
      },
      "issue(uint256)": {
        "notice": "Handles issuance. rsvAmount unit: qRSV"
      },
      "proposeSwap(address[],uint256[],bool[])": {
        "notice": "Propose an exchange of current Vault tokens for new Vault tokens.     * These parameters are phyiscally a set of arrays because Solidity doesn't let you pass around arrays of structs as parameters of transactions. Semantically, read these three lists as a list of triples (token, amount, toVault), where:     * - token is the address of an ERC-20 token, - amount is the amount of the token that the proposer says they will trade with the vault, - toVault is the direction of that trade. If toVault is true, the proposer offers to send  `amount` of `token` to the vault. If toVault is false, the proposer expects to receive  `amount` of `token` from the vault.     * If and when this proposal is accepted and executed, then:     * 1. The Manager checks that the proposer has allowed adequate funds, for the proposed   transfers from the proposer to the vault. 2. The proposed set of token transfers occur between the Vault and the proposer. 3. The Vault's basket weights are raised and lowered, based on these token transfers and the   total supply of RSV **at the time when the proposal is executed**.     * Note that the set of token transfers will almost always be at very slightly lower volumes than requested, due to the rounding error involved in (a) adjusting the weights at execution time and (b) keeping the Vault fully collateralized. The contracts should never attempt to trade at higher volumes than requested.     * The intended behavior of proposers is that they will make proposals that shift the Vault composition towards some known target of Reserve's management while maintaining full backing; the expected behavior of Reserve's management is to accept only such proposals, excepting during dire emergencies.     * Note: This type of proposal does not reliably remove token addresses! If you want to remove token addresses entirely, use proposeWeights.     * Returns the new proposal's ID."
      },
      "proposeWeights(address[],uint256[])": {
        "notice": "Propose a new basket, defined by a list of tokens address, and their basket weights.     * Note: With this type of proposal, the allowances of tokens that will be required of the proposer may change between proposition and execution. If the supply of RSV rises or falls, then more or fewer tokens will be required to execute the proposal.     * Returns the new proposal's ID."
      },
      "redeem(uint256)": {
        "notice": "Handles redemption. rsvAmount unit: qRSV"
      },
      "renounceOwnership(string)": {
        "notice": "Set `_owner` to the 0 address. Only do this to deliberately lock in the current permissions.     * THIS CANNOT BE UNDONE! Call this only if you know what you're doing and why you're doing it!"
      },
      "setDelay(uint256)": {
        "notice": "Set the Proposal delay in hours."
      },
      "setEmergency(bool)": {
        "notice": "Set if all contract actions should be paused."
      },
      "setIssuancePaused(bool)": {
        "notice": "Set if issuance should be paused."
      },
      "setOperator(address)": {
        "notice": "Set the operator."
      },
      "setSeigniorage(uint256)": {
        "notice": "Set the seigniorage, in BPS."
      },
      "setVault(address)": {
        "notice": "Set the vault."
      },
      "toIssue(uint256)": {
        "notice": "Get amounts of basket tokens required to issue an amount of RSV. The returned array will be in the same order as the current basket.tokens. return unit: qToken[]"
      },
      "toRedeem(uint256)": {
        "notice": "Get amounts of basket tokens that would be sent upon redeeming an amount of RSV. The returned array will be in the same order as the current basket.tokens. return unit: qToken[]"
      }
    }
  }
}