{
  "contractName": "Manager",
  "abi": [
    {
      "constant": false,
      "inputs": [
        {
          "name": "newOwner",
          "type": "address"
        }
      ],
      "name": "nominateNewOwner",
      "outputs": [],
      "payable": false,
      "stateMutability": "nonpayable",
      "type": "function"
    },
    {
      "constant": true,
      "inputs": [],
      "name": "trustedVault",
      "outputs": [
        {
          "name": "",
          "type": "address"
        }
      ],
      "payable": false,
      "stateMutability": "view",
      "type": "function"
    },
    {
      "constant": true,
      "inputs": [],
      "name": "proposalsLength",
      "outputs": [
        {
          "name": "",
          "type": "uint256"
        }
      ],
      "payable": false,
      "stateMutability": "view",
      "type": "function"
    },
    {
      "constant": true,
      "inputs": [],
      "name": "seigniorage",
      "outputs": [
        {
          "name": "",
          "type": "uint256"
        }
      ],
      "payable": false,
      "stateMutability": "view",
      "type": "function"
    },
    {
      "constant": false,
      "inputs": [
        {
          "name": "declaration",
          "type": "string"
        }
      ],
      "name": "renounceOwnership",
      "outputs": [],
      "payable": false,
      "stateMutability": "nonpayable",
      "type": "function"
    },
    {
      "constant": true,
      "inputs": [],
      "name": "nominatedOwner",
      "outputs": [
        {
          "name": "",
          "type": "address"
        }
      ],
      "payable": false,
      "stateMutability": "view",
      "type": "function"
    },
    {
      "constant": true,
      "inputs": [],
      "name": "operator",
      "outputs": [
        {
          "name": "",
          "type": "address"
        }
      ],
      "payable": false,
      "stateMutability": "view",
      "type": "function"
    },
    {
      "constant": true,
      "inputs": [],
      "name": "delay",
      "outputs": [
        {
          "name": "",
          "type": "uint256"
        }
      ],
      "payable": false,
      "stateMutability": "view",
      "type": "function"
    },
    {
      "constant": false,
      "inputs": [],
      "name": "acceptOwnership",
      "outputs": [],
      "payable": false,
      "stateMutability": "nonpayable",
      "type": "function"
    },
    {
      "constant": true,
      "inputs": [],
      "name": "owner",
      "outputs": [
        {
          "name": "",
          "type": "address"
        }
      ],
      "payable": false,
      "stateMutability": "view",
      "type": "function"
    },
    {
      "constant": true,
      "inputs": [],
      "name": "trustedBasket",
      "outputs": [
        {
          "name": "",
          "type": "address"
        }
      ],
      "payable": false,
      "stateMutability": "view",
      "type": "function"
    },
    {
      "constant": true,
      "inputs": [],
      "name": "trustedRSV",
      "outputs": [
        {
          "name": "",
          "type": "address"
        }
      ],
      "payable": false,
      "stateMutability": "view",
      "type": "function"
    },
    {
      "constant": true,
      "inputs": [
        {
          "name": "",
          "type": "uint256"
        }
      ],
      "name": "trustedProposals",
      "outputs": [
        {
          "name": "",
          "type": "address"
        }
      ],
      "payable": false,
      "stateMutability": "view",
      "type": "function"
    },
    {
      "constant": true,
      "inputs": [],
      "name": "issuancePaused",
      "outputs": [
        {
          "name": "",
          "type": "bool"
        }
      ],
      "payable": false,
      "stateMutability": "view",
      "type": "function"
    },
    {
      "constant": true,
      "inputs": [],
      "name": "emergency",
      "outputs": [
        {
          "name": "",
          "type": "bool"
        }
      ],
      "payable": false,
      "stateMutability": "view",
      "type": "function"
    },
    {
      "constant": true,
      "inputs": [],
      "name": "trustedProposalFactory",
      "outputs": [
        {
          "name": "",
          "type": "address"
        }
      ],
      "payable": false,
      "stateMutability": "view",
      "type": "function"
    },
    {
      "inputs": [
        {
          "name": "vaultAddr",
          "type": "address"
        },
        {
          "name": "rsvAddr",
          "type": "address"
        },
        {
          "name": "proposalFactoryAddr",
          "type": "address"
        },
        {
          "name": "basketAddr",
          "type": "address"
        },
        {
          "name": "operatorAddr",
          "type": "address"
        },
        {
          "name": "_seigniorage",
          "type": "uint256"
        }
      ],
      "payable": false,
      "stateMutability": "nonpayable",
      "type": "constructor"
    },
    {
      "anonymous": false,
      "inputs": [],
      "name": "ProposalsCleared",
      "type": "event"
    },
    {
      "anonymous": false,
      "inputs": [
        {
          "indexed": true,
          "name": "user",
          "type": "address"
        },
        {
          "indexed": true,
          "name": "amount",
          "type": "uint256"
        }
      ],
      "name": "Issuance",
      "type": "event"
    },
    {
      "anonymous": false,
      "inputs": [
        {
          "indexed": true,
          "name": "user",
          "type": "address"
        },
        {
          "indexed": true,
          "name": "amount",
          "type": "uint256"
        }
      ],
      "name": "Redemption",
      "type": "event"
    },
    {
      "anonymous": false,
      "inputs": [
        {
          "indexed": true,
          "name": "oldVal",
          "type": "bool"
        },
        {
          "indexed": true,
          "name": "newVal",
          "type": "bool"
        }
      ],
      "name": "IssuancePausedChanged",
      "type": "event"
    },
    {
      "anonymous": false,
      "inputs": [
        {
          "indexed": true,
          "name": "oldVal",
          "type": "bool"
        },
        {
          "indexed": true,
          "name": "newVal",
          "type": "bool"
        }
      ],
      "name": "EmergencyChanged",
      "type": "event"
    },
    {
      "anonymous": false,
      "inputs": [
        {
          "indexed": true,
          "name": "oldAccount",
          "type": "address"
        },
        {
          "indexed": true,
          "name": "newAccount",
          "type": "address"
        }
      ],
      "name": "OperatorChanged",
      "type": "event"
    },
    {
      "anonymous": false,
      "inputs": [
        {
          "indexed": false,
          "name": "oldVal",
          "type": "uint256"
        },
        {
          "indexed": false,
          "name": "newVal",
          "type": "uint256"
        }
      ],
      "name": "SeigniorageChanged",
      "type": "event"
    },
    {
      "anonymous": false,
      "inputs": [
        {
          "indexed": true,
          "name": "oldVaultAddr",
          "type": "address"
        },
        {
          "indexed": true,
          "name": "newVaultAddr",
          "type": "address"
        }
      ],
      "name": "VaultChanged",
      "type": "event"
    },
    {
      "anonymous": false,
      "inputs": [
        {
          "indexed": false,
          "name": "oldVal",
          "type": "uint256"
        },
        {
          "indexed": false,
          "name": "newVal",
          "type": "uint256"
        }
      ],
      "name": "DelayChanged",
      "type": "event"
    },
    {
      "anonymous": false,
      "inputs": [
        {
          "indexed": true,
          "name": "id",
          "type": "uint256"
        },
        {
          "indexed": true,
          "name": "proposer",
          "type": "address"
        },
        {
          "indexed": false,
          "name": "tokens",
          "type": "address[]"
        },
        {
          "indexed": false,
          "name": "weights",
          "type": "uint256[]"
        }
      ],
      "name": "WeightsProposed",
      "type": "event"
    },
    {
      "anonymous": false,
      "inputs": [
        {
          "indexed": true,
          "name": "id",
          "type": "uint256"
        },
        {
          "indexed": true,
          "name": "proposer",
          "type": "address"
        },
        {
          "indexed": false,
          "name": "tokens",
          "type": "address[]"
        },
        {
          "indexed": false,
          "name": "amounts",
          "type": "uint256[]"
        },
        {
          "indexed": false,
          "name": "toVault",
          "type": "bool[]"
        }
      ],
      "name": "SwapProposed",
      "type": "event"
    },
    {
      "anonymous": false,
      "inputs": [
        {
          "indexed": true,
          "name": "id",
          "type": "uint256"
        },
        {
          "indexed": true,
          "name": "proposer",
          "type": "address"
        }
      ],
      "name": "ProposalAccepted",
      "type": "event"
    },
    {
      "anonymous": false,
      "inputs": [
        {
          "indexed": true,
          "name": "id",
          "type": "uint256"
        },
        {
          "indexed": true,
          "name": "proposer",
          "type": "address"
        },
        {
          "indexed": true,
          "name": "canceler",
          "type": "address"
        }
      ],
      "name": "ProposalCanceled",
      "type": "event"
    },
    {
      "anonymous": false,
      "inputs": [
        {
          "indexed": true,
          "name": "id",
          "type": "uint256"
        },
        {
          "indexed": true,
          "name": "proposer",
          "type": "address"
        },
        {
          "indexed": true,
          "name": "executor",
          "type": "address"
        },
        {
          "indexed": false,
          "name": "oldBasket",
          "type": "address"
        },
        {
          "indexed": false,
          "name": "newBasket",
          "type": "address"
        }
      ],
      "name": "ProposalExecuted",
      "type": "event"
    },
    {
      "anonymous": false,
      "inputs": [
        {
          "indexed": true,
          "name": "previousOwner",
          "type": "address"
        },
        {
          "indexed": true,
          "name": "nominee",
          "type": "address"
        }
      ],
      "name": "NewOwnerNominated",
      "type": "event"
    },
    {
      "anonymous": false,
      "inputs": [
        {
          "indexed": true,
          "name": "previousOwner",
          "type": "address"
        },
        {
          "indexed": true,
          "name": "newOwner",
          "type": "address"
        }
      ],
      "name": "OwnershipTransferred",
      "type": "event"
    },
    {
      "constant": false,
      "inputs": [
        {
          "name": "val",
          "type": "bool"
        }
      ],
      "name": "setIssuancePaused",
      "outputs": [],
      "payable": false,
      "stateMutability": "nonpayable",
      "type": "function"
    },
    {
      "constant": false,
      "inputs": [
        {
          "name": "val",
          "type": "bool"
        }
      ],
      "name": "setEmergency",
      "outputs": [],
      "payable": false,
      "stateMutability": "nonpayable",
      "type": "function"
    },
    {
      "constant": false,
      "inputs": [
        {
          "name": "newVaultAddress",
          "type": "address"
        }
      ],
      "name": "setVault",
      "outputs": [],
      "payable": false,
      "stateMutability": "nonpayable",
      "type": "function"
    },
    {
      "constant": false,
      "inputs": [],
      "name": "clearProposals",
      "outputs": [],
      "payable": false,
      "stateMutability": "nonpayable",
      "type": "function"
    },
    {
      "constant": false,
      "inputs": [
        {
          "name": "_operator",
          "type": "address"
        }
      ],
      "name": "setOperator",
      "outputs": [],
      "payable": false,
      "stateMutability": "nonpayable",
      "type": "function"
    },
    {
      "constant": false,
      "inputs": [
        {
          "name": "_seigniorage",
          "type": "uint256"
        }
      ],
      "name": "setSeigniorage",
      "outputs": [],
      "payable": false,
      "stateMutability": "nonpayable",
      "type": "function"
    },
    {
      "constant": false,
      "inputs": [
        {
          "name": "_delay",
          "type": "uint256"
        }
      ],
      "name": "setDelay",
      "outputs": [],
      "payable": false,
      "stateMutability": "nonpayable",
      "type": "function"
    },
    {
      "constant": true,
      "inputs": [],
      "name": "isFullyCollateralized",
      "outputs": [
        {
          "name": "",
          "type": "bool"
        }
      ],
      "payable": false,
      "stateMutability": "view",
      "type": "function"
    },
    {
      "constant": true,
      "inputs": [
        {
          "name": "rsvAmount",
          "type": "uint256"
        }
      ],
      "name": "toIssue",
      "outputs": [
        {
          "name": "",
          "type": "uint256[]"
        }
      ],
      "payable": false,
      "stateMutability": "view",
      "type": "function"
    },
    {
      "constant": true,
      "inputs": [
        {
          "name": "rsvAmount",
          "type": "uint256"
        }
      ],
      "name": "toRedeem",
      "outputs": [
        {
          "name": "",
          "type": "uint256[]"
        }
      ],
      "payable": false,
      "stateMutability": "view",
      "type": "function"
    },
    {
      "constant": false,
      "inputs": [
        {
          "name": "rsvAmount",
          "type": "uint256"
        }
      ],
      "name": "issue",
      "outputs": [],
      "payable": false,
      "stateMutability": "nonpayable",
      "type": "function"
    },
    {
      "constant": false,
      "inputs": [
        {
          "name": "rsvAmount",
          "type": "uint256"
        }
      ],
      "name": "redeem",
      "outputs": [],
      "payable": false,
      "stateMutability": "nonpayable",
      "type": "function"
    },
    {
      "constant": false,
      "inputs": [
        {
          "name": "tokens",
          "type": "address[]"
        },
        {
          "name": "amounts",
          "type": "uint256[]"
        },
        {
          "name": "toVault",
          "type": "bool[]"
        }
      ],
      "name": "proposeSwap",
      "outputs": [
        {
          "name": "",
          "type": "uint256"
        }
      ],
      "payable": false,
      "stateMutability": "nonpayable",
      "type": "function"
    },
    {
      "constant": false,
      "inputs": [
        {
          "name": "tokens",
          "type": "address[]"
        },
        {
          "name": "weights",
          "type": "uint256[]"
        }
      ],
      "name": "proposeWeights",
      "outputs": [
        {
          "name": "",
          "type": "uint256"
        }
      ],
      "payable": false,
      "stateMutability": "nonpayable",
      "type": "function"
    },
    {
      "constant": false,
      "inputs": [
        {
          "name": "id",
          "type": "uint256"
        }
      ],
      "name": "acceptProposal",
      "outputs": [],
      "payable": false,
      "stateMutability": "nonpayable",
      "type": "function"
    },
    {
      "constant": false,
      "inputs": [
        {
          "name": "id",
          "type": "uint256"
        }
      ],
      "name": "cancelProposal",
      "outputs": [],
      "payable": false,
      "stateMutability": "nonpayable",
      "type": "function"
    },
    {
      "constant": false,
      "inputs": [
        {
          "name": "id",
          "type": "uint256"
        }
      ],
      "name": "executeProposal",
      "outputs": [],
      "payable": false,
      "stateMutability": "nonpayable",
      "type": "function"
    }
  ],
  "bytecode": "0x6080604052620151806009553480156200001857600080fd5b5060405160c0806200498f833981018060405260c08110156200003a57600080fd5b50805160208083015160408401516060850151608086015160a090960151949592949193909291906000906200007490620001a8811b901c565b600080546001600160a01b0319166001600160a01b0383169081178255604051929350917f8be0079c531659141344cd1fd0a4f28419497f9722a3daafe3b4186f6b6457e0908290a3506103e88111156200013057604080517f08c379a000000000000000000000000000000000000000000000000000000000815260206004820152601360248201527f6d617820736569676e696f726167652031302500000000000000000000000000604482015290519081900360640190fd5b600480546001600160a01b03199081166001600160a01b0398891617909155600580548216968816969096179095556006805486169487169490941790935560038054851692861692909217909155600280549093169316929092179055600b55600a805461010061ff0019909116179055620001ac565b3390565b6147d380620001bc6000396000f3fe60806040523480156200001157600080fd5b50600436106200022c5760003560e01c806379ba50971162000135578063c6ffb6cb11620000bd578063ce232e871162000087578063ce232e871462000727578063db006a751462000747578063e0a8f6f51462000767578063e177246e1462000787578063ea9f9c3a14620007a7576200022c565b8063c6ffb6cb1462000614578063c9ae74361462000636578063caa6fea414620006fd578063cc872b661462000707576200022c565b8063b3ab15fb11620000ff578063b3ab15fb14620005b7578063bb7a109b14620005e0578063c11fb13e14620005ea578063c691af92146200060a576200022c565b806379ba5097146200047f5780638da5cb5b1462000489578063a1672a3c1462000493578063a5ea7fdd14620005ad576200022c565b80634e1d9df511620001b95780635d3e9deb11620001835780635d3e9deb146200042257806360c5cc3a146200042c5780636817031b146200044c5780636a42b8f81462000475576200022c565b80634e1d9df514620003905780634fdb7f44146200039a57806353a47bb7146200040e578063570ca7351462000418576200022c565b80631d9afe5e11620001fb5780631d9afe5e14620002bc5780632404e26d146200032e578063279fdf6d146200034e57806344c7c8671462000374576200022c565b80630501d55614620002315780630ad7ef5114620002555780630d61b51914620002735780631627540c1462000293575b600080fd5b62000253600480360360208110156200024957600080fd5b50351515620007b1565b005b6200025f6200086e565b604080519115158252519081900360200190f35b62000253600480360360208110156200028b57600080fd5b503562000bf0565b6200025360048036036020811015620002ab57600080fd5b50356001600160a01b0316620012eb565b620002dc60048036036020811015620002d457600080fd5b5035620013af565b60408051602080825283518183015283519192839290830191858101910280838360005b838110156200031a57818101518382015260200162000300565b505050509050019250505060405180910390f35b620002dc600480360360208110156200034657600080fd5b503562001667565b62000358620018d5565b604080516001600160a01b039092168252519081900360200190f35b6200037e620018e4565b60408051918252519081900360200190f35b6200037e620018ea565b6200025360048036036020811015620003b257600080fd5b810190602081018135600160201b811115620003cd57600080fd5b820183602082011115620003e057600080fd5b803590602001918460018302840111600160201b831117156200040257600080fd5b509092509050620018f0565b6200035862001a5b565b6200035862001a6a565b6200025362001a79565b62000253600480360360208110156200044457600080fd5b503562001b11565b62000253600480360360208110156200046457600080fd5b50356001600160a01b031662001dba565b6200037e62001e20565b6200025362001e26565b6200035862001ef7565b6200037e60048036036060811015620004ab57600080fd5b810190602081018135600160201b811115620004c657600080fd5b820183602082011115620004d957600080fd5b803590602001918460208302840111600160201b83111715620004fb57600080fd5b919390929091602081019035600160201b8111156200051957600080fd5b8201836020820111156200052c57600080fd5b803590602001918460208302840111600160201b831117156200054e57600080fd5b919390929091602081019035600160201b8111156200056c57600080fd5b8201836020820111156200057f57600080fd5b803590602001918460208302840111600160201b83111715620005a157600080fd5b50909250905062001f06565b62000358620022b0565b6200025360048036036020811015620005cf57600080fd5b50356001600160a01b0316620022bf565b6200035862002325565b62000358600480360360208110156200060257600080fd5b503562002334565b6200025f6200234f565b62000253600480360360208110156200062c57600080fd5b5035151562002358565b6200037e600480360360408110156200064e57600080fd5b810190602081018135600160201b8111156200066957600080fd5b8201836020820111156200067c57600080fd5b803590602001918460208302840111600160201b831117156200069e57600080fd5b919390929091602081019035600160201b811115620006bc57600080fd5b820183602082011115620006cf57600080fd5b803590602001918460208302840111600160201b83111715620006f157600080fd5b50909250905062002409565b6200025f620027f2565b62000253600480360360208110156200071f57600080fd5b503562002800565b62000253600480360360208110156200073f57600080fd5b503562002c65565b62000253600480360360208110156200075f57600080fd5b503562002d0c565b62000253600480360360208110156200077f57600080fd5b503562003171565b62000253600480360360208110156200079f57600080fd5b503562003503565b620003586200354f565b6002546001600160a01b0316620007c76200355e565b6001600160a01b031614620008195760408051600160e51b62461bcd02815260206004820152600d6024820152600160981b6c6f70657261746f72206f6e6c7902604482015290519081900360640190fd5b600a5460405182151591610100900460ff161515907fcf0e29214fd33dc9e1fb57399bdb5e5de6e43c27d6ec7f016d2662c78fb5ddda90600090a3600a80549115156101000261ff0019909216919091179055565b6000806200090e600560009054906101000a90046001600160a01b03166001600160a01b031663313ce5676040518163ffffffff1660e01b815260040160206040518083038186803b158015620008c457600080fd5b505afa158015620008d9573d6000803e3d6000fd5b505050506040513d6020811015620008f057600080fd5b5051670de0b6b3a76400009060ff16600a0a63ffffffff6200356216565b905060005b600360009054906101000a90046001600160a01b03166001600160a01b031663949d225d6040518163ffffffff1660e01b815260040160206040518083038186803b1580156200096257600080fd5b505afa15801562000977573d6000803e3d6000fd5b505050506040513d60208110156200098e57600080fd5b505181101562000be65760035460408051600160e11b6327b2595f0281526004810184905290516000926001600160a01b031691634f64b2be916024808301926020929190829003018186803b158015620009e857600080fd5b505afa158015620009fd573d6000803e3d6000fd5b505050506040513d602081101562000a1457600080fd5b505160035460408051600160e11b6353e564230281526001600160a01b0380851660048301529151939450600093919092169163a7cac846916024808301926020929190829003018186803b15801562000a6d57600080fd5b505afa15801562000a82573d6000803e3d6000fd5b505050506040513d602081101562000a9957600080fd5b50516004805460408051600160e01b6370a082310281526001600160a01b039283169381019390935251929350600092908516916370a08231916024808301926020929190829003018186803b15801562000af357600080fd5b505afa15801562000b08573d6000803e3d6000fd5b505050506040513d602081101562000b1f57600080fd5b5051905062000b35818663ffffffff6200356216565b62000bc483600560009054906101000a90046001600160a01b03166001600160a01b03166318160ddd6040518163ffffffff1660e01b815260040160206040518083038186803b15801562000b8957600080fd5b505afa15801562000b9e573d6000803e3d6000fd5b505050506040513d602081101562000bb557600080fd5b50519063ffffffff6200356216565b111562000bda5760009550505050505062000bed565b50505060010162000913565b5060019150505b90565b6002546001600160a01b031662000c066200355e565b6001600160a01b03161462000c585760408051600160e51b62461bcd02815260206004820152600d6024820152600160981b6c6f70657261746f72206f6e6c7902604482015290519081900360640190fd5b600a54610100900460ff161562000ca85760408051600160e51b62461bcd02815260206004820152601260248201526000805160206200471d833981519152604482015290519081900360640190fd5b62000cb26200086e565b62000cf65760408051600160e51b62461bcd02815260206004820152601360248201526000805160206200475e833981519152604482015290519081900360640190fd5b806008541162000d505760408051600160e51b62461bcd02815260206004820152601660248201527f70726f706f73616c73206c656e677468203c3d20696400000000000000000000604482015290519081900360640190fd5b6000818152600760209081526040808320548151600160e41b630a8e4fb902815291516001600160a01b039091169263a8e4fb90926004808201939182900301818787803b15801562000da257600080fd5b505af115801562000db7573d6000803e3d6000fd5b505050506040513d602081101562000dce57600080fd5b50516003546000848152600760209081526040808320546005548251600160e21b6339624bd90281526001600160a01b039182166004820152958116602487018190529251969750919591169363e5892f649360448083019493928390030190829087803b15801562000e4057600080fd5b505af115801562000e55573d6000803e3d6000fd5b505050506040513d602081101562000e6c57600080fd5b5051600380546001600160a01b0319166001600160a01b0390921691909117905560005b816001600160a01b031663949d225d6040518163ffffffff1660e01b815260040160206040518083038186803b15801562000eca57600080fd5b505afa15801562000edf573d6000803e3d6000fd5b505050506040513d602081101562000ef657600080fd5b50518110156200108a576000826001600160a01b0316634f64b2be836040518263ffffffff1660e01b81526004018082815260200191505060206040518083038186803b15801562000f4757600080fd5b505afa15801562000f5c573d6000803e3d6000fd5b505050506040513d602081101562000f7357600080fd5b505160408051600160e11b6353e564230281526001600160a01b038084166004830152915192935062001080929186169163a7cac84691602480820192602092909190829003018186803b15801562000fcb57600080fd5b505afa15801562000fe0573d6000803e3d6000fd5b505050506040513d602081101562000ff757600080fd5b505160035460408051600160e11b6353e564230281526001600160a01b0386811660048301529151919092169163a7cac846916024808301926020929190829003018186803b1580156200104a57600080fd5b505afa1580156200105f573d6000803e3d6000fd5b505050506040513d60208110156200107657600080fd5b50518387620035cc565b5060010162000e90565b5060005b600360009054906101000a90046001600160a01b03166001600160a01b031663949d225d6040518163ffffffff1660e01b815260040160206040518083038186803b158015620010dd57600080fd5b505afa158015620010f2573d6000803e3d6000fd5b505050506040513d60208110156200110957600080fd5b50518110156200127a5760035460408051600160e11b6327b2595f0281526004810184905290516000926001600160a01b031691634f64b2be916024808301926020929190829003018186803b1580156200116357600080fd5b505afa15801562001178573d6000803e3d6000fd5b505050506040513d60208110156200118f57600080fd5b505160408051600160e01b6321887c3d0281526001600160a01b0380841660048301529151929350908516916321887c3d91602480820192602092909190829003018186803b158015620011e257600080fd5b505afa158015620011f7573d6000803e3d6000fd5b505050506040513d60208110156200120e57600080fd5b5051620012705762001270836001600160a01b031663a7cac846836040518263ffffffff1660e01b815260040180826001600160a01b03166001600160a01b0316815260200191505060206040518083038186803b15801562000fcb57600080fd5b506001016200108e565b50620012856200355e565b600354604080516001600160a01b03858116825292831660208201528151938316939286169287927f0c61d799d734d5537f38b565a766360b56e01d78d32a2edbf0b49f63dab3259e928290030190a45050620012e16200086e565b620012e857fe5b50565b620012f5620037dc565b6001600160a01b038116620013545760408051600160e51b62461bcd02815260206004820152601660248201527f6e6577206f776e65722069732030206164647265737300000000000000000000604482015290519081900360640190fd5b600080546040516001600160a01b03808516939216917fb59bab42c554cfd49f4f001c983b6ed93ede25748b10114b7d1cb1b3c97df7af91a3600180546001600160a01b0319166001600160a01b0392909216919091179055565b606080600360009054906101000a90046001600160a01b03166001600160a01b031663949d225d6040518163ffffffff1660e01b815260040160206040518083038186803b1580156200140157600080fd5b505afa15801562001416573d6000803e3d6000fd5b505050506040513d60208110156200142d57600080fd5b505160408051828152602080840282010190915290801562001459578160200160208202803883390190505b509050600062001477612710600b546200385390919063ffffffff16565b90506000620014a161271062001494878563ffffffff6200356216565b9063ffffffff620038b116565b905060005b600360009054906101000a90046001600160a01b03166001600160a01b031663949d225d6040518163ffffffff1660e01b815260040160206040518083038186803b158015620014f557600080fd5b505afa1580156200150a573d6000803e3d6000fd5b505050506040513d60208110156200152157600080fd5b50518110156200165d5760035460408051600160e11b6327b2595f0281526004810184905290516000926001600160a01b031691634f64b2be916024808301926020929190829003018186803b1580156200157b57600080fd5b505afa15801562001590573d6000803e3d6000fd5b505050506040513d6020811015620015a757600080fd5b505160035460408051600160e11b6353e564230281526001600160a01b03808516600483015291519394506200163b938793929092169163a7cac84691602480820192602092909190829003018186803b1580156200160557600080fd5b505afa1580156200161a573d6000803e3d6000fd5b505050506040513d60208110156200163157600080fd5b50516000620038f5565b8583815181106200164857fe5b602090810291909101015250600101620014a6565b5091949350505050565b606080600360009054906101000a90046001600160a01b03166001600160a01b031663949d225d6040518163ffffffff1660e01b815260040160206040518083038186803b158015620016b957600080fd5b505afa158015620016ce573d6000803e3d6000fd5b505050506040513d6020811015620016e557600080fd5b505160408051828152602080840282010190915290801562001711578160200160208202803883390190505b50905060005b600360009054906101000a90046001600160a01b03166001600160a01b031663949d225d6040518163ffffffff1660e01b815260040160206040518083038186803b1580156200176657600080fd5b505afa1580156200177b573d6000803e3d6000fd5b505050506040513d60208110156200179257600080fd5b5051811015620018ce5760035460408051600160e11b6327b2595f0281526004810184905290516000926001600160a01b031691634f64b2be916024808301926020929190829003018186803b158015620017ec57600080fd5b505afa15801562001801573d6000803e3d6000fd5b505050506040513d60208110156200181857600080fd5b505160035460408051600160e11b6353e564230281526001600160a01b0380851660048301529151939450620018ac938993929092169163a7cac84691602480820192602092909190829003018186803b1580156200187657600080fd5b505afa1580156200188b573d6000803e3d6000fd5b505050506040513d6020811015620018a257600080fd5b50516001620038f5565b838381518110620018b957fe5b60209081029190910101525060010162001717565b5092915050565b6004546001600160a01b031681565b60085481565b600b5481565b620018fa620037dc565b6060604051806060016040528060358152602001620046e8603591399050806040516020018082805190602001908083835b602083106200194d5780518252601f1990920191602091820191016200192c565b6001836020036101000a038019825116818451168082178552505050505050905001915050604051602081830303815290604052805190602001208383604051602001808383808284378083019250505092505050604051602081830303815290604052805190602001201462001a0e5760408051600160e51b62461bcd02815260206004820152601560248201527f6465636c61726174696f6e20696e636f72726563740000000000000000000000604482015290519081900360640190fd5b600080546040516001600160a01b03909116907f8be0079c531659141344cd1fd0a4f28419497f9722a3daafe3b4186f6b6457e0908390a35050600080546001600160a01b031916905550565b6001546001600160a01b031690565b6002546001600160a01b031681565b6002546001600160a01b031662001a8f6200355e565b6001600160a01b03161462001ae15760408051600160e51b62461bcd02815260206004820152600d6024820152600160981b6c6f70657261746f72206f6e6c7902604482015290519081900360640190fd5b600060088190556040517fe89b7d17759242abd80309cee2479e2cd462f8a25d06a0f90fba1de050de66239190a1565b6002546001600160a01b031662001b276200355e565b6001600160a01b03161462001b795760408051600160e51b62461bcd02815260206004820152600d6024820152600160981b6c6f70657261746f72206f6e6c7902604482015290519081900360640190fd5b600a54610100900460ff161562001bc95760408051600160e51b62461bcd02815260206004820152601260248201526000805160206200471d833981519152604482015290519081900360640190fd5b62001bd36200086e565b62001c175760408051600160e51b62461bcd02815260206004820152601360248201526000805160206200475e833981519152604482015290519081900360640190fd5b806008541162001c715760408051600160e51b62461bcd02815260206004820152601660248201527f70726f706f73616c73206c656e677468203c3d20696400000000000000000000604482015290519081900360640190fd5b6000818152600760205260409020546009546001600160a01b03909116906319b05f499062001ca890429063ffffffff6200385316565b6040518263ffffffff1660e01b815260040180828152602001915050600060405180830381600087803b15801562001cdf57600080fd5b505af115801562001cf4573d6000803e3d6000fd5b5050506000828152600760209081526040808320548151600160e41b630a8e4fb902815291516001600160a01b03909116945063a8e4fb9093600480840194938390030190829087803b15801562001d4b57600080fd5b505af115801562001d60573d6000803e3d6000fd5b505050506040513d602081101562001d7757600080fd5b50516040516001600160a01b039091169082907f488e676b8b729cd92586573f5b7b42787c118396c4a19f570e9c9e422e4dbf1890600090a3620012e16200086e565b62001dc4620037dc565b6004546040516001600160a01b038084169216907f16e2accad9173abff57b295b56993ec5d86b3cbf791fea02f02a6616463754ea90600090a3600480546001600160a01b0319166001600160a01b0392909216919091179055565b60095481565b62001e306200355e565b6001546001600160a01b0390811691161462001e965760408051600160e51b62461bcd02815260206004820152600c60248201527f756e617574686f72697a65640000000000000000000000000000000000000000604482015290519081900360640190fd5b600154600080546040516001600160a01b0393841693909116917f8be0079c531659141344cd1fd0a4f28419497f9722a3daafe3b4186f6b6457e091a3600154600080546001600160a01b0319166001600160a01b03909216919091179055565b6000546001600160a01b031690565b600a54600090610100900460ff161562001f595760408051600160e51b62461bcd02815260206004820152601260248201526000805160206200471d833981519152604482015290519081900360640190fd5b62001f636200086e565b62001fa75760408051600160e51b62461bcd02815260206004820152601360248201526000805160206200475e833981519152604482015290519081900360640190fd5b858414801562001fb657508382145b6200200b5760408051600160e51b62461bcd02815260206004820152601c60248201527f70726f706f7365537761703a20756e657175616c206c656e6774687300000000604482015290519081900360640190fd5b60088054600181019091556006546001600160a01b031663c6f120bc620020316200355e565b8a8a8a8a8a8a6040518863ffffffff1660e01b815260040180886001600160a01b03166001600160a01b0316815260200180602001806020018060200184810384528a8a82818152602001925060200280828437600083820152601f01601f19169091018581038452888152602090810191508990890280828437600083820152601f01601f19169091018581038352868152602090810191508790870280828437600081840152601f19601f8201169050808301925050509a5050505050505050505050602060405180830381600087803b1580156200211157600080fd5b505af115801562002126573d6000803e3d6000fd5b505050506040513d60208110156200213d57600080fd5b505160008281526007602052604080822080546001600160a01b0319166001600160a01b0394851617908190558151600160e01b6379ba509702815291519316926379ba50979260048084019391929182900301818387803b158015620021a357600080fd5b505af1158015620021b8573d6000803e3d6000fd5b50505050620021c66200355e565b6001600160a01b0316817fb1040e2fdc9b1fc50275ea4f0268b7aea14253a84269a880a272a77fc27c957c8a8a8a8a8a8a6040518080602001806020018060200184810384528a8a82818152602001925060200280828437600083820152601f01601f19169091018581038452888152602090810191508990890280828437600083820152601f01601f19169091018581038352868152602090810191508790870280828437600083820152604051601f909101601f19169092018290039b50909950505050505050505050a390506200229f6200086e565b620022a657fe5b9695505050505050565b6003546001600160a01b031681565b620022c9620037dc565b6002546040516001600160a01b038084169216907fd58299b712891143e76310d5e664c4203c940a67db37cf856bdaa3c5c76a802c90600090a3600280546001600160a01b0319166001600160a01b0392909216919091179055565b6005546001600160a01b031681565b6007602052600090815260409020546001600160a01b031681565b600a5460ff1681565b6002546001600160a01b03166200236e6200355e565b6001600160a01b031614620023c05760408051600160e51b62461bcd02815260206004820152600d6024820152600160981b6c6f70657261746f72206f6e6c7902604482015290519081900360640190fd5b600a546040518215159160ff161515907f76331eaf0929435122e80481aea28d5c30a0836554d6ef8b15d770fd0d4d5c9890600090a3600a805460ff1916911515919091179055565b600a54600090610100900460ff16156200245c5760408051600160e51b62461bcd02815260206004820152601260248201526000805160206200471d833981519152604482015290519081900360640190fd5b620024666200086e565b620024aa5760408051600160e51b62461bcd02815260206004820152601360248201526000805160206200475e833981519152604482015290519081900360640190fd5b838214620025025760408051600160e51b62461bcd02815260206004820152601f60248201527f70726f706f7365576569676874733a20756e657175616c206c656e6774687300604482015290519081900360640190fd5b83620025585760408051600160e51b62461bcd02815260206004820152601b60248201527f70726f706f7365576569676874733a207a65726f206c656e6774680000000000604482015290519081900360640190fd5b60088054600181019091556006546001600160a01b0316630894e5206200257e6200355e565b600089898989604051620025929062003e40565b6001600160a01b038616815260606020808301828152918301869052604083019060808401908890880280828437600083820152601f01601f191690910184810383528581526020908101915086908602808284376000838201819052604051601f909201601f19169093018190039a509850909650505050505050f08015801562002622573d6000803e3d6000fd5b506040518363ffffffff1660e01b815260040180836001600160a01b03166001600160a01b03168152602001826001600160a01b03166001600160a01b0316815260200192505050602060405180830381600087803b1580156200268557600080fd5b505af11580156200269a573d6000803e3d6000fd5b505050506040513d6020811015620026b157600080fd5b505160008281526007602052604080822080546001600160a01b0319166001600160a01b0394851617908190558151600160e01b6379ba509702815291519316926379ba50979260048084019391929182900301818387803b1580156200271757600080fd5b505af11580156200272c573d6000803e3d6000fd5b505050506200273a6200355e565b6001600160a01b0316817fc0d5f605ca054f36f4da2c6a9fc359f8ac4cddae7e9d18f37b47104604587d13888888886040518080602001806020018381038352878782818152602001925060200280828437600083820152601f01601f19169091018481038352858152602090810191508690860280828437600083820152604051601f909101601f19169092018290039850909650505050505050a39050620027e36200086e565b620027ea57fe5b949350505050565b600a54610100900460ff1681565b600a5460ff16156200285c5760408051600160e51b62461bcd02815260206004820152601260248201527f69737375616e6365206973207061757365640000000000000000000000000000604482015290519081900360640190fd5b600a54610100900460ff1615620028ac5760408051600160e51b62461bcd02815260206004820152601260248201526000805160206200471d833981519152604482015290519081900360640190fd5b620028b66200086e565b620028fa5760408051600160e51b62461bcd02815260206004820152601360248201526000805160206200475e833981519152604482015290519081900360640190fd5b60008111620029535760408051600160e51b62461bcd02815260206004820152601560248201527f63616e6e6f74206973737565207a65726f205253560000000000000000000000604482015290519081900360640190fd5b60035460408051600160e01b63949d225d02815290516000926001600160a01b03169163949d225d916004808301926020929190829003018186803b1580156200299c57600080fd5b505afa158015620029b1573d6000803e3d6000fd5b505050506040513d6020811015620029c857600080fd5b50511162002a205760408051600160e51b62461bcd02815260206004820152601660248201527f6261736b65742063616e6e6f7420626520656d70747900000000000000000000604482015290519081900360640190fd5b606062002a2d82620013af565b905060005b600360009054906101000a90046001600160a01b03166001600160a01b031663949d225d6040518163ffffffff1660e01b815260040160206040518083038186803b15801562002a8157600080fd5b505afa15801562002a96573d6000803e3d6000fd5b505050506040513d602081101562002aad57600080fd5b505181101562002b945762002b8b62002ac56200355e565b60045484516001600160a01b039091169085908590811062002ae357fe5b6020026020010151600360009054906101000a90046001600160a01b03166001600160a01b0316634f64b2be866040518263ffffffff1660e01b81526004018082815260200191505060206040518083038186803b15801562002b4557600080fd5b505afa15801562002b5a573d6000803e3d6000fd5b505050506040513d602081101562002b7157600080fd5b50516001600160a01b031692919063ffffffff620039e116565b60010162002a32565b506005546001600160a01b03166340c10f1962002bb06200355e565b846040518363ffffffff1660e01b815260040180836001600160a01b03166001600160a01b0316815260200182815260200192505050600060405180830381600087803b15801562002c0157600080fd5b505af115801562002c16573d6000803e3d6000fd5b505050508162002c256200355e565b6001600160a01b03167f9cb9c14f7bc76e3a89b796b091850526236115352a198b1e472f00e91376bbcb60405160405180910390a350620012e16200086e565b62002c6f620037dc565b6103e881111562002cca5760408051600160e51b62461bcd02815260206004820152601360248201527f6d617820736569676e696f726167652031302500000000000000000000000000604482015290519081900360640190fd5b600b54604080519182526020820183905280517f739fc76c925698caa5b5b65517fbbf8148d051b676bfac3769c10dc9f146a7519281900390910190a1600b55565b600a54610100900460ff161562002d5c5760408051600160e51b62461bcd02815260206004820152601260248201526000805160206200471d833981519152604482015290519081900360640190fd5b62002d666200086e565b62002daa5760408051600160e51b62461bcd02815260206004820152601360248201526000805160206200475e833981519152604482015290519081900360640190fd5b6000811162002e035760408051600160e51b62461bcd02815260206004820152601360248201527f63616e6e6f742072656465656d20302052535600000000000000000000000000604482015290519081900360640190fd5b60035460408051600160e01b63949d225d02815290516000926001600160a01b03169163949d225d916004808301926020929190829003018186803b15801562002e4c57600080fd5b505afa15801562002e61573d6000803e3d6000fd5b505050506040513d602081101562002e7857600080fd5b50511162002ed05760408051600160e51b62461bcd02815260206004820152601660248201527f6261736b65742063616e6e6f7420626520656d70747900000000000000000000604482015290519081900360640190fd5b6005546001600160a01b03166379cc679062002eeb6200355e565b836040518363ffffffff1660e01b815260040180836001600160a01b03166001600160a01b0316815260200182815260200192505050600060405180830381600087803b15801562002f3c57600080fd5b505af115801562002f51573d6000803e3d6000fd5b50505050606062002f628262001667565b905060005b600360009054906101000a90046001600160a01b03166001600160a01b031663949d225d6040518163ffffffff1660e01b815260040160206040518083038186803b15801562002fb657600080fd5b505afa15801562002fcb573d6000803e3d6000fd5b505050506040513d602081101562002fe257600080fd5b505181101562003125576004805460035460408051600160e11b6327b2595f028152938401859052516001600160a01b039283169363c4e2c1e69390921691634f64b2be916024808301926020929190829003018186803b1580156200304757600080fd5b505afa1580156200305c573d6000803e3d6000fd5b505050506040513d60208110156200307357600080fd5b505184518590859081106200308457fe5b6020026020010151620030966200355e565b6040518463ffffffff1660e01b815260040180846001600160a01b03166001600160a01b03168152602001838152602001826001600160a01b03166001600160a01b031681526020019350505050600060405180830381600087803b158015620030ff57600080fd5b505af115801562003114573d6000803e3d6000fd5b50506001909201915062002f679050565b5081620031316200355e565b6001600160a01b03167fe6c82503aaaa3db78b70f183901ae8668918f895b3982b2c851cf2ffe0c6c63960405160405180910390a350620012e16200086e565b600a54610100900460ff1615620031c15760408051600160e51b62461bcd02815260206004820152601260248201526000805160206200471d833981519152604482015290519081900360640190fd5b620031cb6200086e565b6200320f5760408051600160e51b62461bcd02815260206004820152601360248201526000805160206200475e833981519152604482015290519081900360640190fd5b6000818152600760209081526040808320548151600160e41b630a8e4fb902815291516001600160a01b039091169363a8e4fb9093600480850194919392918390030190829087803b1580156200326557600080fd5b505af11580156200327a573d6000803e3d6000fd5b505050506040513d60208110156200329157600080fd5b50516001600160a01b0316620032a66200355e565b6001600160a01b03161480620032df5750620032c162001ef7565b6001600160a01b0316620032d46200355e565b6001600160a01b0316145b806200330757506002546001600160a01b0316620032fc6200355e565b6001600160a01b0316145b6200335c5760408051600160e51b62461bcd02815260206004820152600d60248201527f63616e6e6f742063616e63656c00000000000000000000000000000000000000604482015290519081900360640190fd5b8060085411620033b65760408051600160e51b62461bcd02815260206004820152601660248201527f70726f706f73616c73206c656e677468203c3d20696400000000000000000000604482015290519081900360640190fd5b600081815260076020526040808220548151600160e41b630ea8a1af02815291516001600160a01b039091169263ea8a1af0926004808201939182900301818387803b1580156200340657600080fd5b505af11580156200341b573d6000803e3d6000fd5b50505050620034296200355e565b6001600160a01b03166007600083815260200190815260200160002060009054906101000a90046001600160a01b03166001600160a01b031663a8e4fb906040518163ffffffff1660e01b8152600401602060405180830381600087803b1580156200349457600080fd5b505af1158015620034a9573d6000803e3d6000fd5b505050506040513d6020811015620034c057600080fd5b50516040516001600160a01b039091169083907f3fde9f26258b83c66883b772bf01883817f4e42a165033c6799b06dddf45686b90600090a4620012e16200086e565b6200350d620037dc565b600954604080519182526020820183905280517fe238f342cc2d86b842f1511bd768de5dbea53639f6b5335c5d877543bc355c719281900390910190a1600955565b6006546001600160a01b031681565b3390565b6000826200357357506000620035c6565b828202828482816200358157fe5b0414620035c357604051600160e51b62461bcd0281526004018080602001828103825260218152602001806200473d6021913960400191505060405180910390fd5b90505b92915050565b83831115620036a657600062003672600560009054906101000a90046001600160a01b03166001600160a01b03166318160ddd6040518163ffffffff1660e01b815260040160206040518083038186803b1580156200362a57600080fd5b505afa1580156200363f573d6000803e3d6000fd5b505050506040513d60208110156200365657600080fd5b50516200366a868863ffffffff62003a4016565b6000620038f5565b905080156200369f576004546200369f906001600160a01b03858116918591168463ffffffff620039e116565b50620037d6565b83831015620037d65760006200374c600560009054906101000a90046001600160a01b03166001600160a01b03166318160ddd6040518163ffffffff1660e01b815260040160206040518083038186803b1580156200370457600080fd5b505afa15801562003719573d6000803e3d6000fd5b505050506040513d60208110156200373057600080fd5b505162003744878763ffffffff62003a4016565b6001620038f5565b90508015620037d4576004805460408051600160e11b63627160f30281526001600160a01b03878116948201949094526024810185905285841660448201529051929091169163c4e2c1e69160648082019260009290919082900301818387803b158015620037ba57600080fd5b505af1158015620037cf573d6000803e3d6000fd5b505050505b505b50505050565b6000546001600160a01b0316620037f26200355e565b6001600160a01b031614620038515760408051600160e51b62461bcd02815260206004820152601360248201527f63616c6c6572206973206e6f74206f776e657200000000000000000000000000604482015290519081900360640190fd5b565b600082820183811015620035c35760408051600160e51b62461bcd02815260206004820152601b60248201527f536166654d6174683a206164646974696f6e206f766572666c6f770000000000604482015290519081900360640190fd5b6000620035c383836040518060400160405280601a81526020017f536166654d6174683a206469766973696f6e206279207a65726f00000000000081525062003a84565b6000806200394b600560009054906101000a90046001600160a01b03166001600160a01b031663313ce5676040518163ffffffff1660e01b815260040160206040518083038186803b158015620008c457600080fd5b9050600062003961868663ffffffff6200356216565b905060018460018111156200397257fe5b14806200398e57506200398c818363ffffffff62003b2e16565b155b15620039b057620039a6818363ffffffff620038b116565b92505050620039da565b620039d56001620039c8838563ffffffff620038b116565b9063ffffffff6200385316565b925050505b9392505050565b604080516001600160a01b0385811660248301528416604482015260648082018490528251808303909101815260849091019091526020810180516001600160e01b0316600160e01b6323b872dd02179052620037d690859062003b72565b6000620035c383836040518060400160405280601e81526020017f536166654d6174683a207375627472616374696f6e206f766572666c6f77000081525062003d3f565b6000818362003b1757604051600160e51b62461bcd0281526004018080602001828103825283818151815260200191508051906020019080838360005b8381101562003adb57818101518382015260200162003ac1565b50505050905090810190601f16801562003b095780820380516001836020036101000a031916815260200191505b509250505060405180910390fd5b50600083858162003b2457fe5b0495945050505050565b6000620035c383836040518060400160405280601881526020017f536166654d6174683a206d6f64756c6f206279207a65726f000000000000000081525062003d9f565b62003b86826001600160a01b031662003e08565b62003bdb5760408051600160e51b62461bcd02815260206004820152601f60248201527f5361666545524332303a2063616c6c20746f206e6f6e2d636f6e747261637400604482015290519081900360640190fd5b60006060836001600160a01b0316836040518082805190602001908083835b6020831062003c1b5780518252601f19909201916020918201910162003bfa565b6001836020036101000a0380198251168184511680821785525050505050509050019150506000604051808303816000865af19150503d806000811462003c7f576040519150601f19603f3d011682016040523d82523d6000602084013e62003c84565b606091505b50915091508162003cdf5760408051600160e51b62461bcd02815260206004820181905260248201527f5361666545524332303a206c6f772d6c6576656c2063616c6c206661696c6564604482015290519081900360640190fd5b805115620037d65780806020019051602081101562003cfd57600080fd5b5051620037d657604051600160e51b62461bcd02815260040180806020018281038252602a8152602001806200477e602a913960400191505060405180910390fd5b6000818484111562003d9757604051600160e51b62461bcd02815260206004820181815283516024840152835190928392604490910191908501908083836000831562003adb57818101518382015260200162003ac1565b505050900390565b6000818362003df457604051600160e51b62461bcd02815260206004820181815283516024840152835190928392604490910191908501908083836000831562003adb57818101518382015260200162003ac1565b5082848162003dff57fe5b06949350505050565b6000813f7fc5d2460186f7233c927e7db2dcc703c0e500b653ca82273b7bfad8045d85a4708115801590620027ea5750141592915050565b6108998062003e4f8339019056fe608060405234801561001057600080fd5b506040516108993803806108998339810180604052606081101561003357600080fd5b81516020830180519193928301929164010000000081111561005457600080fd5b8201602081018481111561006757600080fd5b815185602082028301116401000000008211171561008457600080fd5b505092919060200180516401000000008111156100a057600080fd5b820160208101848111156100b357600080fd5b81518560208202830111640100000000821117156100d057600080fd5b5050929190505050805182511461014857604080517f08c379a000000000000000000000000000000000000000000000000000000000815260206004820152601d60248201527f4261736b65743a20756e657175616c206172726179206c656e67746873000000604482015290519081900360640190fd5b8151604051908082528060200260200182016040528015610173578160200160208202803883390190505b508051610188916000916020909101906105b5565b5060005b825181101561032b57600260008483815181106101a557fe5b6020908102919091018101516001600160a01b031682528101919091526040016000205460ff161561023857604080517f08c379a000000000000000000000000000000000000000000000000000000000815260206004820152601760248201527f6475706c696361746520746f6b656e20656e7472696573000000000000000000604482015290519081900360640190fd5b81818151811061024457fe5b60200260200101516001600085848151811061025c57fe5b60200260200101516001600160a01b03166001600160a01b031681526020019081526020016000208190555060016002600085848151811061029a57fe5b60200260200101516001600160a01b03166001600160a01b0316815260200190815260200160002060006101000a81548160ff0219169083151502179055508281815181106102e557fe5b6020026020010151600082815481106102fa57fe5b600091825260209091200180546001600160a01b0319166001600160a01b039290921691909117905560010161018c565b506001600160a01b0383161561053b5760005b836001600160a01b031663949d225d6040518163ffffffff1660e01b815260040160206040518083038186803b15801561037757600080fd5b505afa15801561038b573d6000803e3d6000fd5b505050506040513d60208110156103a157600080fd5b5051811015610539576000846001600160a01b0316634f64b2be836040518263ffffffff1660e01b81526004018082815260200191505060206040518083038186803b1580156103f057600080fd5b505afa158015610404573d6000803e3d6000fd5b505050506040513d602081101561041a57600080fd5b50516001600160a01b03811660009081526002602052604090205490915060ff1661053057846001600160a01b031663a7cac846826040518263ffffffff1660e01b815260040180826001600160a01b03166001600160a01b0316815260200191505060206040518083038186803b15801561049557600080fd5b505afa1580156104a9573d6000803e3d6000fd5b505050506040513d60208110156104bf57600080fd5b50516001600160a01b03821660008181526001602081815260408084209590955560029052928120805460ff1916841790558054928301815580527f290decd9548b62a8d60345a988386fc84ba6bc95484008f6362f93160ef3e56390910180546001600160a01b03191690911790555b5060010161033e565b505b600054600a10156105ad57604080517f08c379a000000000000000000000000000000000000000000000000000000000815260206004820152601260248201527f4261736b65743a20626164206c656e6774680000000000000000000000000000604482015290519081900360640190fd5b505050610641565b82805482825590600052602060002090810192821561060a579160200282015b8281111561060a57825182546001600160a01b0319166001600160a01b039091161782556020909201916001909101906105d5565b5061061692915061061a565b5090565b61063e91905b808211156106165780546001600160a01b0319168155600101610620565b90565b610249806106506000396000f3fe608060405234801561001057600080fd5b50600436106100575760003560e01c806321887c3d1461005c5780634f64b2be14610096578063949d225d146100cf578063a7cac846146100e9578063aa6ca8081461010f575b600080fd5b6100826004803603602081101561007257600080fd5b50356001600160a01b0316610167565b604080519115158252519081900360200190f35b6100b3600480360360208110156100ac57600080fd5b503561017c565b604080516001600160a01b039092168252519081900360200190f35b6100d76101a3565b60408051918252519081900360200190f35b6100d7600480360360208110156100ff57600080fd5b50356001600160a01b03166101a9565b6101176101bb565b60408051602080825283518183015283519192839290830191858101910280838360005b8381101561015357818101518382015260200161013b565b505050509050019250505060405180910390f35b60026020526000908152604090205460ff1681565b6000818154811061018957fe5b6000918252602090912001546001600160a01b0316905081565b60005490565b60016020526000908152604090205481565b6060600080548060200260200160405190810160405280929190818152602001828054801561021357602002820191906000526020600020905b81546001600160a01b031681526001909101906020018083116101f5575b505050505090509056fea165627a7a72305820059443131c81b029ae4befd56bfbe95c797ef801e8dcfb2b8d9a0040f92dbc85002949206865726562792072656e6f756e6365206f776e657273686970206f66207468697320636f6e747261637420666f72657665722e636f6e7472616374206973207061757365640000000000000000000000000000536166654d6174683a206d756c7469706c69636174696f6e206f766572666c6f77756e646572636f6c6c61746572616c697a6564000000000000000000000000005361666545524332303a204552433230206f7065726174696f6e20646964206e6f742073756363656564a165627a7a72305820616df0f02d7820c1fed2bd91f8b3f5cd3e2184d4154384b06417a3a3840ffc8d0029",
  "source": "pragma solidity 0.5.7;\n\nimport \"./zeppelin/token/ERC20/SafeERC20.sol\";\nimport \"./zeppelin/token/ERC20/IERC20.sol\";\nimport \"./zeppelin/math/SafeMath.sol\";\nimport \"./rsv/IRSV.sol\";\nimport \"./ownership/Ownable.sol\";\nimport \"./Basket.sol\";\nimport \"./Proposal.sol\";\n\n\ninterface IVault {\n    function withdrawTo(address, uint256, address) external;\n}\n\n/**\n * The Manager contract is the point of contact between the Reserve ecosystem and the\n * surrounding world. It manages the Issuance and Redemption of RSV, a decentralized stablecoin\n * backed by a basket of tokens.\n *\n * The Manager also implements a Proposal system to handle administration of changes to the\n * backing of RSV. Anyone can propose a change to the backing.  Once the `owner` approves the\n * proposal, then after a pre-determined delay the proposal is eligible for execution by\n * anyone. However, the funds to execute the proposal must come from the proposer.\n *\n * There are two different ways to propose changes to the backing of RSV:\n * - proposeSwap()\n * - proposeWeights()\n *\n * In both cases, tokens are exchanged with the Vault and a new RSV backing is set. You can\n * think of the first type of proposal as being useful when you don't want to rebalance the\n * Vault by exchanging absolute quantities of tokens; its downside is that you don't know\n * precisely what the resulting basket weights will be. The second type of proposal is more\n * useful when you want to fine-tune the Vault weights and accept the downside that it's\n * difficult to know what capital will be required when the proposal is executed.\n */\n\n/* On \"unit\" comments:\n *\n * The units in use around weight computations are fiddly, and it's pretty annoying to get them\n * properly into the Solidity type system. So, there are many comments of the form \"unit:\n * ...\". Where such a comment is describing a field, method, or return parameter, the comment means\n * that the data in that place is to be interpreted to have that type. Many places also have\n * comments with more complicated expressions; that's manually working out the dimensional analysis\n * to ensure that the given expression has correct units.\n *\n * Some dimensions used in this analysis:\n * - 1 RSV: 1 Reserve\n * - 1 qRSV: 1 quantum of Reserve.\n *      (RSV & qRSV are convertible by .mul(10**reserve.decimals() qRSV/RSV))\n * - 1 qToken: 1 quantum of an external Token.\n * - 1 aqToken: 1 atto-quantum of an external Token.\n *      (qToken and aqToken are convertible by .mul(10**18 aqToken/qToken)\n * - 1 BPS: 1 Basis Point. Effectively dimensionless; convertible with .mul(10000 BPS).\n *\n * Note that we _never_ reason in units of Tokens or attoTokens.\n */\ncontract Manager is Ownable {\n    using SafeERC20 for IERC20;\n    using SafeMath for uint256;\n\n    // ROLES\n\n    // Manager is already Ownable, but in addition it also has an `operator`.\n    address public operator;\n\n    // DATA\n\n    Basket public trustedBasket;\n    IVault public trustedVault;\n    IRSV public trustedRSV;\n    IProposalFactory public trustedProposalFactory;\n\n    // Proposals\n    mapping(uint256 => IProposal) public trustedProposals;\n    uint256 public proposalsLength;\n    uint256 public delay = 24 hours;\n\n    // Controls\n    bool public issuancePaused;\n    bool public emergency;\n\n    // The spread between issuance and redemption in basis points (BPS).\n    uint256 public seigniorage;              // 0.1% spread -> 10 BPS. unit: BPS\n    uint256 constant BPS_FACTOR = 10000;     // This is what 100% looks like in BPS. unit: BPS\n    uint256 constant WEIGHT_SCALE = 10**18; // unit: aqToken/qToken\n\n    event ProposalsCleared();\n\n    // RSV traded events\n    event Issuance(address indexed user, uint256 indexed amount);\n    event Redemption(address indexed user, uint256 indexed amount);\n\n    // Pause events\n    event IssuancePausedChanged(bool indexed oldVal, bool indexed newVal);\n    event EmergencyChanged(bool indexed oldVal, bool indexed newVal);\n    event OperatorChanged(address indexed oldAccount, address indexed newAccount);\n    event SeigniorageChanged(uint256 oldVal, uint256 newVal);\n    event VaultChanged(address indexed oldVaultAddr, address indexed newVaultAddr);\n    event DelayChanged(uint256 oldVal, uint256 newVal);\n\n    // Proposals\n    event WeightsProposed(uint256 indexed id,\n        address indexed proposer,\n        address[] tokens,\n        uint256[] weights);\n\n    event SwapProposed(uint256 indexed id,\n        address indexed proposer,\n        address[] tokens,\n        uint256[] amounts,\n        bool[] toVault);\n\n    event ProposalAccepted(uint256 indexed id, address indexed proposer);\n    event ProposalCanceled(uint256 indexed id, address indexed proposer, address indexed canceler);\n    event ProposalExecuted(uint256 indexed id,\n        address indexed proposer,\n        address indexed executor,\n        address oldBasket,\n        address newBasket);\n\n    // ============================ Constructor ===============================\n\n    /// Begins in `emergency` state.\n    constructor(\n        address vaultAddr,\n        address rsvAddr,\n        address proposalFactoryAddr,\n        address basketAddr,\n        address operatorAddr,\n        uint256 _seigniorage) public\n    {\n        require(_seigniorage <= 1000, \"max seigniorage 10%\");\n        trustedVault = IVault(vaultAddr);\n        trustedRSV = IRSV(rsvAddr);\n        trustedProposalFactory = IProposalFactory(proposalFactoryAddr);\n        trustedBasket = Basket(basketAddr);\n        operator = operatorAddr;\n        seigniorage = _seigniorage;\n        emergency = true; // it's not an emergency, but we want everything to start paused.\n    }\n\n    // ============================= Modifiers ================================\n\n    /// Modifies a function to run only when issuance is not paused.\n    modifier issuanceNotPaused() {\n        require(!issuancePaused, \"issuance is paused\");\n        _;\n    }\n\n    /// Modifies a function to run only when there is not some emergency that requires upgrades.\n    modifier notEmergency() {\n        require(!emergency, \"contract is paused\");\n        _;\n    }\n\n    /// Modifies a function to run only when the caller is the operator account.\n    modifier onlyOperator() {\n        require(_msgSender() == operator, \"operator only\");\n        _;\n    }\n\n    /// Modifies a function to run and complete only if the vault is collateralized.\n    modifier vaultCollateralized() {\n        require(isFullyCollateralized(), \"undercollateralized\");\n        _;\n        assert(isFullyCollateralized());\n    }\n\n    // ========================= Public + External ============================\n\n    /// Set if issuance should be paused.\n    function setIssuancePaused(bool val) external onlyOperator {\n        emit IssuancePausedChanged(issuancePaused, val);\n        issuancePaused = val;\n    }\n\n    /// Set if all contract actions should be paused.\n    function setEmergency(bool val) external onlyOperator {\n        emit EmergencyChanged(emergency, val);\n        emergency = val;\n    }\n\n    /// Set the vault.\n    function setVault(address newVaultAddress) external onlyOwner {\n        emit VaultChanged(address(trustedVault), newVaultAddress);\n        trustedVault = IVault(newVaultAddress);\n    }\n\n    /// Clear the list of proposals.\n    function clearProposals() external onlyOperator {\n        proposalsLength = 0;\n        emit ProposalsCleared();\n    }\n\n    /// Set the operator.\n    function setOperator(address _operator) external onlyOwner {\n        emit OperatorChanged(operator, _operator);\n        operator = _operator;\n    }\n\n    /// Set the seigniorage, in BPS.\n    function setSeigniorage(uint256 _seigniorage) external onlyOwner {\n        require(_seigniorage <= 1000, \"max seigniorage 10%\");\n        emit SeigniorageChanged(seigniorage, _seigniorage);\n        seigniorage = _seigniorage;\n    }\n\n    /// Set the Proposal delay in hours.\n    function setDelay(uint256 _delay) external onlyOwner {\n        emit DelayChanged(delay, _delay);\n        delay = _delay;\n    }\n\n    /// Ensure that the Vault is fully collateralized.  That this is true should be an\n    /// invariant of this contract: it's true before and after every txn.\n    function isFullyCollateralized() public view returns(bool) {\n        uint256 scaleFactor = WEIGHT_SCALE.mul(uint256(10) ** trustedRSV.decimals());\n        // scaleFactor unit: aqToken/qToken * qRSV/RSV\n\n        for (uint256 i = 0; i < trustedBasket.size(); i++) {\n\n            address trustedToken = trustedBasket.tokens(i);\n            uint256 weight = trustedBasket.weights(trustedToken); // unit: aqToken/RSV\n            uint256 balance = IERC20(trustedToken).balanceOf(address(trustedVault)); //unit: qToken\n\n            // Return false if this token is undercollateralized:\n            if (trustedRSV.totalSupply().mul(weight) > balance.mul(scaleFactor)) {\n                // checking units: [qRSV] * [aqToken/RSV] == [qToken] * [aqToken/qToken * qRSV/RSV]\n                return false;\n            }\n        }\n        return true;\n    }\n\n    /// Get amounts of basket tokens required to issue an amount of RSV.\n    /// The returned array will be in the same order as the current basket.tokens.\n    /// return unit: qToken[]\n    function toIssue(uint256 rsvAmount) public view returns (uint256[] memory) {\n        // rsvAmount unit: qRSV.\n        uint256[] memory amounts = new uint256[](trustedBasket.size());\n\n        uint256 feeRate = uint256(seigniorage.add(BPS_FACTOR));\n        // feeRate unit: BPS\n        uint256 effectiveAmount = rsvAmount.mul(feeRate).div(BPS_FACTOR);\n        // effectiveAmount unit: qRSV == qRSV*BPS/BPS\n\n        // On issuance, amounts[i] of token i will enter the vault. To maintain full backing,\n        // we have to round _up_ each amounts[i].\n        for (uint256 i = 0; i < trustedBasket.size(); i++) {\n            address trustedToken = trustedBasket.tokens(i);\n            amounts[i] = _weighted(\n                effectiveAmount,\n                trustedBasket.weights(trustedToken),\n                RoundingMode.UP\n            );\n            // unit: qToken = _weighted(qRSV, aqToken/RSV, _)\n        }\n\n        return amounts; // unit: qToken[]\n    }\n\n    /// Get amounts of basket tokens that would be sent upon redeeming an amount of RSV.\n    /// The returned array will be in the same order as the current basket.tokens.\n    /// return unit: qToken[]\n    function toRedeem(uint256 rsvAmount) public view returns (uint256[] memory) {\n        // rsvAmount unit: qRSV\n        uint256[] memory amounts = new uint256[](trustedBasket.size());\n\n        // On redemption, amounts[i] of token i will leave the vault. To maintain full backing,\n        // we have to round _down_ each amounts[i].\n        for (uint256 i = 0; i < trustedBasket.size(); i++) {\n            address trustedToken = trustedBasket.tokens(i);\n            amounts[i] = _weighted(\n                rsvAmount,\n                trustedBasket.weights(trustedToken),\n                RoundingMode.DOWN\n            );\n            // unit: qToken = _weighted(qRSV, aqToken/RSV, _)\n        }\n\n        return amounts;\n    }\n\n    /// Handles issuance.\n    /// rsvAmount unit: qRSV\n    function issue(uint256 rsvAmount) external\n        issuanceNotPaused\n        notEmergency\n        vaultCollateralized\n    {\n        require(rsvAmount > 0, \"cannot issue zero RSV\");\n        require(trustedBasket.size() > 0, \"basket cannot be empty\");\n\n        // Accept collateral tokens.\n        uint256[] memory amounts = toIssue(rsvAmount); // unit: qToken[]\n        for (uint256 i = 0; i < trustedBasket.size(); i++) {\n            IERC20(trustedBasket.tokens(i)).safeTransferFrom(\n                _msgSender(),\n                address(trustedVault),\n                amounts[i]\n            );\n            // unit check for amounts[i]: qToken.\n        }\n\n        // Compensate with RSV.\n        trustedRSV.mint(_msgSender(), rsvAmount);\n        // unit check for rsvAmount: qRSV.\n\n        emit Issuance(_msgSender(), rsvAmount);\n    }\n\n    /// Handles redemption.\n    /// rsvAmount unit: qRSV\n    function redeem(uint256 rsvAmount) external notEmergency vaultCollateralized {\n        require(rsvAmount > 0, \"cannot redeem 0 RSV\");\n        require(trustedBasket.size() > 0, \"basket cannot be empty\");\n\n        // Burn RSV tokens.\n        trustedRSV.burnFrom(_msgSender(), rsvAmount);\n        // unit check: rsvAmount is qRSV.\n\n        // Compensate with collateral tokens.\n        uint256[] memory amounts = toRedeem(rsvAmount); // unit: qToken[]\n        for (uint256 i = 0; i < trustedBasket.size(); i++) {\n            trustedVault.withdrawTo(trustedBasket.tokens(i), amounts[i], _msgSender());\n            // unit check for amounts[i]: qToken.\n        }\n\n        emit Redemption(_msgSender(), rsvAmount);\n    }\n\n    /**\n     * Propose an exchange of current Vault tokens for new Vault tokens.\n     *\n     * These parameters are phyiscally a set of arrays because Solidity doesn't let you pass\n     * around arrays of structs as parameters of transactions. Semantically, read these three\n     * lists as a list of triples (token, amount, toVault), where:\n     *\n     * - token is the address of an ERC-20 token,\n     * - amount is the amount of the token that the proposer says they will trade with the vault,\n     * - toVault is the direction of that trade. If toVault is true, the proposer offers to send\n     *   `amount` of `token` to the vault. If toVault is false, the proposer expects to receive\n     *   `amount` of `token` from the vault.\n     *\n     * If and when this proposal is accepted and executed, then:\n     *\n     * 1. The Manager checks that the proposer has allowed adequate funds, for the proposed\n     *    transfers from the proposer to the vault.\n     * 2. The proposed set of token transfers occur between the Vault and the proposer.\n     * 3. The Vault's basket weights are raised and lowered, based on these token transfers and the\n     *    total supply of RSV **at the time when the proposal is executed**.\n     *\n     * Note that the set of token transfers will almost always be at very slightly lower volumes\n     * than requested, due to the rounding error involved in (a) adjusting the weights at execution\n     * time and (b) keeping the Vault fully collateralized. The contracts should never attempt to\n     * trade at higher volumes than requested.\n     *\n     * The intended behavior of proposers is that they will make proposals that shift the Vault\n     * composition towards some known target of Reserve's management while maintaining full\n     * backing; the expected behavior of Reserve's management is to accept only such proposals,\n     * excepting during dire emergencies.\n     *\n     * Note: This type of proposal does not reliably remove token addresses!\n     * If you want to remove token addresses entirely, use proposeWeights.\n     *\n     * Returns the new proposal's ID.\n     */\n    function proposeSwap(\n        address[] calldata tokens,\n        uint256[] calldata amounts, // unit: qToken\n        bool[] calldata toVault\n    )\n    external notEmergency vaultCollateralized returns(uint256)\n    {\n        require(tokens.length == amounts.length && amounts.length == toVault.length,\n            \"proposeSwap: unequal lengths\");\n        uint256 proposalID = proposalsLength++;\n\n        trustedProposals[proposalID] = trustedProposalFactory.createSwapProposal(\n            _msgSender(),\n            tokens,\n            amounts,\n            toVault\n        );\n        trustedProposals[proposalID].acceptOwnership();\n\n        emit SwapProposed(proposalID, _msgSender(), tokens, amounts, toVault);\n        return proposalID;\n    }\n\n\n    /**\n     * Propose a new basket, defined by a list of tokens address, and their basket weights.\n     *\n     * Note: With this type of proposal, the allowances of tokens that will be required of the\n     * proposer may change between proposition and execution. If the supply of RSV rises or falls,\n     * then more or fewer tokens will be required to execute the proposal.\n     *\n     * Returns the new proposal's ID.\n     */\n\n    function proposeWeights(address[] calldata tokens, uint256[] calldata weights)\n    external notEmergency vaultCollateralized returns(uint256)\n    {\n        require(tokens.length == weights.length, \"proposeWeights: unequal lengths\");\n        require(tokens.length > 0, \"proposeWeights: zero length\");\n\n        uint256 proposalID = proposalsLength++;\n\n        trustedProposals[proposalID] = trustedProposalFactory.createWeightProposal(\n            _msgSender(),\n            new Basket(Basket(0), tokens, weights)\n        );\n        trustedProposals[proposalID].acceptOwnership();\n\n        emit WeightsProposed(proposalID, _msgSender(), tokens, weights);\n        return proposalID;\n    }\n\n    /// Accepts a proposal for a new basket, beginning the required delay.\n    function acceptProposal(uint256 id) external onlyOperator notEmergency vaultCollateralized {\n        require(proposalsLength > id, \"proposals length <= id\");\n        trustedProposals[id].accept(now.add(delay));\n        emit ProposalAccepted(id, trustedProposals[id].proposer());\n    }\n\n    /// Cancels a proposal. This can be done anytime before it is enacted by any of:\n    /// 1. Proposer 2. Operator 3. Owner\n    function cancelProposal(uint256 id) external notEmergency vaultCollateralized {\n        require(\n            _msgSender() == trustedProposals[id].proposer() ||\n            _msgSender() == owner() ||\n            _msgSender() == operator,\n            \"cannot cancel\"\n        );\n        require(proposalsLength > id, \"proposals length <= id\");\n        trustedProposals[id].cancel();\n        emit ProposalCanceled(id, trustedProposals[id].proposer(), _msgSender());\n    }\n\n    /// Executes a proposal by exchanging collateral tokens with the proposer.\n    function executeProposal(uint256 id) external onlyOperator notEmergency vaultCollateralized {\n        require(proposalsLength > id, \"proposals length <= id\");\n        address proposer = trustedProposals[id].proposer();\n        Basket trustedOldBasket = trustedBasket;\n\n        // Complete proposal and compute new basket\n        trustedBasket = trustedProposals[id].complete(trustedRSV, trustedOldBasket);\n\n        // For each token in either basket, perform transfers between proposer and Vault\n        for (uint256 i = 0; i < trustedOldBasket.size(); i++) {\n            address trustedToken = trustedOldBasket.tokens(i);\n            _executeBasketShift(\n                trustedOldBasket.weights(trustedToken),\n                trustedBasket.weights(trustedToken),\n                trustedToken,\n                proposer\n            );\n        }\n        for (uint256 i = 0; i < trustedBasket.size(); i++) {\n            address trustedToken = trustedBasket.tokens(i);\n            if (!trustedOldBasket.has(trustedToken)) {\n                _executeBasketShift(\n                    trustedOldBasket.weights(trustedToken),\n                    trustedBasket.weights(trustedToken),\n                    trustedToken,\n                    proposer\n                );\n            }\n        }\n\n        emit ProposalExecuted(\n            id,\n            proposer,\n            _msgSender(),\n            address(trustedOldBasket),\n            address(trustedBasket)\n        );\n    }\n\n\n    // ============================= Internal ================================\n\n    /// _executeBasketShift transfers the necessary amount of `token` between vault and `proposer`\n    /// to rebalance the vault's balance of token, as it goes from oldBasket to newBasket.\n    /// @dev To carry out a proposal, this is executed once per relevant token.\n    function _executeBasketShift(\n        uint256 oldWeight, // unit: aqTokens/RSV\n        uint256 newWeight, // unit: aqTokens/RSV\n        address trustedToken,\n        address proposer\n    ) internal {\n        if (newWeight > oldWeight) {\n            // This token must increase in the vault, so transfer from proposer to vault.\n            // (Transfer into vault: round up)\n            uint256 transferAmount =_weighted(\n                trustedRSV.totalSupply(),\n                newWeight.sub(oldWeight),\n                RoundingMode.UP\n            );\n            // transferAmount unit: qTokens\n\n            if (transferAmount > 0) {\n                IERC20(trustedToken).safeTransferFrom(\n                    proposer,\n                    address(trustedVault),\n                    transferAmount\n                );\n            }\n\n        } else if (newWeight < oldWeight) {\n            // This token will decrease in the vault, so transfer from vault to proposer.\n            // (Transfer out of vault: round down)\n            uint256 transferAmount =_weighted(\n                trustedRSV.totalSupply(),\n                oldWeight.sub(newWeight),\n                RoundingMode.DOWN\n            );\n            // transferAmount unit: qTokens\n            if (transferAmount > 0) {\n                trustedVault.withdrawTo(trustedToken, transferAmount, proposer);\n            }\n        }\n    }\n\n    // When you perform a weighting of some amount of RSV, it will involve a division, and\n    // precision will be lost. When it rounds, do you want to round UP or DOWN? Be maximally\n    // conservative.\n    enum RoundingMode {UP, DOWN}\n\n    /// From a weighting of RSV (e.g., a basket weight) and an amount of RSV,\n    /// compute the amount of the weighted token that matches that amount of RSV.\n    function _weighted(\n        uint256 amount, // unit: qRSV\n        uint256 weight, // unit: aqToken/RSV\n        RoundingMode rnd\n    ) internal view returns(uint256) // return unit: qTokens\n    {\n        uint256 scaleFactor = WEIGHT_SCALE.mul(uint256(10)**(trustedRSV.decimals()));\n        // scaleFactor unit: aqTokens/qTokens * qRSV/RSV\n        uint256 shiftedWeight = amount.mul(weight);\n        // shiftedWeight unit: qRSV/RSV * aqTokens\n\n        // If the weighting is precise, or we're rounding down, then use normal division.\n        if (rnd == RoundingMode.DOWN || shiftedWeight.mod(scaleFactor) == 0) {\n            return shiftedWeight.div(scaleFactor);\n            // return unit: qTokens == qRSV/RSV * aqTokens * (qTokens/aqTokens * RSV/qRSV)\n        }\n        return shiftedWeight.div(scaleFactor).add(1); // return unit: qTokens\n    }\n}\n",
  "sourcePath": "/Users/taylorbrent/reserve/simple-portal/contracts/Manager.sol",
  "compiler": {
    "name": "solc",
    "version": "0.5.7+commit.6da8b019.Emscripten.clang"
  },
  "schemaVersion": "3.0.17",
  "updatedAt": "2020-01-03T19:43:25.500Z",
  "networkType": "ethereum",
  "devdoc": {
    "methods": {
      "acceptOwnership()": {
        "details": "Accepts ownership of the contract."
      },
      "nominateNewOwner(address)": {
        "details": "Nominates a new owner `newOwner`. Requires a follow-up `acceptOwnership`. Can only be called by the current owner."
      },
      "nominatedOwner()": {
        "details": "Returns the address of the current nominated owner."
      },
      "owner()": {
        "details": "Returns the address of the current owner."
      }
    }
  },
  "userdoc": {
    "methods": {
      "acceptProposal(uint256)": {
        "notice": "Accepts a proposal for a new basket, beginning the required delay."
      },
      "cancelProposal(uint256)": {
        "notice": "Cancels a proposal. This can be done anytime before it is enacted by any of: 1. Proposer 2. Operator 3. Owner"
      },
      "clearProposals()": {
        "notice": "Clear the list of proposals."
      },
      "constructor": "Begins in `emergency` state.",
      "executeProposal(uint256)": {
        "notice": "Executes a proposal by exchanging collateral tokens with the proposer."
      },
      "isFullyCollateralized()": {
        "notice": "Ensure that the Vault is fully collateralized.  That this is true should be an invariant of this contract: it's true before and after every txn."
      },
      "issue(uint256)": {
        "notice": "Handles issuance. rsvAmount unit: qRSV"
      },
      "proposeSwap(address[],uint256[],bool[])": {
        "notice": "Propose an exchange of current Vault tokens for new Vault tokens.     * These parameters are phyiscally a set of arrays because Solidity doesn't let you pass around arrays of structs as parameters of transactions. Semantically, read these three lists as a list of triples (token, amount, toVault), where:     * - token is the address of an ERC-20 token, - amount is the amount of the token that the proposer says they will trade with the vault, - toVault is the direction of that trade. If toVault is true, the proposer offers to send  `amount` of `token` to the vault. If toVault is false, the proposer expects to receive  `amount` of `token` from the vault.     * If and when this proposal is accepted and executed, then:     * 1. The Manager checks that the proposer has allowed adequate funds, for the proposed   transfers from the proposer to the vault. 2. The proposed set of token transfers occur between the Vault and the proposer. 3. The Vault's basket weights are raised and lowered, based on these token transfers and the   total supply of RSV **at the time when the proposal is executed**.     * Note that the set of token transfers will almost always be at very slightly lower volumes than requested, due to the rounding error involved in (a) adjusting the weights at execution time and (b) keeping the Vault fully collateralized. The contracts should never attempt to trade at higher volumes than requested.     * The intended behavior of proposers is that they will make proposals that shift the Vault composition towards some known target of Reserve's management while maintaining full backing; the expected behavior of Reserve's management is to accept only such proposals, excepting during dire emergencies.     * Note: This type of proposal does not reliably remove token addresses! If you want to remove token addresses entirely, use proposeWeights.     * Returns the new proposal's ID."
      },
      "proposeWeights(address[],uint256[])": {
        "notice": "Propose a new basket, defined by a list of tokens address, and their basket weights.     * Note: With this type of proposal, the allowances of tokens that will be required of the proposer may change between proposition and execution. If the supply of RSV rises or falls, then more or fewer tokens will be required to execute the proposal.     * Returns the new proposal's ID."
      },
      "redeem(uint256)": {
        "notice": "Handles redemption. rsvAmount unit: qRSV"
      },
      "renounceOwnership(string)": {
        "notice": "Set `_owner` to the 0 address. Only do this to deliberately lock in the current permissions.     * THIS CANNOT BE UNDONE! Call this only if you know what you're doing and why you're doing it!"
      },
      "setDelay(uint256)": {
        "notice": "Set the Proposal delay in hours."
      },
      "setEmergency(bool)": {
        "notice": "Set if all contract actions should be paused."
      },
      "setIssuancePaused(bool)": {
        "notice": "Set if issuance should be paused."
      },
      "setOperator(address)": {
        "notice": "Set the operator."
      },
      "setSeigniorage(uint256)": {
        "notice": "Set the seigniorage, in BPS."
      },
      "setVault(address)": {
        "notice": "Set the vault."
      },
      "toIssue(uint256)": {
        "notice": "Get amounts of basket tokens required to issue an amount of RSV. The returned array will be in the same order as the current basket.tokens. return unit: qToken[]"
      },
      "toRedeem(uint256)": {
        "notice": "Get amounts of basket tokens that would be sent upon redeeming an amount of RSV. The returned array will be in the same order as the current basket.tokens. return unit: qToken[]"
      }
    },
    "notice": "The Manager contract is the point of contact between the Reserve ecosystem and the surrounding world. It manages the Issuance and Redemption of RSV, a decentralized stablecoin backed by a basket of tokens. * The Manager also implements a Proposal system to handle administration of changes to the backing of RSV. Anyone can propose a change to the backing.  Once the `owner` approves the proposal, then after a pre-determined delay the proposal is eligible for execution by anyone. However, the funds to execute the proposal must come from the proposer. * There are two different ways to propose changes to the backing of RSV: - proposeSwap() - proposeWeights() * In both cases, tokens are exchanged with the Vault and a new RSV backing is set. You can think of the first type of proposal as being useful when you don't want to rebalance the Vault by exchanging absolute quantities of tokens; its downside is that you don't know precisely what the resulting basket weights will be. The second type of proposal is more useful when you want to fine-tune the Vault weights and accept the downside that it's difficult to know what capital will be required when the proposal is executed."
  }
}