{
  "contractName": "ProposalFactory",
  "abi": [
    {
      "constant": false,
      "inputs": [
        {
          "name": "proposer",
          "type": "address"
        },
        {
          "name": "tokens",
          "type": "address[]"
        },
        {
          "name": "amounts",
          "type": "uint256[]"
        },
        {
          "name": "toVault",
          "type": "bool[]"
        }
      ],
      "name": "createSwapProposal",
      "outputs": [
        {
          "name": "",
          "type": "address"
        }
      ],
      "payable": false,
      "stateMutability": "nonpayable",
      "type": "function"
    },
    {
      "constant": false,
      "inputs": [
        {
          "name": "proposer",
          "type": "address"
        },
        {
          "name": "basket",
          "type": "address"
        }
      ],
      "name": "createWeightProposal",
      "outputs": [
        {
          "name": "",
          "type": "address"
        }
      ],
      "payable": false,
      "stateMutability": "nonpayable",
      "type": "function"
    }
  ],
  "bytecode": "0x608060405234801561001057600080fd5b50612d06806100206000396000f3fe608060405234801561001057600080fd5b50600436106100365760003560e01c80630894e5201461003b578063c6f120bc14610085575b600080fd5b6100696004803603604081101561005157600080fd5b506001600160a01b03813581169160200135166101a9565b604080516001600160a01b039092168252519081900360200190f35b6100696004803603608081101561009b57600080fd5b6001600160a01b0382351691908101906040810160208201356401000000008111156100c657600080fd5b8201836020820111156100d857600080fd5b803590602001918460208302840111640100000000831117156100fa57600080fd5b91939092909160208101903564010000000081111561011857600080fd5b82018360208201111561012a57600080fd5b8035906020019184602083028401116401000000008311171561014c57600080fd5b91939092909160208101903564010000000081111561016a57600080fd5b82018360208201111561017c57600080fd5b8035906020019184602083028401116401000000008311171561019e57600080fd5b50909250905061025c565b60008083836040516101ba906103a4565b6001600160a01b03928316815291166020820152604080519182900301906000f0801580156101ed573d6000803e3d6000fd5b5060408051600160e21b630589d50302815233600482015290519192506001600160a01b03831691631627540c9160248082019260009290919082900301818387803b15801561023c57600080fd5b505af1158015610250573d6000803e3d6000fd5b50929695505050505050565b60008088888888888888604051610272906103b1565b6001600160a01b0388168152608060208083018281529183018890526040830190606084019060a08501908b908b0280828437600083820152601f01601f19169091018581038452888152602090810191508990890280828437600083820152601f01601f191690910185810383528681526020908101915087908702808284376000838201819052604051601f909201601f19169093018190039d509b50909950505050505050505050f080158015610330573d6000803e3d6000fd5b5060408051600160e21b630589d50302815233600482015290519192506001600160a01b03831691631627540c9160248082019260009290919082900301818387803b15801561037f57600080fd5b505af1158015610393573d6000803e3d6000fd5b50929b9a5050505050505050505050565b610aea806103bf83390190565b611e3280610ea98339019056fe608060405234801561001057600080fd5b50604051604080610aea8339810180604052604081101561003057600080fd5b5080516020918201519091829060009061004d906101e8811b901c565b600080546001600160a01b0319166001600160a01b0383169081178255604051929350917f8be0079c531659141344cd1fd0a4f28419497f9722a3daafe3b4186f6b6457e0908290a350600380546001600160a01b0319166001600160a01b0383811691909117600160a01b60ff021981169092556040519116907f488fccde177d9377f35d8d9a4f0b3462fcc7cdb926a00d3d99630ef1d672a2cd90600090a2506000816001600160a01b031663949d225d6040518163ffffffff1660e01b815260040160206040518083038186803b15801561012a57600080fd5b505afa15801561013e573d6000803e3d6000fd5b505050506040513d602081101561015457600080fd5b5051116101c257604080517f08c379a000000000000000000000000000000000000000000000000000000000815260206004820152601860248201527f70726f706f73616c2063616e6e6f7420626520656d7074790000000000000000604482015290519081900360640190fd5b600480546001600160a01b0319166001600160a01b0392909216919091179055506101ec565b3390565b6108ef806101fb6000396000f3fe608060405234801561001057600080fd5b50600436106100b45760003560e01c80638da5cb5b116100715780638da5cb5b146101b4578063a5ea7fdd146101bc578063a8e4fb90146101c4578063c19d93fb146101cc578063e5892f64146101f8578063ea8a1af014610226576100b4565b80631627540c146100b957806316ada547146100e157806319b05f49146100fb5780634fdb7f441461011857806353a47bb71461018857806379ba5097146101ac575b600080fd5b6100df600480360360208110156100cf57600080fd5b50356001600160a01b031661022e565b005b6100e96102ef565b60408051918252519081900360200190f35b6100df6004803603602081101561011157600080fd5b50356102f5565b6100df6004803603602081101561012e57600080fd5b81019060208101813564010000000081111561014957600080fd5b82018360208201111561015b57600080fd5b8035906020019184600183028401116401000000008311171561017d57600080fd5b5090925090506103c1565b610190610526565b604080516001600160a01b039092168252519081900360200190f35b6100df610535565b610190610603565b610190610612565b610190610621565b6101d4610630565b604051808260038111156101e457fe5b60ff16815260200191505060405180910390f35b6101906004803603604081101561020e57600080fd5b506001600160a01b0381358116916020013516610640565b6100df61078a565b610236610805565b6001600160a01b0381166102945760408051600160e51b62461bcd02815260206004820152601660248201527f6e6577206f776e65722069732030206164647265737300000000000000000000604482015290519081900360640190fd5b600080546040516001600160a01b03808516939216917fb59bab42c554cfd49f4f001c983b6ed93ede25748b10114b7d1cb1b3c97df7af91a3600180546001600160a01b0319166001600160a01b0392909216919091179055565b60025481565b6102fd610805565b600060038054600160a01b900460ff169081111561031757fe5b1461036c5760408051600160e51b62461bcd02815260206004820152601460248201527f70726f706f73616c206e6f742063726561746564000000000000000000000000604482015290519081900360640190fd5b600281905560038054600160a01b60ff021916600160a01b179081905560405182916001600160a01b0316907f0447e15907813bfb966eab36935a68eeb6360426cc5d554898d37c9cb475cca690600090a350565b6103c9610805565b606060405180606001604052806035815260200161088f603591399050806040516020018082805190602001908083835b602083106104195780518252601f1990920191602091820191016103fa565b6001836020036101000a03801982511681845116808217855250505050505090500191505060405160208183030381529060405280519060200120838360405160200180838380828437808301925050509250505060405160208183030381529060405280519060200120146104d95760408051600160e51b62461bcd02815260206004820152601560248201527f6465636c61726174696f6e20696e636f72726563740000000000000000000000604482015290519081900360640190fd5b600080546040516001600160a01b03909116907f8be0079c531659141344cd1fd0a4f28419497f9722a3daafe3b4186f6b6457e0908390a35050600080546001600160a01b031916905550565b6001546001600160a01b031690565b61053d610879565b6001546001600160a01b039081169116146105a25760408051600160e51b62461bcd02815260206004820152600c60248201527f756e617574686f72697a65640000000000000000000000000000000000000000604482015290519081900360640190fd5b600154600080546040516001600160a01b0393841693909116917f8be0079c531659141344cd1fd0a4f28419497f9722a3daafe3b4186f6b6457e091a3600154600080546001600160a01b0319166001600160a01b03909216919091179055565b6000546001600160a01b031690565b6004546001600160a01b031681565b6003546001600160a01b031681565b600354600160a01b900460ff1681565b600061064a610805565b600160038054600160a01b900460ff169081111561066457fe5b146106b95760408051600160e51b62461bcd02815260206004820152601960248201527f70726f706f73616c206d75737420626520616363657074656400000000000000604482015290519081900360640190fd5b60025442116107125760408051600160e51b62461bcd02815260206004820152600f60248201527f7761697420746f20657865637574650000000000000000000000000000000000604482015290519081900360640190fd5b60038054600160a01b60ff021916740300000000000000000000000000000000000000001790556000610745848461087d565b6003546040519192506001600160a01b03808416929116907f8e5e44707220324282c02b68f904d080b620c1d4317a000ab94a09bcb32a209590600090a39392505050565b610792610805565b6003808054600160a01b900460ff16908111156107ab57fe5b14156107b657600080fd5b60038054600160a01b60ff021916600160a11b17908190556040516001600160a01b03909116907f4538f80e606dc112c529fe1c118bb3d8f3d492a812f776b70e409a0b1853865790600090a2565b6000546001600160a01b0316610819610879565b6001600160a01b0316146108775760408051600160e51b62461bcd02815260206004820152601360248201527f63616c6c6572206973206e6f74206f776e657200000000000000000000000000604482015290519081900360640190fd5b565b3390565b50506004546001600160a01b03169056fe49206865726562792072656e6f756e6365206f776e657273686970206f66207468697320636f6e747261637420666f72657665722ea165627a7a723058205f9db32954ce2a88dd8ca9eac2ecd228b79c8f1f6930d8a2ed2f5bc67c7592c2002960806040523480156200001157600080fd5b5060405162001e3238038062001e32833981018060405260808110156200003757600080fd5b8151602083018051919392830192916401000000008111156200005957600080fd5b820160208101848111156200006d57600080fd5b81518560208202830111640100000000821117156200008b57600080fd5b50509291906020018051640100000000811115620000a857600080fd5b82016020810184811115620000bc57600080fd5b8151856020820283011164010000000082111715620000da57600080fd5b50509291906020018051640100000000811115620000f757600080fd5b820160208101848111156200010b57600080fd5b81518560208202830111640100000000821117156200012957600080fd5b5050929190505050836000620001446200032260201b60201c565b600080546001600160a01b0319166001600160a01b0383169081178255604051929350917f8be0079c531659141344cd1fd0a4f28419497f9722a3daafe3b4186f6b6457e0908290a350600380546001600160a01b0319166001600160a01b0383811691909117600160a01b60ff021981169092556040519116907f488fccde177d9377f35d8d9a4f0b3462fcc7cdb926a00d3d99630ef1d672a2cd90600090a25060008351116200025757604080517f08c379a000000000000000000000000000000000000000000000000000000000815260206004820152601860248201527f70726f706f73616c2063616e6e6f7420626520656d7074790000000000000000604482015290519081900360640190fd5b815183511480156200026a575080518251145b620002d657604080517f08c379a000000000000000000000000000000000000000000000000000000000815260206004820152601560248201527f756e657175616c206172726179206c656e677468730000000000000000000000604482015290519081900360640190fd5b8251620002eb90600490602086019062000327565b5081516200030190600590602085019062000391565b50805162000317906006906020840190620003dd565b5050505050620004ea565b335b90565b8280548282559060005260206000209081019282156200037f579160200282015b828111156200037f57825182546001600160a01b0319166001600160a01b0390911617825560209092019160019091019062000348565b506200038d92915062000485565b5090565b828054828255906000526020600020908101928215620003cf579160200282015b82811115620003cf578251825591602001919060010190620003b2565b506200038d929150620004ac565b82805482825590600052602060002090601f01602090048101928215620004775791602002820160005b838211156200044657835183826101000a81548160ff021916908315150217905550926020019260010160208160000104928301926001030262000407565b8015620004755782816101000a81549060ff021916905560010160208160000104928301926001030262000446565b505b506200038d929150620004c9565b6200032491905b808211156200038d5780546001600160a01b03191681556001016200048c565b6200032491905b808211156200038d5760008155600101620004b3565b6200032491905b808211156200038d57805460ff19168155600101620004d0565b61193880620004fa6000396000f3fe60806040523480156200001157600080fd5b5060043610620001005760003560e01c806379ba50971162000099578063c19d93fb116200006f578063c19d93fb1462000266578063e5892f641462000295578063ea8a1af014620002c6578063eb86693414620002d05762000100565b806379ba509714620002485780638da5cb5b1462000252578063a8e4fb90146200025c5762000100565b806345f0a44f11620000db57806345f0a44f146200016c5780634f64b2be146200018c5780634fdb7f4414620001c857806353a47bb7146200023e5762000100565b80631627540c146200010557806316ada547146200013057806319b05f49146200014c575b600080fd5b6200012e600480360360208110156200011d57600080fd5b50356001600160a01b031662000304565b005b6200013a620003c8565b60408051918252519081900360200190f35b6200012e600480360360208110156200016457600080fd5b5035620003ce565b6200013a600480360360208110156200018457600080fd5b50356200049e565b620001ac60048036036020811015620001a457600080fd5b5035620004bd565b604080516001600160a01b039092168252519081900360200190f35b6200012e60048036036020811015620001e057600080fd5b810190602081018135640100000000811115620001fc57600080fd5b8201836020820111156200020f57600080fd5b803590602001918460018302840111640100000000831117156200023257600080fd5b509092509050620004e5565b620001ac62000650565b6200012e6200065f565b620001ac62000730565b620001ac6200073f565b620002706200074e565b604051808260038111156200028157fe5b60ff16815260200191505060405180910390f35b620001ac60048036036040811015620002ad57600080fd5b506001600160a01b03813581169160200135166200075e565b6200012e620008b1565b620002f060048036036020811015620002e857600080fd5b503562000930565b604080519115158252519081900360200190f35b6200030e62000962565b6001600160a01b0381166200036d5760408051600160e51b62461bcd02815260206004820152601660248201527f6e6577206f776e65722069732030206164647265737300000000000000000000604482015290519081900360640190fd5b600080546040516001600160a01b03808516939216917fb59bab42c554cfd49f4f001c983b6ed93ede25748b10114b7d1cb1b3c97df7af91a3600180546001600160a01b0319166001600160a01b0392909216919091179055565b60025481565b620003d862000962565b600060038054600160a01b900460ff1690811115620003f357fe5b14620004495760408051600160e51b62461bcd02815260206004820152601460248201527f70726f706f73616c206e6f742063726561746564000000000000000000000000604482015290519081900360640190fd5b600281905560038054600160a01b60ff021916600160a01b179081905560405182916001600160a01b0316907f0447e15907813bfb966eab36935a68eeb6360426cc5d554898d37c9cb475cca690600090a350565b60058181548110620004ac57fe5b600091825260209091200154905081565b60048181548110620004cb57fe5b6000918252602090912001546001600160a01b0316905081565b620004ef62000962565b6060604051806060016040528060358152602001620018b7603591399050806040516020018082805190602001908083835b60208310620005425780518252601f19909201916020918201910162000521565b6001836020036101000a0380198251168184511680821785525050505050509050019150506040516020818303038152906040528051906020012083836040516020018083838082843780830192505050925050506040516020818303038152906040528051906020012014620006035760408051600160e51b62461bcd02815260206004820152601560248201527f6465636c61726174696f6e20696e636f72726563740000000000000000000000604482015290519081900360640190fd5b600080546040516001600160a01b03909116907f8be0079c531659141344cd1fd0a4f28419497f9722a3daafe3b4186f6b6457e0908390a35050600080546001600160a01b031916905550565b6001546001600160a01b031690565b62000669620009d9565b6001546001600160a01b03908116911614620006cf5760408051600160e51b62461bcd02815260206004820152600c60248201527f756e617574686f72697a65640000000000000000000000000000000000000000604482015290519081900360640190fd5b600154600080546040516001600160a01b0393841693909116917f8be0079c531659141344cd1fd0a4f28419497f9722a3daafe3b4186f6b6457e091a3600154600080546001600160a01b0319166001600160a01b03909216919091179055565b6000546001600160a01b031690565b6003546001600160a01b031681565b600354600160a01b900460ff1681565b60006200076a62000962565b600160038054600160a01b900460ff16908111156200078557fe5b14620007db5760408051600160e51b62461bcd02815260206004820152601960248201527f70726f706f73616c206d75737420626520616363657074656400000000000000604482015290519081900360640190fd5b6002544211620008355760408051600160e51b62461bcd02815260206004820152600f60248201527f7761697420746f20657865637574650000000000000000000000000000000000604482015290519081900360640190fd5b60038054600160a01b60ff0219167403000000000000000000000000000000000000000017905560006200086a8484620009dd565b6003546040519192506001600160a01b03808416929116907f8e5e44707220324282c02b68f904d080b620c1d4317a000ab94a09bcb32a209590600090a390505b92915050565b620008bb62000962565b6003808054600160a01b900460ff1690811115620008d557fe5b1415620008e157600080fd5b60038054600160a01b60ff021916600160a11b17908190556040516001600160a01b03909116907f4538f80e606dc112c529fe1c118bb3d8f3d492a812f776b70e409a0b1853865790600090a2565b600681815481106200093e57fe5b9060005260206000209060209182820401919006915054906101000a900460ff1681565b6000546001600160a01b031662000978620009d9565b6001600160a01b031614620009d75760408051600160e51b62461bcd02815260206004820152601360248201527f63616c6c6572206973206e6f74206f776e657200000000000000000000000000604482015290519081900360640190fd5b565b3390565b6000606060048054905060405190808252806020026020018201604052801562000a11578160200160208202803883390190505b509050600062000a9e856001600160a01b031663313ce5676040518163ffffffff1660e01b815260040160206040518083038186803b15801562000a5457600080fd5b505afa15801562000a69573d6000803e3d6000fd5b505050506040513d602081101562000a8057600080fd5b5051670de0b6b3a76400009060ff16600a0a63ffffffff62000db716565b90506000856001600160a01b03166318160ddd6040518163ffffffff1660e01b815260040160206040518083038186803b15801562000adc57600080fd5b505afa15801562000af1573d6000803e3d6000fd5b505050506040513d602081101562000b0857600080fd5b5051905060005b60045481101562000cd5576000866001600160a01b031663a7cac8466004848154811062000b3957fe5b600091825260209182902001546040805163ffffffff851660e01b81526001600160a01b0390921660048301525160248083019392829003018186803b15801562000b8357600080fd5b505afa15801562000b98573d6000803e3d6000fd5b505050506040513d602081101562000baf57600080fd5b505160068054919250908390811062000bc457fe5b90600052602060002090602091828204019190069054906101000a900460ff161562000c6d5762000c4e62000c408462000c338762000c2660016005898154811062000c0c57fe5b906000526020600020015462000e1f90919063ffffffff16565b9063ffffffff62000db716565b9063ffffffff62000e6316565b829063ffffffff62000ea716565b85838151811062000c5b57fe5b60200260200101818152505062000ccb565b62000cb162000ca38462000c33876005878154811062000c8957fe5b906000526020600020015462000db790919063ffffffff16565b829063ffffffff62000e1f16565b85838151811062000cbe57fe5b6020026020010181815250505b5060010162000b0f565b508460048460405162000ce8906200100f565b6001600160a01b0384168152606060208201818152845491830182905290604083019060808401908690801562000d4957602002820191906000526020600020905b81546001600160a01b0316815260019091019060200180831162000d2a575b50508381038252845181528451602091820191808701910280838360005b8381101562000d8157818101518382015260200162000d67565b5050505090500195505050505050604051809103906000f08015801562000dac573d6000803e3d6000fd5b509695505050505050565b60008262000dc857506000620008ab565b8282028284828162000dd657fe5b041462000e1857604051600160e51b62461bcd028152600401808060200182810382526021815260200180620018ec6021913960400191505060405180910390fd5b9392505050565b600062000e1883836040518060400160405280601e81526020017f536166654d6174683a207375627472616374696f6e206f766572666c6f77000081525062000f05565b600062000e1883836040518060400160405280601a81526020017f536166654d6174683a206469766973696f6e206279207a65726f00000000000081525062000fa3565b60008282018381101562000e185760408051600160e51b62461bcd02815260206004820152601b60248201527f536166654d6174683a206164646974696f6e206f766572666c6f770000000000604482015290519081900360640190fd5b6000818484111562000f9b57604051600160e51b62461bcd0281526004018080602001828103825283818151815260200191508051906020019080838360005b8381101562000f5f57818101518382015260200162000f45565b50505050905090810190601f16801562000f8d5780820380516001836020036101000a031916815260200191505b509250505060405180910390fd5b505050900390565b6000818362000ff857604051600160e51b62461bcd02815260206004820181815283516024840152835190928392604490910191908501908083836000831562000f5f57818101518382015260200162000f45565b5060008385816200100557fe5b0495945050505050565b610899806200101e8339019056fe608060405234801561001057600080fd5b506040516108993803806108998339810180604052606081101561003357600080fd5b81516020830180519193928301929164010000000081111561005457600080fd5b8201602081018481111561006757600080fd5b815185602082028301116401000000008211171561008457600080fd5b505092919060200180516401000000008111156100a057600080fd5b820160208101848111156100b357600080fd5b81518560208202830111640100000000821117156100d057600080fd5b5050929190505050805182511461014857604080517f08c379a000000000000000000000000000000000000000000000000000000000815260206004820152601d60248201527f4261736b65743a20756e657175616c206172726179206c656e67746873000000604482015290519081900360640190fd5b8151604051908082528060200260200182016040528015610173578160200160208202803883390190505b508051610188916000916020909101906105b5565b5060005b825181101561032b57600260008483815181106101a557fe5b6020908102919091018101516001600160a01b031682528101919091526040016000205460ff161561023857604080517f08c379a000000000000000000000000000000000000000000000000000000000815260206004820152601760248201527f6475706c696361746520746f6b656e20656e7472696573000000000000000000604482015290519081900360640190fd5b81818151811061024457fe5b60200260200101516001600085848151811061025c57fe5b60200260200101516001600160a01b03166001600160a01b031681526020019081526020016000208190555060016002600085848151811061029a57fe5b60200260200101516001600160a01b03166001600160a01b0316815260200190815260200160002060006101000a81548160ff0219169083151502179055508281815181106102e557fe5b6020026020010151600082815481106102fa57fe5b600091825260209091200180546001600160a01b0319166001600160a01b039290921691909117905560010161018c565b506001600160a01b0383161561053b5760005b836001600160a01b031663949d225d6040518163ffffffff1660e01b815260040160206040518083038186803b15801561037757600080fd5b505afa15801561038b573d6000803e3d6000fd5b505050506040513d60208110156103a157600080fd5b5051811015610539576000846001600160a01b0316634f64b2be836040518263ffffffff1660e01b81526004018082815260200191505060206040518083038186803b1580156103f057600080fd5b505afa158015610404573d6000803e3d6000fd5b505050506040513d602081101561041a57600080fd5b50516001600160a01b03811660009081526002602052604090205490915060ff1661053057846001600160a01b031663a7cac846826040518263ffffffff1660e01b815260040180826001600160a01b03166001600160a01b0316815260200191505060206040518083038186803b15801561049557600080fd5b505afa1580156104a9573d6000803e3d6000fd5b505050506040513d60208110156104bf57600080fd5b50516001600160a01b03821660008181526001602081815260408084209590955560029052928120805460ff1916841790558054928301815580527f290decd9548b62a8d60345a988386fc84ba6bc95484008f6362f93160ef3e56390910180546001600160a01b03191690911790555b5060010161033e565b505b600054600a10156105ad57604080517f08c379a000000000000000000000000000000000000000000000000000000000815260206004820152601260248201527f4261736b65743a20626164206c656e6774680000000000000000000000000000604482015290519081900360640190fd5b505050610641565b82805482825590600052602060002090810192821561060a579160200282015b8281111561060a57825182546001600160a01b0319166001600160a01b039091161782556020909201916001909101906105d5565b5061061692915061061a565b5090565b61063e91905b808211156106165780546001600160a01b0319168155600101610620565b90565b610249806106506000396000f3fe608060405234801561001057600080fd5b50600436106100575760003560e01c806321887c3d1461005c5780634f64b2be14610096578063949d225d146100cf578063a7cac846146100e9578063aa6ca8081461010f575b600080fd5b6100826004803603602081101561007257600080fd5b50356001600160a01b0316610167565b604080519115158252519081900360200190f35b6100b3600480360360208110156100ac57600080fd5b503561017c565b604080516001600160a01b039092168252519081900360200190f35b6100d76101a3565b60408051918252519081900360200190f35b6100d7600480360360208110156100ff57600080fd5b50356001600160a01b03166101a9565b6101176101bb565b60408051602080825283518183015283519192839290830191858101910280838360005b8381101561015357818101518382015260200161013b565b505050509050019250505060405180910390f35b60026020526000908152604090205460ff1681565b6000818154811061018957fe5b6000918252602090912001546001600160a01b0316905081565b60005490565b60016020526000908152604090205481565b6060600080548060200260200160405190810160405280929190818152602001828054801561021357602002820191906000526020600020905b81546001600160a01b031681526001909101906020018083116101f5575b505050505090509056fea165627a7a72305820059443131c81b029ae4befd56bfbe95c797ef801e8dcfb2b8d9a0040f92dbc85002949206865726562792072656e6f756e6365206f776e657273686970206f66207468697320636f6e747261637420666f72657665722e536166654d6174683a206d756c7469706c69636174696f6e206f766572666c6f77a165627a7a72305820bae75ea1699362325b7b7bb579210b9b83de1db0fef2e71284261c5b574a3cfc0029a165627a7a723058204a675699eed35218ebfb3bdd2dd0107cad9d4f93ad9ba631731badf98b86b3110029",
  "source": "pragma solidity 0.5.7;\n\nimport \"./zeppelin/token/ERC20/IERC20.sol\";\nimport \"./zeppelin/token/ERC20/SafeERC20.sol\";\nimport \"./rsv/IRSV.sol\";\nimport \"./ownership/Ownable.sol\";\nimport \"./Basket.sol\";\n\n/**\n * A Proposal represents a suggestion to change the backing for RSV.\n *\n * The lifecycle of a proposal:\n * 1. Creation\n * 2. Acceptance\n * 3. Completion\n *\n * A time can be set during acceptance to determine when completion is eligible.  A proposal can\n * also be cancelled before it is completed. If a proposal is cancelled, it can no longer become\n * Completed.\n *\n * This contract is intended to be used in one of two possible ways. Either:\n * - A target RSV basket is proposed, and quantities to be exchanged are deduced at the time of\n *   proposal execution.\n * - A specific quantity of tokens to be exchanged is proposed, and the resultant RSV basket is\n *   determined at the time of proposal execution.\n */\n\ninterface IProposal {\n    function proposer() external returns(address);\n    function accept(uint256 time) external;\n    function cancel() external;\n    function complete(IRSV rsv, Basket oldBasket) external returns(Basket);\n    function nominateNewOwner(address newOwner) external;\n    function acceptOwnership() external;\n}\n\ninterface IProposalFactory {\n    function createSwapProposal(address,\n        address[] calldata tokens,\n        uint256[] calldata amounts,\n        bool[] calldata toVault\n    ) external returns (IProposal);\n\n    function createWeightProposal(address proposer, Basket basket) external returns (IProposal);\n}\n\ncontract ProposalFactory is IProposalFactory {\n    function createSwapProposal(\n        address proposer,\n        address[] calldata tokens,\n        uint256[] calldata amounts,\n        bool[] calldata toVault\n    )\n        external returns (IProposal)\n    {\n        IProposal proposal = IProposal(new SwapProposal(proposer, tokens, amounts, toVault));\n        proposal.nominateNewOwner(msg.sender);\n        return proposal;\n    }\n\n    function createWeightProposal(address proposer, Basket basket) external returns (IProposal) {\n        IProposal proposal = IProposal(new WeightProposal(proposer, basket));\n        proposal.nominateNewOwner(msg.sender);\n        return proposal;\n    }\n}\n\ncontract Proposal is IProposal, Ownable {\n    using SafeMath for uint256;\n    using SafeERC20 for IERC20;\n\n    uint256 public time;\n    address public proposer;\n\n    enum State { Created, Accepted, Cancelled, Completed }\n    State public state;\n    \n    event ProposalCreated(address indexed proposer);\n    event ProposalAccepted(address indexed proposer, uint256 indexed time);\n    event ProposalCancelled(address indexed proposer);\n    event ProposalCompleted(address indexed proposer, address indexed basket);\n\n    constructor(address _proposer) public {\n        proposer = _proposer;\n        state = State.Created;\n        emit ProposalCreated(proposer);\n    }\n\n    /// Moves a proposal from the Created to Accepted state.\n    function accept(uint256 _time) external onlyOwner {\n        require(state == State.Created, \"proposal not created\");\n        time = _time;\n        state = State.Accepted;\n        emit ProposalAccepted(proposer, _time);\n    }\n\n    /// Cancels a proposal if it has not been completed.\n    function cancel() external onlyOwner {\n        require(state != State.Completed);\n        state = State.Cancelled;\n        emit ProposalCancelled(proposer);\n    }\n\n    /// Moves a proposal from the Accepted to Completed state.\n    /// Returns the tokens, quantitiesIn, and quantitiesOut, required to implement the proposal.\n    function complete(IRSV rsv, Basket oldBasket)\n        external onlyOwner returns(Basket)\n    {\n        require(state == State.Accepted, \"proposal must be accepted\");\n        require(now > time, \"wait to execute\");\n        state = State.Completed;\n\n        Basket b = _newBasket(rsv, oldBasket);\n        emit ProposalCompleted(proposer, address(b));\n        return b;\n    }\n\n    /// Returns the newly-proposed basket. This varies for different types of proposals,\n    /// so it's abstract here.\n    function _newBasket(IRSV trustedRSV, Basket oldBasket) internal returns(Basket);\n}\n\n/**\n * A WeightProposal represents a suggestion to change the backing for RSV to a new distribution\n * of tokens. You can think of it as designating what a _single RSV_ should be backed by, but\n * deferring on the precise quantities of tokens that will be need to be exchanged until a later\n * point in time.\n *\n * When this proposal is completed, it simply returns the target basket.\n */\ncontract WeightProposal is Proposal {\n    Basket public trustedBasket;\n\n    constructor(address _proposer, Basket _trustedBasket) Proposal(_proposer) public {\n        require(_trustedBasket.size() > 0, \"proposal cannot be empty\");\n        trustedBasket = _trustedBasket;\n    }\n\n    /// Returns the newly-proposed basket\n    function _newBasket(IRSV, Basket) internal returns(Basket) {\n        return trustedBasket;\n    }\n}\n\n/**\n * A SwapProposal represents a suggestion to transfer fixed amounts of tokens into and out of the\n * vault. Whereas a WeightProposal designates how much a _single RSV_ should be backed by,\n * a SwapProposal first designates what quantities of tokens to transfer in total and then\n * solves for the new resultant basket later.\n *\n * When this proposal is completed, it calculates what the weights for the new basket will be\n * and returns it. If RSV supply is 0, this kind of Proposal cannot be used. \n */\n\n// On \"unit\" comments, see comment at top of Manager.sol.\ncontract SwapProposal is Proposal {\n    address[] public tokens;\n    uint256[] public amounts; // unit: qToken\n    bool[] public toVault;\n\n    uint256 constant WEIGHT_SCALE = uint256(10)**18; // unit: aqToken / qToken\n\n    constructor(address _proposer,\n                address[] memory _tokens,\n                uint256[] memory _amounts, // unit: qToken\n                bool[] memory _toVault )\n        Proposal(_proposer) public\n    {\n        require(_tokens.length > 0, \"proposal cannot be empty\");\n        require(_tokens.length == _amounts.length && _amounts.length == _toVault.length,\n                \"unequal array lengths\");\n        tokens = _tokens;\n        amounts = _amounts;\n        toVault = _toVault;\n    }\n\n    /// Return the newly-proposed basket, based on the current vault and the old basket.\n    function _newBasket(IRSV trustedRSV, Basket trustedOldBasket) internal returns(Basket) {\n\n        uint256[] memory weights = new uint256[](tokens.length);\n        // unit: aqToken/RSV\n\n        uint256 scaleFactor = WEIGHT_SCALE.mul(uint256(10)**(trustedRSV.decimals()));\n        // unit: aqToken/qToken * qRSV/RSV\n\n        uint256 rsvSupply = trustedRSV.totalSupply();\n        // unit: qRSV\n\n        for (uint256 i = 0; i < tokens.length; i++) {\n            uint256 oldWeight = trustedOldBasket.weights(tokens[i]);\n            // unit: aqToken/RSV\n\n            if (toVault[i]) {\n                // We require that the execution of a SwapProposal takes in no more than the funds\n                // offered in its proposal -- that's part of the premise. It turns out that,\n                // because we're rounding down _here_ and rounding up in\n                // Manager._executeBasketShift(), it's possible for the naive implementation of\n                // this mechanism to overspend the proposer's tokens by 1 qToken. We avoid that,\n                // here, by making the effective proposal one less. Yeah, it's pretty fiddly.\n                \n                weights[i] = oldWeight.add( (amounts[i].sub(1)).mul(scaleFactor).div(rsvSupply) );\n                //unit: aqToken/RSV == aqToken/RSV == [qToken] * [aqToken/qToken*qRSV/RSV] / [qRSV]\n            } else {\n                weights[i] = oldWeight.sub( amounts[i].mul(scaleFactor).div(rsvSupply) );\n                //unit: aqToken/RSV\n            }\n        }\n\n        return new Basket(trustedOldBasket, tokens, weights);\n        // unit check for weights: aqToken/RSV\n    }\n}\n\n\n",
  "sourcePath": "/Users/taylorbrent/reserve/simple-portal/contracts/Proposal.sol",
  "compiler": {
    "name": "solc",
    "version": "0.5.7+commit.6da8b019.Emscripten.clang"
  },
  "schemaVersion": "3.0.17",
  "updatedAt": "2020-01-03T19:43:25.472Z",
  "networkType": "ethereum",
  "devdoc": {
    "methods": {}
  },
  "userdoc": {
    "methods": {}
  }
}