{
  "contractName": "ReserveV2",
  "abi": [
    {
      "constant": true,
      "inputs": [],
      "name": "name",
      "outputs": [
        {
          "name": "",
          "type": "string"
        }
      ],
      "payable": false,
      "stateMutability": "view",
      "type": "function"
    },
    {
      "constant": true,
      "inputs": [],
      "name": "minter",
      "outputs": [
        {
          "name": "",
          "type": "address"
        }
      ],
      "payable": false,
      "stateMutability": "view",
      "type": "function"
    },
    {
      "constant": false,
      "inputs": [
        {
          "name": "spender",
          "type": "address"
        },
        {
          "name": "value",
          "type": "uint256"
        }
      ],
      "name": "approve",
      "outputs": [
        {
          "name": "",
          "type": "bool"
        }
      ],
      "payable": false,
      "stateMutability": "nonpayable",
      "type": "function"
    },
    {
      "constant": false,
      "inputs": [
        {
          "name": "newOwner",
          "type": "address"
        }
      ],
      "name": "nominateNewOwner",
      "outputs": [],
      "payable": false,
      "stateMutability": "nonpayable",
      "type": "function"
    },
    {
      "constant": true,
      "inputs": [],
      "name": "totalSupply",
      "outputs": [
        {
          "name": "",
          "type": "uint256"
        }
      ],
      "payable": false,
      "stateMutability": "view",
      "type": "function"
    },
    {
      "constant": false,
      "inputs": [
        {
          "name": "newFeeRecipient",
          "type": "address"
        }
      ],
      "name": "changeFeeRecipient",
      "outputs": [],
      "payable": false,
      "stateMutability": "nonpayable",
      "type": "function"
    },
    {
      "constant": false,
      "inputs": [
        {
          "name": "from",
          "type": "address"
        },
        {
          "name": "to",
          "type": "address"
        },
        {
          "name": "value",
          "type": "uint256"
        }
      ],
      "name": "transferFrom",
      "outputs": [
        {
          "name": "",
          "type": "bool"
        }
      ],
      "payable": false,
      "stateMutability": "nonpayable",
      "type": "function"
    },
    {
      "constant": false,
      "inputs": [
        {
          "name": "newMinter",
          "type": "address"
        }
      ],
      "name": "changeMinter",
      "outputs": [],
      "payable": false,
      "stateMutability": "nonpayable",
      "type": "function"
    },
    {
      "constant": false,
      "inputs": [
        {
          "name": "newPauser",
          "type": "address"
        }
      ],
      "name": "changePauser",
      "outputs": [],
      "payable": false,
      "stateMutability": "nonpayable",
      "type": "function"
    },
    {
      "constant": true,
      "inputs": [],
      "name": "decimals",
      "outputs": [
        {
          "name": "",
          "type": "uint8"
        }
      ],
      "payable": false,
      "stateMutability": "view",
      "type": "function"
    },
    {
      "constant": false,
      "inputs": [
        {
          "name": "spender",
          "type": "address"
        },
        {
          "name": "addedValue",
          "type": "uint256"
        }
      ],
      "name": "increaseAllowance",
      "outputs": [
        {
          "name": "",
          "type": "bool"
        }
      ],
      "payable": false,
      "stateMutability": "nonpayable",
      "type": "function"
    },
    {
      "constant": false,
      "inputs": [],
      "name": "unpause",
      "outputs": [],
      "payable": false,
      "stateMutability": "nonpayable",
      "type": "function"
    },
    {
      "constant": false,
      "inputs": [
        {
          "name": "newMaxSupply",
          "type": "uint256"
        }
      ],
      "name": "changeMaxSupply",
      "outputs": [],
      "payable": false,
      "stateMutability": "nonpayable",
      "type": "function"
    },
    {
      "constant": false,
      "inputs": [
        {
          "name": "account",
          "type": "address"
        },
        {
          "name": "value",
          "type": "uint256"
        }
      ],
      "name": "mint",
      "outputs": [],
      "payable": false,
      "stateMutability": "nonpayable",
      "type": "function"
    },
    {
      "constant": true,
      "inputs": [],
      "name": "feeRecipient",
      "outputs": [
        {
          "name": "",
          "type": "address"
        }
      ],
      "payable": false,
      "stateMutability": "view",
      "type": "function"
    },
    {
      "constant": false,
      "inputs": [
        {
          "name": "declaration",
          "type": "string"
        }
      ],
      "name": "renounceOwnership",
      "outputs": [],
      "payable": false,
      "stateMutability": "nonpayable",
      "type": "function"
    },
    {
      "constant": true,
      "inputs": [],
      "name": "nominatedOwner",
      "outputs": [
        {
          "name": "",
          "type": "address"
        }
      ],
      "payable": false,
      "stateMutability": "view",
      "type": "function"
    },
    {
      "constant": true,
      "inputs": [],
      "name": "paused",
      "outputs": [
        {
          "name": "",
          "type": "bool"
        }
      ],
      "payable": false,
      "stateMutability": "view",
      "type": "function"
    },
    {
      "constant": true,
      "inputs": [
        {
          "name": "holder",
          "type": "address"
        }
      ],
      "name": "balanceOf",
      "outputs": [
        {
          "name": "",
          "type": "uint256"
        }
      ],
      "payable": false,
      "stateMutability": "view",
      "type": "function"
    },
    {
      "constant": false,
      "inputs": [],
      "name": "acceptOwnership",
      "outputs": [],
      "payable": false,
      "stateMutability": "nonpayable",
      "type": "function"
    },
    {
      "constant": false,
      "inputs": [
        {
          "name": "account",
          "type": "address"
        },
        {
          "name": "value",
          "type": "uint256"
        }
      ],
      "name": "burnFrom",
      "outputs": [],
      "payable": false,
      "stateMutability": "nonpayable",
      "type": "function"
    },
    {
      "constant": false,
      "inputs": [],
      "name": "pause",
      "outputs": [],
      "payable": false,
      "stateMutability": "nonpayable",
      "type": "function"
    },
    {
      "constant": true,
      "inputs": [],
      "name": "owner",
      "outputs": [
        {
          "name": "",
          "type": "address"
        }
      ],
      "payable": false,
      "stateMutability": "view",
      "type": "function"
    },
    {
      "constant": true,
      "inputs": [],
      "name": "symbol",
      "outputs": [
        {
          "name": "",
          "type": "string"
        }
      ],
      "payable": false,
      "stateMutability": "view",
      "type": "function"
    },
    {
      "constant": false,
      "inputs": [
        {
          "name": "newReserveAddress",
          "type": "address"
        }
      ],
      "name": "transferEternalStorage",
      "outputs": [],
      "payable": false,
      "stateMutability": "nonpayable",
      "type": "function"
    },
    {
      "constant": true,
      "inputs": [],
      "name": "pauser",
      "outputs": [
        {
          "name": "",
          "type": "address"
        }
      ],
      "payable": false,
      "stateMutability": "view",
      "type": "function"
    },
    {
      "constant": false,
      "inputs": [
        {
          "name": "spender",
          "type": "address"
        },
        {
          "name": "subtractedValue",
          "type": "uint256"
        }
      ],
      "name": "decreaseAllowance",
      "outputs": [
        {
          "name": "",
          "type": "bool"
        }
      ],
      "payable": false,
      "stateMutability": "nonpayable",
      "type": "function"
    },
    {
      "constant": false,
      "inputs": [
        {
          "name": "to",
          "type": "address"
        },
        {
          "name": "value",
          "type": "uint256"
        }
      ],
      "name": "transfer",
      "outputs": [
        {
          "name": "",
          "type": "bool"
        }
      ],
      "payable": false,
      "stateMutability": "nonpayable",
      "type": "function"
    },
    {
      "constant": false,
      "inputs": [
        {
          "name": "newTrustedTxFee",
          "type": "address"
        }
      ],
      "name": "changeTxFeeHelper",
      "outputs": [],
      "payable": false,
      "stateMutability": "nonpayable",
      "type": "function"
    },
    {
      "constant": true,
      "inputs": [],
      "name": "trustedTxFee",
      "outputs": [
        {
          "name": "",
          "type": "address"
        }
      ],
      "payable": false,
      "stateMutability": "view",
      "type": "function"
    },
    {
      "constant": true,
      "inputs": [],
      "name": "maxSupply",
      "outputs": [
        {
          "name": "",
          "type": "uint256"
        }
      ],
      "payable": false,
      "stateMutability": "view",
      "type": "function"
    },
    {
      "constant": true,
      "inputs": [
        {
          "name": "holder",
          "type": "address"
        },
        {
          "name": "spender",
          "type": "address"
        }
      ],
      "name": "allowance",
      "outputs": [
        {
          "name": "",
          "type": "uint256"
        }
      ],
      "payable": false,
      "stateMutability": "view",
      "type": "function"
    },
    {
      "constant": true,
      "inputs": [],
      "name": "getEternalStorageAddress",
      "outputs": [
        {
          "name": "",
          "type": "address"
        }
      ],
      "payable": false,
      "stateMutability": "view",
      "type": "function"
    },
    {
      "anonymous": false,
      "inputs": [
        {
          "indexed": true,
          "name": "newMinter",
          "type": "address"
        }
      ],
      "name": "MinterChanged",
      "type": "event"
    },
    {
      "anonymous": false,
      "inputs": [
        {
          "indexed": true,
          "name": "newPauser",
          "type": "address"
        }
      ],
      "name": "PauserChanged",
      "type": "event"
    },
    {
      "anonymous": false,
      "inputs": [
        {
          "indexed": true,
          "name": "newFeeRecipient",
          "type": "address"
        }
      ],
      "name": "FeeRecipientChanged",
      "type": "event"
    },
    {
      "anonymous": false,
      "inputs": [
        {
          "indexed": true,
          "name": "newMaxSupply",
          "type": "uint256"
        }
      ],
      "name": "MaxSupplyChanged",
      "type": "event"
    },
    {
      "anonymous": false,
      "inputs": [
        {
          "indexed": true,
          "name": "newReserveAddress",
          "type": "address"
        }
      ],
      "name": "EternalStorageTransferred",
      "type": "event"
    },
    {
      "anonymous": false,
      "inputs": [
        {
          "indexed": true,
          "name": "newTxFeeHelper",
          "type": "address"
        }
      ],
      "name": "TxFeeHelperChanged",
      "type": "event"
    },
    {
      "anonymous": false,
      "inputs": [
        {
          "indexed": true,
          "name": "account",
          "type": "address"
        }
      ],
      "name": "Paused",
      "type": "event"
    },
    {
      "anonymous": false,
      "inputs": [
        {
          "indexed": true,
          "name": "account",
          "type": "address"
        }
      ],
      "name": "Unpaused",
      "type": "event"
    },
    {
      "anonymous": false,
      "inputs": [
        {
          "indexed": true,
          "name": "previousOwner",
          "type": "address"
        },
        {
          "indexed": true,
          "name": "nominee",
          "type": "address"
        }
      ],
      "name": "NewOwnerNominated",
      "type": "event"
    },
    {
      "anonymous": false,
      "inputs": [
        {
          "indexed": true,
          "name": "previousOwner",
          "type": "address"
        },
        {
          "indexed": true,
          "name": "newOwner",
          "type": "address"
        }
      ],
      "name": "OwnershipTransferred",
      "type": "event"
    },
    {
      "anonymous": false,
      "inputs": [
        {
          "indexed": true,
          "name": "from",
          "type": "address"
        },
        {
          "indexed": true,
          "name": "to",
          "type": "address"
        },
        {
          "indexed": false,
          "name": "value",
          "type": "uint256"
        }
      ],
      "name": "Transfer",
      "type": "event"
    },
    {
      "anonymous": false,
      "inputs": [
        {
          "indexed": true,
          "name": "owner",
          "type": "address"
        },
        {
          "indexed": true,
          "name": "spender",
          "type": "address"
        },
        {
          "indexed": false,
          "name": "value",
          "type": "uint256"
        }
      ],
      "name": "Approval",
      "type": "event"
    },
    {
      "constant": false,
      "inputs": [
        {
          "name": "previousImplementation",
          "type": "address"
        }
      ],
      "name": "completeHandoff",
      "outputs": [],
      "payable": false,
      "stateMutability": "nonpayable",
      "type": "function"
    }
  ],
  "bytecode": "0x60806040526000620000166200016260201b60201c565b600080546001600160a01b0319166001600160a01b0383169081178255604051929350917f8be0079c531659141344cd1fd0a4f28419497f9722a3daafe3b4186f6b6457e0908290a35060078054336001600160a01b031991821681179092556008805482169092179091556000196005556006805460ff19166001179055600380549091169055604051620000ac9062000166565b604051809103906000f080158015620000c9573d6000803e3d6000fd5b50600280546001600160a01b0319166001600160a01b039283161790819055604080517f1627540c00000000000000000000000000000000000000000000000000000000815233600482015290519190921691631627540c91602480830192600092919082900301818387803b1580156200014357600080fd5b505af115801562000158573d6000803e3d6000fd5b5050505062000174565b3390565b610ce780620024c083390190565b61233c80620001846000396000f3fe608060405234801561001057600080fd5b50600436106102065760003560e01c80635c975abb1161011a57806396cd5536116100ad578063ac5b54c21161007c578063ac5b54c214610617578063bdd1b96e1461063d578063d5abeb0114610645578063dd62ed3e1461064d578063fb5689661461067b57610206565b806396cd5536146105915780639fd0506d146105b7578063a457c2d7146105bf578063a9059cbb146105eb57610206565b80637f3c7b04116100e95780637f3c7b04146105535780638456cb59146105795780638da5cb5b1461058157806395d89b411461058957610206565b80635c975abb146104f157806370a08231146104f957806379ba50971461051f57806379cc67901461052757610206565b80632cd271e71161019d578063404c7cdd1161016c578063404c7cdd1461042857806340c10f191461044557806346904840146104715780634fdb7f441461047957806353a47bb7146104e957610206565b80632cd271e7146103b0578063313ce567146103d657806339509351146103f45780633f4ba83a1461042057610206565b806318160ddd116101d957806318160ddd14610314578063236040711461032e57806323b872dd146103545780632c4d4d181461038a57610206565b806306fdde031461020b5780630754617214610288578063095ea7b3146102ac5780631627540c146102ec575b600080fd5b610213610683565b6040805160208082528351818301528351919283929083019185019080838360005b8381101561024d578181015183820152602001610235565b50505050905090810190601f16801561027a5780820380516001836020036101000a031916815260200191505b509250505060405180910390f35b6102906106a9565b604080516001600160a01b039092168252519081900360200190f35b6102d8600480360360408110156102c257600080fd5b506001600160a01b0381351690602001356106bd565b604080519115158252519081900360200190f35b6103126004803603602081101561030257600080fd5b50356001600160a01b031661071d565b005b61031c6107de565b60408051918252519081900360200190f35b6103126004803603602081101561034457600080fd5b50356001600160a01b03166107e4565b6102d86004803603606081101561036a57600080fd5b506001600160a01b038135811691602081013590911690604001356108be565b610312600480360360208110156103a057600080fd5b50356001600160a01b03166109c0565b610312600480360360208110156103c657600080fd5b50356001600160a01b0316610aa7565b6103de610b81565b6040805160ff9092168252519081900360200190f35b6102d86004803603604081101561040a57600080fd5b506001600160a01b038135169060200135610b86565b610312610c6f565b6103126004803603602081101561043e57600080fd5b5035610d05565b6103126004803603604081101561045b57600080fd5b506001600160a01b038135169060200135610d40565b610290610f51565b6103126004803603602081101561048f57600080fd5b8101906020810181356401000000008111156104aa57600080fd5b8201836020820111156104bc57600080fd5b803590602001918460018302840111640100000000831117156104de57600080fd5b509092509050610f60565b6102906110c5565b6102d86110d4565b61031c6004803603602081101561050f57600080fd5b50356001600160a01b03166110dd565b610312611163565b6103126004803603604081101561053d57600080fd5b506001600160a01b038135169060200135611231565b6103126004803603602081101561056957600080fd5b50356001600160a01b0316611343565b6103126116ac565b610290611745565b610213611754565b610312600480360360208110156105a757600080fd5b50356001600160a01b0316611776565b6102906118d6565b6102d8600480360360408110156105d557600080fd5b506001600160a01b0381351690602001356118e5565b6102d86004803603604081101561060157600080fd5b506001600160a01b038135169060200135611996565b6103126004803603602081101561062d57600080fd5b50356001600160a01b03166119ed565b610290611a3f565b61031c611a4e565b61031c6004803603604081101561066357600080fd5b506001600160a01b0381358116916020013516611a54565b610290611ae3565b604051806040016040528060078152602001600160c81b66526573657276650281525081565b60065461010090046001600160a01b031681565b60065460009060ff16156107095760408051600160e51b62461bcd02815260206004820152601260248201526000805160206122b1833981519152604482015290519081900360640190fd5b610714338484611af2565b50600192915050565b610725611c6d565b6001600160a01b0381166107835760408051600160e51b62461bcd02815260206004820152601660248201527f6e6577206f776e65722069732030206164647265737300000000000000000000604482015290519081900360640190fd5b600080546040516001600160a01b03808516939216917fb59bab42c554cfd49f4f001c983b6ed93ede25748b10114b7d1cb1b3c97df7af91a3600180546001600160a01b0319166001600160a01b0392909216919091179055565b60045481565b6008546001600160a01b03166107f8611745565b6001600160a01b0316336001600160a01b0316148061081f5750336001600160a01b038216145b6108735760408051600160e51b62461bcd02815260206004820152601f60248201527f756e617574686f72697a65643a206e6f74206f776e6572206f7220726f6c6500604482015290519081900360640190fd5b600880546001600160a01b0319166001600160a01b0384169081179091556040517f167cccccc6e9b2892a740ec13fc1e51d3de8ea384f25bd87fee7412d588637e290600090a25050565b60065460009060ff161561090a5760408051600160e51b62461bcd02815260206004820152601260248201526000805160206122b1833981519152604482015290519081900360640190fd5b610915848484611ce1565b60025460408051600160e01b635c6581650281526001600160a01b038088166004830152336024830181905292516109b6948994936109b1938993921691635c65816591604480820192602092909190829003018186803b15801561097957600080fd5b505afa15801561098d573d6000803e3d6000fd5b505050506040513d60208110156109a357600080fd5b50519063ffffffff61201b16565b611af2565b5060019392505050565b60065461010090046001600160a01b03166109d9611745565b6001600160a01b0316336001600160a01b03161480610a005750336001600160a01b038216145b610a545760408051600160e51b62461bcd02815260206004820152601f60248201527f756e617574686f72697a65643a206e6f74206f776e6572206f7220726f6c6500604482015290519081900360640190fd5b60068054610100600160a81b0319166101006001600160a01b038516908102919091179091556040517fb6b8f1859c5c352e5ffad07d0f77e384ac725512c015bd3a3ffc885831c8a42590600090a25050565b6007546001600160a01b0316610abb611745565b6001600160a01b0316336001600160a01b03161480610ae25750336001600160a01b038216145b610b365760408051600160e51b62461bcd02815260206004820152601f60248201527f756e617574686f72697a65643a206e6f74206f776e6572206f7220726f6c6500604482015290519081900360640190fd5b600780546001600160a01b0319166001600160a01b0384169081179091556040517fb80482a293ca2e013eda8683c9bd7fc8347cfdaeea5ede58cba46df502c2a60490600090a25050565b601281565b60065460009060ff1615610bd25760408051600160e51b62461bcd02815260206004820152601260248201526000805160206122b1833981519152604482015290519081900360640190fd5b60025460408051600160e01b635c65816502815233600482018190526001600160a01b038088166024840152925161071494919388936109b1938993921691635c65816591604480820192602092909190829003018186803b158015610c3757600080fd5b505afa158015610c4b573d6000803e3d6000fd5b505050506040513d6020811015610c6157600080fd5b50519063ffffffff61206416565b6007546001600160a01b0316338114610cc05760408051600160e51b62461bcd02815260206004820152601d60248201526000805160206122f1833981519152604482015290519081900360640190fd5b6006805460ff191690556007546040516001600160a01b03909116907f5db9ee0a495bf2e6ff9c91a7834c1ba4fdd244a5e8aa4e537bd38aeae4b073aa90600090a250565b610d0d611c6d565b600581905560405181907f28a10a2e0b5582da7164754cb994f6214b8af6aa7f7e003305fbc09e7106c51390600090a250565b60065460ff1615610d895760408051600160e51b62461bcd02815260206004820152601260248201526000805160206122b1833981519152604482015290519081900360640190fd5b60065461010090046001600160a01b0316338114610ddf5760408051600160e51b62461bcd02815260206004820152601d60248201526000805160206122f1833981519152604482015290519081900360640190fd5b6001600160a01b038316610e3d5760408051600160e51b62461bcd02815260206004820152601a60248201527f63616e2774206d696e7420746f2061646472657373207a65726f000000000000604482015290519081900360640190fd5b600454610e50908363ffffffff61206416565b600481905560055411610ead5760408051600160e51b62461bcd02815260206004820152601360248201527f6d617820737570706c7920657863656564656400000000000000000000000000604482015290519081900360640190fd5b60025460408051600160e11b6310f29c1d0281526001600160a01b03868116600483015260248201869052915191909216916321e5383a91604480830192600092919082900301818387803b158015610f0557600080fd5b505af1158015610f19573d6000803e3d6000fd5b50506040805185815290516001600160a01b0387169350600092506000805160206122d18339815191529181900360200190a3505050565b6008546001600160a01b031681565b610f68611c6d565b606060405180606001604052806035815260200161227c603591399050806040516020018082805190602001908083835b60208310610fb85780518252601f199092019160209182019101610f99565b6001836020036101000a03801982511681845116808217855250505050505090500191505060405160208183030381529060405280519060200120838360405160200180838380828437808301925050509250505060405160208183030381529060405280519060200120146110785760408051600160e51b62461bcd02815260206004820152601560248201527f6465636c61726174696f6e20696e636f72726563740000000000000000000000604482015290519081900360640190fd5b600080546040516001600160a01b03909116907f8be0079c531659141344cd1fd0a4f28419497f9722a3daafe3b4186f6b6457e0908390a35050600080546001600160a01b031916905550565b6001546001600160a01b031690565b60065460ff1681565b60025460408051600160e01b63e3d670d70281526001600160a01b0384811660048301529151600093929092169163e3d670d791602480820192602092909190829003018186803b15801561113157600080fd5b505afa158015611145573d6000803e3d6000fd5b505050506040513d602081101561115b57600080fd5b505192915050565b61116b6120c1565b6001546001600160a01b039081169116146111d05760408051600160e51b62461bcd02815260206004820152600c60248201527f756e617574686f72697a65640000000000000000000000000000000000000000604482015290519081900360640190fd5b600154600080546040516001600160a01b0393841693909116917f8be0079c531659141344cd1fd0a4f28419497f9722a3daafe3b4186f6b6457e091a3600154600080546001600160a01b0319166001600160a01b03909216919091179055565b60065460ff161561127a5760408051600160e51b62461bcd02815260206004820152601260248201526000805160206122b1833981519152604482015290519081900360640190fd5b60065461010090046001600160a01b03163381146112d05760408051600160e51b62461bcd02815260206004820152601d60248201526000805160206122f1833981519152604482015290519081900360640190fd5b6112da83836120c5565b60025460408051600160e01b635c6581650281526001600160a01b0380871660048301523360248301819052925161133e948894936109b1938993921691635c65816591604480820192602092909190829003018186803b15801561097957600080fd5b505050565b61134b611c6d565b6000819050806001600160a01b031663fb5689666040518163ffffffff1660e01b815260040160206040518083038186803b15801561138957600080fd5b505afa15801561139d573d6000803e3d6000fd5b505050506040513d60208110156113b357600080fd5b5051600280546001600160a01b0319166001600160a01b039283161790556006805460ff191690556007546040519116907f5db9ee0a495bf2e6ff9c91a7834c1ba4fdd244a5e8aa4e537bd38aeae4b073aa90600090a2806001600160a01b03166379ba50976040518163ffffffff1660e01b8152600401600060405180830381600087803b15801561144557600080fd5b505af1158015611459573d6000803e3d6000fd5b505060408051600160e01b632cd271e702815230600482015290516001600160a01b0385169350632cd271e79250602480830192600092919082900301818387803b1580156114a757600080fd5b505af11580156114bb573d6000803e3d6000fd5b50505050806001600160a01b0316638456cb596040518163ffffffff1660e01b8152600401600060405180830381600087803b1580156114fa57600080fd5b505af115801561150e573d6000803e3d6000fd5b505060408051600160e11b634b66aa9b02815230600482015290516001600160a01b03851693506396cd55369250602480830192600092919082900301818387803b15801561155c57600080fd5b505af1158015611570573d6000803e3d6000fd5b505060408051600160e31b630589a9a302815260006004820181905291516001600160a01b0386169450632c4d4d1893506024808301939282900301818387803b1580156115bd57600080fd5b505af11580156115d1573d6000803e3d6000fd5b505060408051600160e01b632cd271e702815260006004820181905291516001600160a01b0386169450632cd271e793506024808301939282900301818387803b15801561161e57600080fd5b505af1158015611632573d6000803e3d6000fd5b50505050806001600160a01b0316634fdb7f446040518163ffffffff1660e01b815260040180806020018281038252603581526020018061227c60359139604001915050600060405180830381600087803b15801561169057600080fd5b505af11580156116a4573d6000803e3d6000fd5b505050505050565b6007546001600160a01b03163381146116fd5760408051600160e51b62461bcd02815260206004820152601d60248201526000805160206122f1833981519152604482015290519081900360640190fd5b6006805460ff191660011790556007546040516001600160a01b03909116907f62e78cea01bee320cd4e420270b5ea74000d11b0c9f74754ebdbfc544b05a25890600090a250565b6000546001600160a01b031690565b604051806040016040528060038152602001600160e91b622929ab0281525081565b61177e611c6d565b60065460ff166117d85760408051600160e51b62461bcd02815260206004820152601660248201527f636f6e7472616374206973206e6f742070617573656400000000000000000000604482015290519081900360640190fd5b6001600160a01b0381166118365760408051600160e51b62461bcd02815260206004820152600c60248201527f7a65726f20616464726573730000000000000000000000000000000000000000604482015290519081900360640190fd5b6040516001600160a01b038216907f170ee3488a79c35a0d86eff88a7857910c11193864052c0323ad49222232a2d790600090a260025460408051600160e31b631f095fa90281526001600160a01b0384811660048301529151919092169163f84afd4891602480830192600092919082900301818387803b1580156118bb57600080fd5b505af11580156118cf573d6000803e3d6000fd5b5050505050565b6007546001600160a01b031681565b60065460009060ff16156119315760408051600160e51b62461bcd02815260206004820152601260248201526000805160206122b1833981519152604482015290519081900360640190fd5b60025460408051600160e01b635c65816502815233600482018190526001600160a01b038088166024840152925161071494919388936109b1938993921691635c65816591604480820192602092909190829003018186803b15801561097957600080fd5b60065460009060ff16156119e25760408051600160e51b62461bcd02815260206004820152601260248201526000805160206122b1833981519152604482015290519081900360640190fd5b610714338484611ce1565b6119f5611c6d565b600380546001600160a01b0319166001600160a01b0383169081179091556040517fe554fc9a6ce410c9b9537cefc8440997bdbd03a2a87193c1a7f4ee085188ced190600090a250565b6003546001600160a01b031681565b60055481565b60025460408051600160e01b635c6581650281526001600160a01b038581166004830152848116602483015291516000939290921691635c65816591604480820192602092909190829003018186803b158015611ab057600080fd5b505afa158015611ac4573d6000803e3d6000fd5b505050506040513d6020811015611ada57600080fd5b50519392505050565b6002546001600160a01b031690565b6001600160a01b038216611b505760408051600160e51b62461bcd02815260206004820152601e60248201527f7370656e6465722063616e6e6f742062652061646472657373207a65726f0000604482015290519081900360640190fd5b6001600160a01b038316611bae5760408051600160e51b62461bcd02815260206004820152601d60248201527f686f6c6465722063616e6e6f742062652061646472657373207a65726f000000604482015290519081900360640190fd5b60025460408051600160e11b6319ee8dc50281526001600160a01b038681166004830152858116602483015260448201859052915191909216916333dd1b8a91606480830192600092919082900301818387803b158015611c0e57600080fd5b505af1158015611c22573d6000803e3d6000fd5b50506040805184815290516001600160a01b038087169450871692507f8c5be1e5ebec7d5bd14f71427d1e84f3dd0314c0f7b2291e5b200ac8c7c3b9259181900360200190a3505050565b6000546001600160a01b0316611c816120c1565b6001600160a01b031614611cdf5760408051600160e51b62461bcd02815260206004820152601360248201527f63616c6c6572206973206e6f74206f776e657200000000000000000000000000604482015290519081900360640190fd5b565b6001600160a01b038216611d3f5760408051600160e51b62461bcd02815260206004820152601e60248201527f63616e2774207472616e7366657220746f2061646472657373207a65726f0000604482015290519081900360640190fd5b60025460408051600160e11b6367c775bf0281526001600160a01b038681166004830152602482018590529151919092169163cf8eeb7e91604480830192600092919082900301818387803b158015611d9757600080fd5b505af1158015611dab573d6000803e3d6000fd5b5050600354600092506001600160a01b0316159050611f545760035460408051600160e11b633e543e5b0281526001600160a01b03878116600483015286811660248301526044820186905291519190921691637ca87cb69160648083019260209291908290030181600087803b158015611e2557600080fd5b505af1158015611e39573d6000803e3d6000fd5b505050506040513d6020811015611e4f57600080fd5b5051905081811115611eab5760408051600160e51b62461bcd02815260206004820152601d60248201527f7472616e73616374696f6e20666565206f7574206f6620626f756e6473000000604482015290519081900360640190fd5b60025460085460408051600160e11b6310f29c1d0281526001600160a01b03928316600482015260248101859052905191909216916321e5383a91604480830192600092919082900301818387803b158015611f0657600080fd5b505af1158015611f1a573d6000803e3d6000fd5b50506008546040805185815290516001600160a01b03928316945091881692506000805160206122d1833981519152919081900360200190a35b6002546001600160a01b03166321e5383a84611f76858563ffffffff61201b16565b6040518363ffffffff1660e01b815260040180836001600160a01b03166001600160a01b0316815260200182815260200192505050600060405180830381600087803b158015611fc557600080fd5b505af1158015611fd9573d6000803e3d6000fd5b5050506001600160a01b03848116915085166000805160206122d1833981519152612004858561201b565b60408051918252519081900360200190a350505050565b600061205d83836040518060400160405280601e81526020017f536166654d6174683a207375627472616374696f6e206f766572666c6f7700008152506121e1565b9392505050565b60008282018381101561205d5760408051600160e51b62461bcd02815260206004820152601b60248201527f536166654d6174683a206164646974696f6e206f766572666c6f770000000000604482015290519081900360640190fd5b3390565b6001600160a01b0382166121235760408051600160e51b62461bcd02815260206004820152601c60248201527f63616e2774206275726e2066726f6d2061646472657373207a65726f00000000604482015290519081900360640190fd5b600454612136908263ffffffff61201b16565b600490815560025460408051600160e11b6367c775bf0281526001600160a01b0386811694820194909452602481018590529051929091169163cf8eeb7e9160448082019260009290919082900301818387803b15801561219657600080fd5b505af11580156121aa573d6000803e3d6000fd5b5050604080518481529051600093506001600160a01b03861692506000805160206122d18339815191529181900360200190a35050565b6000818484111561227357604051600160e51b62461bcd0281526004018080602001828103825283818151815260200191508051906020019080838360005b83811015612238578181015183820152602001612220565b50505050905090810190601f1680156122655780820380516001836020036101000a031916815260200191505b509250505060405180910390fd5b50505090039056fe49206865726562792072656e6f756e6365206f776e657273686970206f66207468697320636f6e747261637420666f72657665722e636f6e7472616374206973207061757365640000000000000000000000000000ddf252ad1be2c89b69c2b068fc378daa952ba7f163c4a11628f55a4df523b3ef756e617574686f72697a65643a206e6f7420726f6c6520686f6c646572000000a165627a7a723058206be0246bb14a04f3beaf72f2a0293cae2891e88f76ab093b470232d5d7ef8afe0029608060405234801561001057600080fd5b5060006100216100ca60201b60201c565b600080546001600160a01b0319166001600160a01b0383169081178255604051929350917f8be0079c531659141344cd1fd0a4f28419497f9722a3daafe3b4186f6b6457e0908290a3506100796100ca60201b60201c565b600280546001600160a01b0319166001600160a01b0392831617908190556040519116906000907feb667ad87f8e94a71252d18843f339e739a788f5641fd00d1404d93f4e547534908290a36100ce565b3390565b610c0a806100dd6000396000f3fe608060405234801561001057600080fd5b50600436106100cf5760003560e01c806379ba50971161008c578063e30443bc11610066578063e30443bc1461026e578063e3d670d71461029a578063f79ed94b146102c0578063f84afd48146102c8576100cf565b806379ba5097146102325780638da5cb5b1461023a578063cf8eeb7e14610242576100cf565b80631627540c146100d457806321e5383a146100fc57806333dd1b8a146101285780634fdb7f441461015e57806353a47bb7146101ce5780635c658165146101f2575b600080fd5b6100fa600480360360208110156100ea57600080fd5b50356001600160a01b03166102ee565b005b6100fa6004803603604081101561011257600080fd5b506001600160a01b0381351690602001356103af565b6100fa6004803603606081101561013e57600080fd5b506001600160a01b03813581169160208101359091169060400135610462565b6100fa6004803603602081101561017457600080fd5b81019060208101813564010000000081111561018f57600080fd5b8201836020820111156101a157600080fd5b803590602001918460018302840111640100000000831117156101c357600080fd5b5090925090506104f8565b6101d661065d565b604080516001600160a01b039092168252519081900360200190f35b6102206004803603604081101561020857600080fd5b506001600160a01b038135811691602001351661066c565b60408051918252519081900360200190f35b6100fa610689565b6101d6610757565b6100fa6004803603604081101561025857600080fd5b506001600160a01b038135169060200135610766565b6100fa6004803603604081101561028457600080fd5b506001600160a01b0381351690602001356107f9565b610220600480360360208110156102b057600080fd5b50356001600160a01b031661087f565b6101d6610891565b6100fa600480360360208110156102de57600080fd5b50356001600160a01b03166108a0565b6102f66109f6565b6001600160a01b0381166103545760408051600160e51b62461bcd02815260206004820152601660248201527f6e6577206f776e65722069732030206164647265737300000000000000000000604482015290519081900360640190fd5b600080546040516001600160a01b03808516939216917fb59bab42c554cfd49f4f001c983b6ed93ede25748b10114b7d1cb1b3c97df7af91a3600180546001600160a01b0319166001600160a01b0392909216919091179055565b6002546001600160a01b03166103c3610a6a565b6001600160a01b0316146104195760408051600160e51b62461bcd0281526020600482015260126024820152600160701b716f6e6c79526573657276654164647265737302604482015290519081900360640190fd5b6001600160a01b038216600090815260036020526040902054610442908263ffffffff610a6e16565b6001600160a01b0390921660009081526003602052604090209190915550565b6002546001600160a01b0316610476610a6a565b6001600160a01b0316146104cc5760408051600160e51b62461bcd0281526020600482015260126024820152600160701b716f6e6c79526573657276654164647265737302604482015290519081900360640190fd5b6001600160a01b0392831660009081526004602090815260408083209490951682529290925291902055565b6105006109f6565b6060604051806060016040528060358152602001610baa603591399050806040516020018082805190602001908083835b602083106105505780518252601f199092019160209182019101610531565b6001836020036101000a03801982511681845116808217855250505050505090500191505060405160208183030381529060405280519060200120838360405160200180838380828437808301925050509250505060405160208183030381529060405280519060200120146106105760408051600160e51b62461bcd02815260206004820152601560248201527f6465636c61726174696f6e20696e636f72726563740000000000000000000000604482015290519081900360640190fd5b600080546040516001600160a01b03909116907f8be0079c531659141344cd1fd0a4f28419497f9722a3daafe3b4186f6b6457e0908390a35050600080546001600160a01b031916905550565b6001546001600160a01b031690565b600460209081526000928352604080842090915290825290205481565b610691610a6a565b6001546001600160a01b039081169116146106f65760408051600160e51b62461bcd02815260206004820152600c60248201527f756e617574686f72697a65640000000000000000000000000000000000000000604482015290519081900360640190fd5b600154600080546040516001600160a01b0393841693909116917f8be0079c531659141344cd1fd0a4f28419497f9722a3daafe3b4186f6b6457e091a3600154600080546001600160a01b0319166001600160a01b03909216919091179055565b6000546001600160a01b031690565b6002546001600160a01b031661077a610a6a565b6001600160a01b0316146107d05760408051600160e51b62461bcd0281526020600482015260126024820152600160701b716f6e6c79526573657276654164647265737302604482015290519081900360640190fd5b6001600160a01b038216600090815260036020526040902054610442908263ffffffff610ad216565b6002546001600160a01b031661080d610a6a565b6001600160a01b0316146108635760408051600160e51b62461bcd0281526020600482015260126024820152600160701b716f6e6c79526573657276654164647265737302604482015290519081900360640190fd5b6001600160a01b03909116600090815260036020526040902055565b60036020526000908152604090205481565b6002546001600160a01b031681565b6001600160a01b0381166108fe5760408051600160e51b62461bcd02815260206004820152600c60248201527f7a65726f20616464726573730000000000000000000000000000000000000000604482015290519081900360640190fd5b6002546001600160a01b0316610912610a6a565b6001600160a01b03161480610946575061092a610757565b6001600160a01b031661093b610a6a565b6001600160a01b0316145b61099a5760408051600160e51b62461bcd02815260206004820152600e60248201527f6e6f7420617574686f72697a6564000000000000000000000000000000000000604482015290519081900360640190fd5b6002546040516001600160a01b038084169216907feb667ad87f8e94a71252d18843f339e739a788f5641fd00d1404d93f4e54753490600090a3600280546001600160a01b0319166001600160a01b0392909216919091179055565b6000546001600160a01b0316610a0a610a6a565b6001600160a01b031614610a685760408051600160e51b62461bcd02815260206004820152601360248201527f63616c6c6572206973206e6f74206f776e657200000000000000000000000000604482015290519081900360640190fd5b565b3390565b600082820183811015610acb5760408051600160e51b62461bcd02815260206004820152601b60248201527f536166654d6174683a206164646974696f6e206f766572666c6f770000000000604482015290519081900360640190fd5b9392505050565b6000610acb83836040518060400160405280601e81526020017f536166654d6174683a207375627472616374696f6e206f766572666c6f77000081525060008184841115610ba157604051600160e51b62461bcd0281526004018080602001828103825283818151815260200191508051906020019080838360005b83811015610b66578181015183820152602001610b4e565b50505050905090810190601f168015610b935780820380516001836020036101000a031916815260200191505b509250505060405180910390fd5b50505090039056fe49206865726562792072656e6f756e6365206f776e657273686970206f66207468697320636f6e747261637420666f72657665722ea165627a7a72305820fb2335e6fce5aa23d78ca2c48895bfb56c49fd584fa78ec531f5590b1b62ce7f0029",
  "source": "pragma solidity 0.5.7;\n\nimport \"../rsv/Reserve.sol\";\nimport \"../rsv/ReserveEternalStorage.sol\";\n\n/**\n * @dev A version of the Reserve Token for testing upgrades.\n */\ncontract ReserveV2 is Reserve {\n\n    function completeHandoff(address previousImplementation) external onlyOwner {\n        Reserve previous = Reserve(previousImplementation);\n        trustedData = ReserveEternalStorage(previous.getEternalStorageAddress());\n        // Unpause.\n        paused = false;\n        emit Unpaused(pauser);\n\n        previous.acceptOwnership();\n\n        // Take control of Eternal Storage.\n        previous.changePauser(address(this));\n        previous.pause();\n        previous.transferEternalStorage(address(this));\n\n        // Burn the bridge behind us.\n        previous.changeMinter(address(0));\n        previous.changePauser(address(0));\n        previous.renounceOwnership(\"I hereby renounce ownership of this contract forever.\");\n    }\n}\n",
  "sourcePath": "/Users/taylorbrent/reserve/simple-portal/contracts/test/ReserveV2.sol",
  "compiler": {
    "name": "solc",
    "version": "0.5.7+commit.6da8b019.Emscripten.clang"
  },
  "schemaVersion": "3.0.17",
  "updatedAt": "2019-12-12T00:07:39.155Z",
  "devdoc": {
    "details": "A version of the Reserve Token for testing upgrades.",
    "methods": {
      "acceptOwnership()": {
        "details": "Accepts ownership of the contract."
      },
      "allowance(address,address)": {
        "return": "how many attoRSV `holder` has allowed `spender` to control."
      },
      "approve(address,uint256)": {
        "params": {
          "spender": "address The address which will spend the funds.",
          "value": "uint256 How many attotokens to allow `spender` to spend."
        }
      },
      "balanceOf(address)": {
        "return": "how many attoRSV are held by `holder`."
      },
      "decreaseAllowance(address,uint256)": {
        "details": "From MonolithDAO Token.sol",
        "params": {
          "spender": "The address which will spend the funds.",
          "subtractedValue": "How many attotokens to decrease the allowance by."
        }
      },
      "increaseAllowance(address,uint256)": {
        "details": "From MonolithDAO Token.sol",
        "params": {
          "addedValue": "How many attotokens to increase the allowance by.",
          "spender": "The address which will spend the funds."
        }
      },
      "nominateNewOwner(address)": {
        "details": "Nominates a new owner `newOwner`. Requires a follow-up `acceptOwnership`. Can only be called by the current owner."
      },
      "nominatedOwner()": {
        "details": "Returns the address of the current nominated owner."
      },
      "owner()": {
        "details": "Returns the address of the current owner."
      },
      "transferFrom(address,address,uint256)": {
        "params": {
          "from": "address The address to send tokens from.",
          "to": "address The address to send tokens to.",
          "value": "uint256 The number of attotokens to send."
        }
      }
    }
  },
  "userdoc": {
    "methods": {
      "approve(address,uint256)": {
        "notice": "Approve `spender` to spend `value` attotokens on behalf of `msg.sender`.     * Beware that changing a nonzero allowance with this method brings the risk that someone may use both the old and the new allowance by unfortunate transaction ordering. One way to mitigate this risk is to first reduce the spender's allowance to 0, and then set the desired value afterwards, per [this ERC-20 issue](https://github.com/ethereum/EIPs/issues/20#issuecomment-263524729).     * A simpler workaround is to use `increaseAllowance` or `decreaseAllowance`, below."
      },
      "burnFrom(address,uint256)": {
        "notice": "Burn `value` attotokens from `account`, if sender has that much allowance from `account`."
      },
      "changeMaxSupply(uint256)": {
        "notice": "Change the maximum supply allowed."
      },
      "changeMinter(address)": {
        "notice": "Change who holds the `minter` role."
      },
      "changePauser(address)": {
        "notice": "Change who holds the `pauser` role."
      },
      "changeTxFeeHelper(address)": {
        "notice": "Change the contract that helps with transaction fee calculation."
      },
      "decreaseAllowance(address,uint256)": {
        "notice": "Decrease `spender`'s allowance of the sender's tokens."
      },
      "getEternalStorageAddress()": {
        "notice": "Accessor for eternal storage contract address."
      },
      "increaseAllowance(address,uint256)": {
        "notice": "Increase `spender`'s allowance of the sender's tokens."
      },
      "mint(address,uint256)": {
        "notice": "Mint `value` new attotokens to `account`."
      },
      "pause()": {
        "notice": "Pause the contract."
      },
      "renounceOwnership(string)": {
        "notice": "Set `_owner` to the 0 address. Only do this to deliberately lock in the current permissions.     * THIS CANNOT BE UNDONE! Call this only if you know what you're doing and why you're doing it!"
      },
      "transfer(address,uint256)": {
        "notice": "Transfer `value` attoRSV from `msg.sender` to `to`."
      },
      "transferEternalStorage(address)": {
        "notice": "Make a different address the EternalStorage contract's reserveAddress. This will break this contract, so only do it if you're abandoning this contract, e.g., for an upgrade."
      },
      "transferFrom(address,address,uint256)": {
        "notice": "Transfer approved tokens from one address to another."
      },
      "unpause()": {
        "notice": "Unpause the contract."
      }
    }
  }
}