{
  "contractName": "Reserve",
  "abi": [
    {
      "constant": true,
      "inputs": [],
      "name": "name",
      "outputs": [
        {
          "name": "",
          "type": "string"
        }
      ],
      "payable": false,
      "stateMutability": "view",
      "type": "function"
    },
    {
      "constant": true,
      "inputs": [],
      "name": "minter",
      "outputs": [
        {
          "name": "",
          "type": "address"
        }
      ],
      "payable": false,
      "stateMutability": "view",
      "type": "function"
    },
    {
      "constant": false,
      "inputs": [
        {
          "name": "newOwner",
          "type": "address"
        }
      ],
      "name": "nominateNewOwner",
      "outputs": [],
      "payable": false,
      "stateMutability": "nonpayable",
      "type": "function"
    },
    {
      "constant": true,
      "inputs": [],
      "name": "totalSupply",
      "outputs": [
        {
          "name": "",
          "type": "uint256"
        }
      ],
      "payable": false,
      "stateMutability": "view",
      "type": "function"
    },
    {
      "constant": true,
      "inputs": [],
      "name": "decimals",
      "outputs": [
        {
          "name": "",
          "type": "uint8"
        }
      ],
      "payable": false,
      "stateMutability": "view",
      "type": "function"
    },
    {
      "constant": true,
      "inputs": [],
      "name": "feeRecipient",
      "outputs": [
        {
          "name": "",
          "type": "address"
        }
      ],
      "payable": false,
      "stateMutability": "view",
      "type": "function"
    },
    {
      "constant": false,
      "inputs": [
        {
          "name": "declaration",
          "type": "string"
        }
      ],
      "name": "renounceOwnership",
      "outputs": [],
      "payable": false,
      "stateMutability": "nonpayable",
      "type": "function"
    },
    {
      "constant": true,
      "inputs": [],
      "name": "nominatedOwner",
      "outputs": [
        {
          "name": "",
          "type": "address"
        }
      ],
      "payable": false,
      "stateMutability": "view",
      "type": "function"
    },
    {
      "constant": true,
      "inputs": [],
      "name": "paused",
      "outputs": [
        {
          "name": "",
          "type": "bool"
        }
      ],
      "payable": false,
      "stateMutability": "view",
      "type": "function"
    },
    {
      "constant": false,
      "inputs": [],
      "name": "acceptOwnership",
      "outputs": [],
      "payable": false,
      "stateMutability": "nonpayable",
      "type": "function"
    },
    {
      "constant": true,
      "inputs": [],
      "name": "owner",
      "outputs": [
        {
          "name": "",
          "type": "address"
        }
      ],
      "payable": false,
      "stateMutability": "view",
      "type": "function"
    },
    {
      "constant": true,
      "inputs": [],
      "name": "symbol",
      "outputs": [
        {
          "name": "",
          "type": "string"
        }
      ],
      "payable": false,
      "stateMutability": "view",
      "type": "function"
    },
    {
      "constant": true,
      "inputs": [],
      "name": "pauser",
      "outputs": [
        {
          "name": "",
          "type": "address"
        }
      ],
      "payable": false,
      "stateMutability": "view",
      "type": "function"
    },
    {
      "constant": true,
      "inputs": [],
      "name": "trustedTxFee",
      "outputs": [
        {
          "name": "",
          "type": "address"
        }
      ],
      "payable": false,
      "stateMutability": "view",
      "type": "function"
    },
    {
      "constant": true,
      "inputs": [],
      "name": "maxSupply",
      "outputs": [
        {
          "name": "",
          "type": "uint256"
        }
      ],
      "payable": false,
      "stateMutability": "view",
      "type": "function"
    },
    {
      "inputs": [],
      "payable": false,
      "stateMutability": "nonpayable",
      "type": "constructor"
    },
    {
      "anonymous": false,
      "inputs": [
        {
          "indexed": true,
          "name": "newMinter",
          "type": "address"
        }
      ],
      "name": "MinterChanged",
      "type": "event"
    },
    {
      "anonymous": false,
      "inputs": [
        {
          "indexed": true,
          "name": "newPauser",
          "type": "address"
        }
      ],
      "name": "PauserChanged",
      "type": "event"
    },
    {
      "anonymous": false,
      "inputs": [
        {
          "indexed": true,
          "name": "newFeeRecipient",
          "type": "address"
        }
      ],
      "name": "FeeRecipientChanged",
      "type": "event"
    },
    {
      "anonymous": false,
      "inputs": [
        {
          "indexed": true,
          "name": "newMaxSupply",
          "type": "uint256"
        }
      ],
      "name": "MaxSupplyChanged",
      "type": "event"
    },
    {
      "anonymous": false,
      "inputs": [
        {
          "indexed": true,
          "name": "newReserveAddress",
          "type": "address"
        }
      ],
      "name": "EternalStorageTransferred",
      "type": "event"
    },
    {
      "anonymous": false,
      "inputs": [
        {
          "indexed": true,
          "name": "newTxFeeHelper",
          "type": "address"
        }
      ],
      "name": "TxFeeHelperChanged",
      "type": "event"
    },
    {
      "anonymous": false,
      "inputs": [
        {
          "indexed": true,
          "name": "account",
          "type": "address"
        }
      ],
      "name": "Paused",
      "type": "event"
    },
    {
      "anonymous": false,
      "inputs": [
        {
          "indexed": true,
          "name": "account",
          "type": "address"
        }
      ],
      "name": "Unpaused",
      "type": "event"
    },
    {
      "anonymous": false,
      "inputs": [
        {
          "indexed": true,
          "name": "previousOwner",
          "type": "address"
        },
        {
          "indexed": true,
          "name": "nominee",
          "type": "address"
        }
      ],
      "name": "NewOwnerNominated",
      "type": "event"
    },
    {
      "anonymous": false,
      "inputs": [
        {
          "indexed": true,
          "name": "previousOwner",
          "type": "address"
        },
        {
          "indexed": true,
          "name": "newOwner",
          "type": "address"
        }
      ],
      "name": "OwnershipTransferred",
      "type": "event"
    },
    {
      "anonymous": false,
      "inputs": [
        {
          "indexed": true,
          "name": "from",
          "type": "address"
        },
        {
          "indexed": true,
          "name": "to",
          "type": "address"
        },
        {
          "indexed": false,
          "name": "value",
          "type": "uint256"
        }
      ],
      "name": "Transfer",
      "type": "event"
    },
    {
      "anonymous": false,
      "inputs": [
        {
          "indexed": true,
          "name": "owner",
          "type": "address"
        },
        {
          "indexed": true,
          "name": "spender",
          "type": "address"
        },
        {
          "indexed": false,
          "name": "value",
          "type": "uint256"
        }
      ],
      "name": "Approval",
      "type": "event"
    },
    {
      "constant": true,
      "inputs": [],
      "name": "getEternalStorageAddress",
      "outputs": [
        {
          "name": "",
          "type": "address"
        }
      ],
      "payable": false,
      "stateMutability": "view",
      "type": "function"
    },
    {
      "constant": false,
      "inputs": [
        {
          "name": "newMinter",
          "type": "address"
        }
      ],
      "name": "changeMinter",
      "outputs": [],
      "payable": false,
      "stateMutability": "nonpayable",
      "type": "function"
    },
    {
      "constant": false,
      "inputs": [
        {
          "name": "newPauser",
          "type": "address"
        }
      ],
      "name": "changePauser",
      "outputs": [],
      "payable": false,
      "stateMutability": "nonpayable",
      "type": "function"
    },
    {
      "constant": false,
      "inputs": [
        {
          "name": "newFeeRecipient",
          "type": "address"
        }
      ],
      "name": "changeFeeRecipient",
      "outputs": [],
      "payable": false,
      "stateMutability": "nonpayable",
      "type": "function"
    },
    {
      "constant": false,
      "inputs": [
        {
          "name": "newReserveAddress",
          "type": "address"
        }
      ],
      "name": "transferEternalStorage",
      "outputs": [],
      "payable": false,
      "stateMutability": "nonpayable",
      "type": "function"
    },
    {
      "constant": false,
      "inputs": [
        {
          "name": "newTrustedTxFee",
          "type": "address"
        }
      ],
      "name": "changeTxFeeHelper",
      "outputs": [],
      "payable": false,
      "stateMutability": "nonpayable",
      "type": "function"
    },
    {
      "constant": false,
      "inputs": [
        {
          "name": "newMaxSupply",
          "type": "uint256"
        }
      ],
      "name": "changeMaxSupply",
      "outputs": [],
      "payable": false,
      "stateMutability": "nonpayable",
      "type": "function"
    },
    {
      "constant": false,
      "inputs": [],
      "name": "pause",
      "outputs": [],
      "payable": false,
      "stateMutability": "nonpayable",
      "type": "function"
    },
    {
      "constant": false,
      "inputs": [],
      "name": "unpause",
      "outputs": [],
      "payable": false,
      "stateMutability": "nonpayable",
      "type": "function"
    },
    {
      "constant": true,
      "inputs": [
        {
          "name": "holder",
          "type": "address"
        }
      ],
      "name": "balanceOf",
      "outputs": [
        {
          "name": "",
          "type": "uint256"
        }
      ],
      "payable": false,
      "stateMutability": "view",
      "type": "function"
    },
    {
      "constant": true,
      "inputs": [
        {
          "name": "holder",
          "type": "address"
        },
        {
          "name": "spender",
          "type": "address"
        }
      ],
      "name": "allowance",
      "outputs": [
        {
          "name": "",
          "type": "uint256"
        }
      ],
      "payable": false,
      "stateMutability": "view",
      "type": "function"
    },
    {
      "constant": false,
      "inputs": [
        {
          "name": "to",
          "type": "address"
        },
        {
          "name": "value",
          "type": "uint256"
        }
      ],
      "name": "transfer",
      "outputs": [
        {
          "name": "",
          "type": "bool"
        }
      ],
      "payable": false,
      "stateMutability": "nonpayable",
      "type": "function"
    },
    {
      "constant": false,
      "inputs": [
        {
          "name": "spender",
          "type": "address"
        },
        {
          "name": "value",
          "type": "uint256"
        }
      ],
      "name": "approve",
      "outputs": [
        {
          "name": "",
          "type": "bool"
        }
      ],
      "payable": false,
      "stateMutability": "nonpayable",
      "type": "function"
    },
    {
      "constant": false,
      "inputs": [
        {
          "name": "from",
          "type": "address"
        },
        {
          "name": "to",
          "type": "address"
        },
        {
          "name": "value",
          "type": "uint256"
        }
      ],
      "name": "transferFrom",
      "outputs": [
        {
          "name": "",
          "type": "bool"
        }
      ],
      "payable": false,
      "stateMutability": "nonpayable",
      "type": "function"
    },
    {
      "constant": false,
      "inputs": [
        {
          "name": "spender",
          "type": "address"
        },
        {
          "name": "addedValue",
          "type": "uint256"
        }
      ],
      "name": "increaseAllowance",
      "outputs": [
        {
          "name": "",
          "type": "bool"
        }
      ],
      "payable": false,
      "stateMutability": "nonpayable",
      "type": "function"
    },
    {
      "constant": false,
      "inputs": [
        {
          "name": "spender",
          "type": "address"
        },
        {
          "name": "subtractedValue",
          "type": "uint256"
        }
      ],
      "name": "decreaseAllowance",
      "outputs": [
        {
          "name": "",
          "type": "bool"
        }
      ],
      "payable": false,
      "stateMutability": "nonpayable",
      "type": "function"
    },
    {
      "constant": false,
      "inputs": [
        {
          "name": "account",
          "type": "address"
        },
        {
          "name": "value",
          "type": "uint256"
        }
      ],
      "name": "mint",
      "outputs": [],
      "payable": false,
      "stateMutability": "nonpayable",
      "type": "function"
    },
    {
      "constant": false,
      "inputs": [
        {
          "name": "account",
          "type": "address"
        },
        {
          "name": "value",
          "type": "uint256"
        }
      ],
      "name": "burnFrom",
      "outputs": [],
      "payable": false,
      "stateMutability": "nonpayable",
      "type": "function"
    }
  ],
  "bytecode": "0x60806040523480156200001157600080fd5b506000620000246200017060201b60201c565b600080546001600160a01b0319166001600160a01b0383169081178255604051929350917f8be0079c531659141344cd1fd0a4f28419497f9722a3daafe3b4186f6b6457e0908290a35060078054336001600160a01b031991821681179092556008805482169092179091556000196005556006805460ff19166001179055600380549091169055604051620000ba9062000174565b604051809103906000f080158015620000d7573d6000803e3d6000fd5b50600280546001600160a01b0319166001600160a01b039283161790819055604080517f1627540c00000000000000000000000000000000000000000000000000000000815233600482015290519190921691631627540c91602480830192600092919082900301818387803b1580156200015157600080fd5b505af115801562000166573d6000803e3d6000fd5b5050505062000182565b3390565b610ce7806200213483390190565b611fa280620001926000396000f3fe608060405234801561001057600080fd5b50600436106101fb5760003560e01c806353a47bb71161011a57806396cd5536116100ad578063ac5b54c21161007c578063ac5b54c2146105e6578063bdd1b96e1461060c578063d5abeb0114610614578063dd62ed3e1461061c578063fb5689661461064a576101fb565b806396cd5536146105605780639fd0506d14610586578063a457c2d71461058e578063a9059cbb146105ba576101fb565b806379cc6790116100e957806379cc67901461051c5780638456cb59146105485780638da5cb5b1461055057806395d89b4114610558576101fb565b806353a47bb7146104de5780635c975abb146104e657806370a08231146104ee57806379ba509714610514576101fb565b80632cd271e711610192578063404c7cdd11610161578063404c7cdd1461041d57806340c10f191461043a57806346904840146104665780634fdb7f441461046e576101fb565b80632cd271e7146103a5578063313ce567146103cb57806339509351146103e95780633f4ba83a14610415576101fb565b806318160ddd116101ce57806318160ddd14610309578063236040711461032357806323b872dd146103495780632c4d4d181461037f576101fb565b806306fdde0314610200578063075461721461027d578063095ea7b3146102a15780631627540c146102e1575b600080fd5b610208610652565b6040805160208082528351818301528351919283929083019185019080838360005b8381101561024257818101518382015260200161022a565b50505050905090810190601f16801561026f5780820380516001836020036101000a031916815260200191505b509250505060405180910390f35b610285610678565b604080516001600160a01b039092168252519081900360200190f35b6102cd600480360360408110156102b757600080fd5b506001600160a01b03813516906020013561068c565b604080519115158252519081900360200190f35b610307600480360360208110156102f757600080fd5b50356001600160a01b03166106ec565b005b6103116107ad565b60408051918252519081900360200190f35b6103076004803603602081101561033957600080fd5b50356001600160a01b03166107b3565b6102cd6004803603606081101561035f57600080fd5b506001600160a01b0381358116916020810135909116906040013561088d565b6103076004803603602081101561039557600080fd5b50356001600160a01b031661098f565b610307600480360360208110156103bb57600080fd5b50356001600160a01b0316610a76565b6103d3610b50565b6040805160ff9092168252519081900360200190f35b6102cd600480360360408110156103ff57600080fd5b506001600160a01b038135169060200135610b55565b610307610c3e565b6103076004803603602081101561043357600080fd5b5035610cd4565b6103076004803603604081101561045057600080fd5b506001600160a01b038135169060200135610d0f565b610285610f20565b6103076004803603602081101561048457600080fd5b81019060208101813564010000000081111561049f57600080fd5b8201836020820111156104b157600080fd5b803590602001918460018302840111640100000000831117156104d357600080fd5b509092509050610f2f565b610285611094565b6102cd6110a3565b6103116004803603602081101561050457600080fd5b50356001600160a01b03166110ac565b610307611132565b6103076004803603604081101561053257600080fd5b506001600160a01b038135169060200135611200565b610307611312565b6102856113ab565b6102086113ba565b6103076004803603602081101561057657600080fd5b50356001600160a01b03166113dc565b61028561153c565b6102cd600480360360408110156105a457600080fd5b506001600160a01b03813516906020013561154b565b6102cd600480360360408110156105d057600080fd5b506001600160a01b0381351690602001356115fc565b610307600480360360208110156105fc57600080fd5b50356001600160a01b0316611653565b6102856116a5565b6103116116b4565b6103116004803603604081101561063257600080fd5b506001600160a01b03813581169160200135166116ba565b610285611749565b604051806040016040528060078152602001600160c81b66526573657276650281525081565b60065461010090046001600160a01b031681565b60065460009060ff16156106d85760408051600160e51b62461bcd0281526020600482015260126024820152600080516020611f17833981519152604482015290519081900360640190fd5b6106e3338484611758565b50600192915050565b6106f46118d3565b6001600160a01b0381166107525760408051600160e51b62461bcd02815260206004820152601660248201527f6e6577206f776e65722069732030206164647265737300000000000000000000604482015290519081900360640190fd5b600080546040516001600160a01b03808516939216917fb59bab42c554cfd49f4f001c983b6ed93ede25748b10114b7d1cb1b3c97df7af91a3600180546001600160a01b0319166001600160a01b0392909216919091179055565b60045481565b6008546001600160a01b03166107c76113ab565b6001600160a01b0316336001600160a01b031614806107ee5750336001600160a01b038216145b6108425760408051600160e51b62461bcd02815260206004820152601f60248201527f756e617574686f72697a65643a206e6f74206f776e6572206f7220726f6c6500604482015290519081900360640190fd5b600880546001600160a01b0319166001600160a01b0384169081179091556040517f167cccccc6e9b2892a740ec13fc1e51d3de8ea384f25bd87fee7412d588637e290600090a25050565b60065460009060ff16156108d95760408051600160e51b62461bcd0281526020600482015260126024820152600080516020611f17833981519152604482015290519081900360640190fd5b6108e4848484611947565b60025460408051600160e01b635c6581650281526001600160a01b0380881660048301523360248301819052925161098594899493610980938993921691635c65816591604480820192602092909190829003018186803b15801561094857600080fd5b505afa15801561095c573d6000803e3d6000fd5b505050506040513d602081101561097257600080fd5b50519063ffffffff611c8116565b611758565b5060019392505050565b60065461010090046001600160a01b03166109a86113ab565b6001600160a01b0316336001600160a01b031614806109cf5750336001600160a01b038216145b610a235760408051600160e51b62461bcd02815260206004820152601f60248201527f756e617574686f72697a65643a206e6f74206f776e6572206f7220726f6c6500604482015290519081900360640190fd5b60068054610100600160a81b0319166101006001600160a01b038516908102919091179091556040517fb6b8f1859c5c352e5ffad07d0f77e384ac725512c015bd3a3ffc885831c8a42590600090a25050565b6007546001600160a01b0316610a8a6113ab565b6001600160a01b0316336001600160a01b03161480610ab15750336001600160a01b038216145b610b055760408051600160e51b62461bcd02815260206004820152601f60248201527f756e617574686f72697a65643a206e6f74206f776e6572206f7220726f6c6500604482015290519081900360640190fd5b600780546001600160a01b0319166001600160a01b0384169081179091556040517fb80482a293ca2e013eda8683c9bd7fc8347cfdaeea5ede58cba46df502c2a60490600090a25050565b601281565b60065460009060ff1615610ba15760408051600160e51b62461bcd0281526020600482015260126024820152600080516020611f17833981519152604482015290519081900360640190fd5b60025460408051600160e01b635c65816502815233600482018190526001600160a01b03808816602484015292516106e39491938893610980938993921691635c65816591604480820192602092909190829003018186803b158015610c0657600080fd5b505afa158015610c1a573d6000803e3d6000fd5b505050506040513d6020811015610c3057600080fd5b50519063ffffffff611cca16565b6007546001600160a01b0316338114610c8f5760408051600160e51b62461bcd02815260206004820152601d6024820152600080516020611f57833981519152604482015290519081900360640190fd5b6006805460ff191690556007546040516001600160a01b03909116907f5db9ee0a495bf2e6ff9c91a7834c1ba4fdd244a5e8aa4e537bd38aeae4b073aa90600090a250565b610cdc6118d3565b600581905560405181907f28a10a2e0b5582da7164754cb994f6214b8af6aa7f7e003305fbc09e7106c51390600090a250565b60065460ff1615610d585760408051600160e51b62461bcd0281526020600482015260126024820152600080516020611f17833981519152604482015290519081900360640190fd5b60065461010090046001600160a01b0316338114610dae5760408051600160e51b62461bcd02815260206004820152601d6024820152600080516020611f57833981519152604482015290519081900360640190fd5b6001600160a01b038316610e0c5760408051600160e51b62461bcd02815260206004820152601a60248201527f63616e2774206d696e7420746f2061646472657373207a65726f000000000000604482015290519081900360640190fd5b600454610e1f908363ffffffff611cca16565b600481905560055411610e7c5760408051600160e51b62461bcd02815260206004820152601360248201527f6d617820737570706c7920657863656564656400000000000000000000000000604482015290519081900360640190fd5b60025460408051600160e11b6310f29c1d0281526001600160a01b03868116600483015260248201869052915191909216916321e5383a91604480830192600092919082900301818387803b158015610ed457600080fd5b505af1158015610ee8573d6000803e3d6000fd5b50506040805185815290516001600160a01b038716935060009250600080516020611f378339815191529181900360200190a3505050565b6008546001600160a01b031681565b610f376118d3565b6060604051806060016040528060358152602001611ee2603591399050806040516020018082805190602001908083835b60208310610f875780518252601f199092019160209182019101610f68565b6001836020036101000a03801982511681845116808217855250505050505090500191505060405160208183030381529060405280519060200120838360405160200180838380828437808301925050509250505060405160208183030381529060405280519060200120146110475760408051600160e51b62461bcd02815260206004820152601560248201527f6465636c61726174696f6e20696e636f72726563740000000000000000000000604482015290519081900360640190fd5b600080546040516001600160a01b03909116907f8be0079c531659141344cd1fd0a4f28419497f9722a3daafe3b4186f6b6457e0908390a35050600080546001600160a01b031916905550565b6001546001600160a01b031690565b60065460ff1681565b60025460408051600160e01b63e3d670d70281526001600160a01b0384811660048301529151600093929092169163e3d670d791602480820192602092909190829003018186803b15801561110057600080fd5b505afa158015611114573d6000803e3d6000fd5b505050506040513d602081101561112a57600080fd5b505192915050565b61113a611d27565b6001546001600160a01b0390811691161461119f5760408051600160e51b62461bcd02815260206004820152600c60248201527f756e617574686f72697a65640000000000000000000000000000000000000000604482015290519081900360640190fd5b600154600080546040516001600160a01b0393841693909116917f8be0079c531659141344cd1fd0a4f28419497f9722a3daafe3b4186f6b6457e091a3600154600080546001600160a01b0319166001600160a01b03909216919091179055565b60065460ff16156112495760408051600160e51b62461bcd0281526020600482015260126024820152600080516020611f17833981519152604482015290519081900360640190fd5b60065461010090046001600160a01b031633811461129f5760408051600160e51b62461bcd02815260206004820152601d6024820152600080516020611f57833981519152604482015290519081900360640190fd5b6112a98383611d2b565b60025460408051600160e01b635c6581650281526001600160a01b0380871660048301523360248301819052925161130d94889493610980938993921691635c65816591604480820192602092909190829003018186803b15801561094857600080fd5b505050565b6007546001600160a01b03163381146113635760408051600160e51b62461bcd02815260206004820152601d6024820152600080516020611f57833981519152604482015290519081900360640190fd5b6006805460ff191660011790556007546040516001600160a01b03909116907f62e78cea01bee320cd4e420270b5ea74000d11b0c9f74754ebdbfc544b05a25890600090a250565b6000546001600160a01b031690565b604051806040016040528060038152602001600160e91b622929ab0281525081565b6113e46118d3565b60065460ff1661143e5760408051600160e51b62461bcd02815260206004820152601660248201527f636f6e7472616374206973206e6f742070617573656400000000000000000000604482015290519081900360640190fd5b6001600160a01b03811661149c5760408051600160e51b62461bcd02815260206004820152600c60248201527f7a65726f20616464726573730000000000000000000000000000000000000000604482015290519081900360640190fd5b6040516001600160a01b038216907f170ee3488a79c35a0d86eff88a7857910c11193864052c0323ad49222232a2d790600090a260025460408051600160e31b631f095fa90281526001600160a01b0384811660048301529151919092169163f84afd4891602480830192600092919082900301818387803b15801561152157600080fd5b505af1158015611535573d6000803e3d6000fd5b5050505050565b6007546001600160a01b031681565b60065460009060ff16156115975760408051600160e51b62461bcd0281526020600482015260126024820152600080516020611f17833981519152604482015290519081900360640190fd5b60025460408051600160e01b635c65816502815233600482018190526001600160a01b03808816602484015292516106e39491938893610980938993921691635c65816591604480820192602092909190829003018186803b15801561094857600080fd5b60065460009060ff16156116485760408051600160e51b62461bcd0281526020600482015260126024820152600080516020611f17833981519152604482015290519081900360640190fd5b6106e3338484611947565b61165b6118d3565b600380546001600160a01b0319166001600160a01b0383169081179091556040517fe554fc9a6ce410c9b9537cefc8440997bdbd03a2a87193c1a7f4ee085188ced190600090a250565b6003546001600160a01b031681565b60055481565b60025460408051600160e01b635c6581650281526001600160a01b038581166004830152848116602483015291516000939290921691635c65816591604480820192602092909190829003018186803b15801561171657600080fd5b505afa15801561172a573d6000803e3d6000fd5b505050506040513d602081101561174057600080fd5b50519392505050565b6002546001600160a01b031690565b6001600160a01b0382166117b65760408051600160e51b62461bcd02815260206004820152601e60248201527f7370656e6465722063616e6e6f742062652061646472657373207a65726f0000604482015290519081900360640190fd5b6001600160a01b0383166118145760408051600160e51b62461bcd02815260206004820152601d60248201527f686f6c6465722063616e6e6f742062652061646472657373207a65726f000000604482015290519081900360640190fd5b60025460408051600160e11b6319ee8dc50281526001600160a01b038681166004830152858116602483015260448201859052915191909216916333dd1b8a91606480830192600092919082900301818387803b15801561187457600080fd5b505af1158015611888573d6000803e3d6000fd5b50506040805184815290516001600160a01b038087169450871692507f8c5be1e5ebec7d5bd14f71427d1e84f3dd0314c0f7b2291e5b200ac8c7c3b9259181900360200190a3505050565b6000546001600160a01b03166118e7611d27565b6001600160a01b0316146119455760408051600160e51b62461bcd02815260206004820152601360248201527f63616c6c6572206973206e6f74206f776e657200000000000000000000000000604482015290519081900360640190fd5b565b6001600160a01b0382166119a55760408051600160e51b62461bcd02815260206004820152601e60248201527f63616e2774207472616e7366657220746f2061646472657373207a65726f0000604482015290519081900360640190fd5b60025460408051600160e11b6367c775bf0281526001600160a01b038681166004830152602482018590529151919092169163cf8eeb7e91604480830192600092919082900301818387803b1580156119fd57600080fd5b505af1158015611a11573d6000803e3d6000fd5b5050600354600092506001600160a01b0316159050611bba5760035460408051600160e11b633e543e5b0281526001600160a01b03878116600483015286811660248301526044820186905291519190921691637ca87cb69160648083019260209291908290030181600087803b158015611a8b57600080fd5b505af1158015611a9f573d6000803e3d6000fd5b505050506040513d6020811015611ab557600080fd5b5051905081811115611b115760408051600160e51b62461bcd02815260206004820152601d60248201527f7472616e73616374696f6e20666565206f7574206f6620626f756e6473000000604482015290519081900360640190fd5b60025460085460408051600160e11b6310f29c1d0281526001600160a01b03928316600482015260248101859052905191909216916321e5383a91604480830192600092919082900301818387803b158015611b6c57600080fd5b505af1158015611b80573d6000803e3d6000fd5b50506008546040805185815290516001600160a01b0392831694509188169250600080516020611f37833981519152919081900360200190a35b6002546001600160a01b03166321e5383a84611bdc858563ffffffff611c8116565b6040518363ffffffff1660e01b815260040180836001600160a01b03166001600160a01b0316815260200182815260200192505050600060405180830381600087803b158015611c2b57600080fd5b505af1158015611c3f573d6000803e3d6000fd5b5050506001600160a01b0384811691508516600080516020611f37833981519152611c6a8585611c81565b60408051918252519081900360200190a350505050565b6000611cc383836040518060400160405280601e81526020017f536166654d6174683a207375627472616374696f6e206f766572666c6f770000815250611e47565b9392505050565b600082820183811015611cc35760408051600160e51b62461bcd02815260206004820152601b60248201527f536166654d6174683a206164646974696f6e206f766572666c6f770000000000604482015290519081900360640190fd5b3390565b6001600160a01b038216611d895760408051600160e51b62461bcd02815260206004820152601c60248201527f63616e2774206275726e2066726f6d2061646472657373207a65726f00000000604482015290519081900360640190fd5b600454611d9c908263ffffffff611c8116565b600490815560025460408051600160e11b6367c775bf0281526001600160a01b0386811694820194909452602481018590529051929091169163cf8eeb7e9160448082019260009290919082900301818387803b158015611dfc57600080fd5b505af1158015611e10573d6000803e3d6000fd5b5050604080518481529051600093506001600160a01b0386169250600080516020611f378339815191529181900360200190a35050565b60008184841115611ed957604051600160e51b62461bcd0281526004018080602001828103825283818151815260200191508051906020019080838360005b83811015611e9e578181015183820152602001611e86565b50505050905090810190601f168015611ecb5780820380516001836020036101000a031916815260200191505b509250505060405180910390fd5b50505090039056fe49206865726562792072656e6f756e6365206f776e657273686970206f66207468697320636f6e747261637420666f72657665722e636f6e7472616374206973207061757365640000000000000000000000000000ddf252ad1be2c89b69c2b068fc378daa952ba7f163c4a11628f55a4df523b3ef756e617574686f72697a65643a206e6f7420726f6c6520686f6c646572000000a165627a7a723058201f966997b904a817261b04a719d26e88079885ba841f7af490a01a117534819b0029608060405234801561001057600080fd5b5060006100216100ca60201b60201c565b600080546001600160a01b0319166001600160a01b0383169081178255604051929350917f8be0079c531659141344cd1fd0a4f28419497f9722a3daafe3b4186f6b6457e0908290a3506100796100ca60201b60201c565b600280546001600160a01b0319166001600160a01b0392831617908190556040519116906000907feb667ad87f8e94a71252d18843f339e739a788f5641fd00d1404d93f4e547534908290a36100ce565b3390565b610c0a806100dd6000396000f3fe608060405234801561001057600080fd5b50600436106100cf5760003560e01c806379ba50971161008c578063e30443bc11610066578063e30443bc1461026e578063e3d670d71461029a578063f79ed94b146102c0578063f84afd48146102c8576100cf565b806379ba5097146102325780638da5cb5b1461023a578063cf8eeb7e14610242576100cf565b80631627540c146100d457806321e5383a146100fc57806333dd1b8a146101285780634fdb7f441461015e57806353a47bb7146101ce5780635c658165146101f2575b600080fd5b6100fa600480360360208110156100ea57600080fd5b50356001600160a01b03166102ee565b005b6100fa6004803603604081101561011257600080fd5b506001600160a01b0381351690602001356103af565b6100fa6004803603606081101561013e57600080fd5b506001600160a01b03813581169160208101359091169060400135610462565b6100fa6004803603602081101561017457600080fd5b81019060208101813564010000000081111561018f57600080fd5b8201836020820111156101a157600080fd5b803590602001918460018302840111640100000000831117156101c357600080fd5b5090925090506104f8565b6101d661065d565b604080516001600160a01b039092168252519081900360200190f35b6102206004803603604081101561020857600080fd5b506001600160a01b038135811691602001351661066c565b60408051918252519081900360200190f35b6100fa610689565b6101d6610757565b6100fa6004803603604081101561025857600080fd5b506001600160a01b038135169060200135610766565b6100fa6004803603604081101561028457600080fd5b506001600160a01b0381351690602001356107f9565b610220600480360360208110156102b057600080fd5b50356001600160a01b031661087f565b6101d6610891565b6100fa600480360360208110156102de57600080fd5b50356001600160a01b03166108a0565b6102f66109f6565b6001600160a01b0381166103545760408051600160e51b62461bcd02815260206004820152601660248201527f6e6577206f776e65722069732030206164647265737300000000000000000000604482015290519081900360640190fd5b600080546040516001600160a01b03808516939216917fb59bab42c554cfd49f4f001c983b6ed93ede25748b10114b7d1cb1b3c97df7af91a3600180546001600160a01b0319166001600160a01b0392909216919091179055565b6002546001600160a01b03166103c3610a6a565b6001600160a01b0316146104195760408051600160e51b62461bcd0281526020600482015260126024820152600160701b716f6e6c79526573657276654164647265737302604482015290519081900360640190fd5b6001600160a01b038216600090815260036020526040902054610442908263ffffffff610a6e16565b6001600160a01b0390921660009081526003602052604090209190915550565b6002546001600160a01b0316610476610a6a565b6001600160a01b0316146104cc5760408051600160e51b62461bcd0281526020600482015260126024820152600160701b716f6e6c79526573657276654164647265737302604482015290519081900360640190fd5b6001600160a01b0392831660009081526004602090815260408083209490951682529290925291902055565b6105006109f6565b6060604051806060016040528060358152602001610baa603591399050806040516020018082805190602001908083835b602083106105505780518252601f199092019160209182019101610531565b6001836020036101000a03801982511681845116808217855250505050505090500191505060405160208183030381529060405280519060200120838360405160200180838380828437808301925050509250505060405160208183030381529060405280519060200120146106105760408051600160e51b62461bcd02815260206004820152601560248201527f6465636c61726174696f6e20696e636f72726563740000000000000000000000604482015290519081900360640190fd5b600080546040516001600160a01b03909116907f8be0079c531659141344cd1fd0a4f28419497f9722a3daafe3b4186f6b6457e0908390a35050600080546001600160a01b031916905550565b6001546001600160a01b031690565b600460209081526000928352604080842090915290825290205481565b610691610a6a565b6001546001600160a01b039081169116146106f65760408051600160e51b62461bcd02815260206004820152600c60248201527f756e617574686f72697a65640000000000000000000000000000000000000000604482015290519081900360640190fd5b600154600080546040516001600160a01b0393841693909116917f8be0079c531659141344cd1fd0a4f28419497f9722a3daafe3b4186f6b6457e091a3600154600080546001600160a01b0319166001600160a01b03909216919091179055565b6000546001600160a01b031690565b6002546001600160a01b031661077a610a6a565b6001600160a01b0316146107d05760408051600160e51b62461bcd0281526020600482015260126024820152600160701b716f6e6c79526573657276654164647265737302604482015290519081900360640190fd5b6001600160a01b038216600090815260036020526040902054610442908263ffffffff610ad216565b6002546001600160a01b031661080d610a6a565b6001600160a01b0316146108635760408051600160e51b62461bcd0281526020600482015260126024820152600160701b716f6e6c79526573657276654164647265737302604482015290519081900360640190fd5b6001600160a01b03909116600090815260036020526040902055565b60036020526000908152604090205481565b6002546001600160a01b031681565b6001600160a01b0381166108fe5760408051600160e51b62461bcd02815260206004820152600c60248201527f7a65726f20616464726573730000000000000000000000000000000000000000604482015290519081900360640190fd5b6002546001600160a01b0316610912610a6a565b6001600160a01b03161480610946575061092a610757565b6001600160a01b031661093b610a6a565b6001600160a01b0316145b61099a5760408051600160e51b62461bcd02815260206004820152600e60248201527f6e6f7420617574686f72697a6564000000000000000000000000000000000000604482015290519081900360640190fd5b6002546040516001600160a01b038084169216907feb667ad87f8e94a71252d18843f339e739a788f5641fd00d1404d93f4e54753490600090a3600280546001600160a01b0319166001600160a01b0392909216919091179055565b6000546001600160a01b0316610a0a610a6a565b6001600160a01b031614610a685760408051600160e51b62461bcd02815260206004820152601360248201527f63616c6c6572206973206e6f74206f776e657200000000000000000000000000604482015290519081900360640190fd5b565b3390565b600082820183811015610acb5760408051600160e51b62461bcd02815260206004820152601b60248201527f536166654d6174683a206164646974696f6e206f766572666c6f770000000000604482015290519081900360640190fd5b9392505050565b6000610acb83836040518060400160405280601e81526020017f536166654d6174683a207375627472616374696f6e206f766572666c6f77000081525060008184841115610ba157604051600160e51b62461bcd0281526004018080602001828103825283818151815260200191508051906020019080838360005b83811015610b66578181015183820152602001610b4e565b50505050905090810190601f168015610b935780820380516001836020036101000a031916815260200191505b509250505060405180910390fd5b50505090039056fe49206865726562792072656e6f756e6365206f776e657273686970206f66207468697320636f6e747261637420666f72657665722ea165627a7a72305820fb2335e6fce5aa23d78ca2c48895bfb56c49fd584fa78ec531f5590b1b62ce7f0029",
  "source": "pragma solidity 0.5.7;\n\nimport \"../zeppelin/token/ERC20/IERC20.sol\";\nimport \"../zeppelin/math/SafeMath.sol\";\nimport \"../ownership/Ownable.sol\";\nimport \"./ReserveEternalStorage.sol\";\n\n/**\n * @title An interface representing a contract that calculates transaction fees\n */\n interface ITXFee {\n     function calculateFee(address from, address to, uint256 amount) external returns (uint256);\n }\n\n/**\n * @title The Reserve Token\n * @dev An ERC-20 token with minting, burning, pausing, and user freezing.\n * Based on OpenZeppelin's [implementation](https://github.com/OpenZeppelin/openzeppelin-solidity/blob/41aa39afbc13f0585634061701c883fe512a5469/contracts/token/ERC20/ERC20.sol).\n *\n * Non-constant-sized data is held in ReserveEternalStorage, to facilitate potential future upgrades.\n */\ncontract Reserve is IERC20, Ownable {\n    using SafeMath for uint256;\n\n\n    // ==== State ====\n\n\n    // Non-constant-sized data\n    ReserveEternalStorage internal trustedData;\n\n    // TX Fee helper contract\n    ITXFee public trustedTxFee;\n\n    // Basic token data\n    uint256 public totalSupply;\n    uint256 public maxSupply;\n\n    // Paused data\n    bool public paused;\n\n    // Auth roles\n    address public minter;\n    address public pauser;\n    address public feeRecipient;\n\n\n    // ==== Events, Constants, and Constructor ====\n\n\n    // Auth role change events\n    event MinterChanged(address indexed newMinter);\n    event PauserChanged(address indexed newPauser);\n    event FeeRecipientChanged(address indexed newFeeRecipient);\n    event MaxSupplyChanged(uint256 indexed newMaxSupply);\n    event EternalStorageTransferred(address indexed newReserveAddress);\n    event TxFeeHelperChanged(address indexed newTxFeeHelper);\n\n    // Pause events\n    event Paused(address indexed account);\n    event Unpaused(address indexed account);\n\n    // Basic information as constants\n    string public constant name = \"Reserve\";\n    string public constant symbol = \"RSV\";\n    uint8 public constant decimals = 18;\n\n    /// Initialize critical fields.\n    constructor() public {\n        pauser = msg.sender;\n        feeRecipient = msg.sender;\n        // minter defaults to the zero address.\n\n        maxSupply = 2 ** 256 - 1;\n        paused = true;\n\n        trustedTxFee = ITXFee(address(0));\n        trustedData = new ReserveEternalStorage();\n        trustedData.nominateNewOwner(msg.sender);\n    }\n\n    /// Accessor for eternal storage contract address.\n    function getEternalStorageAddress() external view returns(address) {\n        return address(trustedData);\n    }\n\n\n    // ==== Admin functions ====\n\n\n    /// Modifies a function to only run if sent by `role`.\n    modifier only(address role) {\n        require(msg.sender == role, \"unauthorized: not role holder\");\n        _;\n    }\n\n    /// Modifies a function to only run if sent by `role` or the contract's `owner`.\n    modifier onlyOwnerOr(address role) {\n        require(msg.sender == owner() || msg.sender == role, \"unauthorized: not owner or role\");\n        _;\n    }\n\n    /// Change who holds the `minter` role.\n    function changeMinter(address newMinter) external onlyOwnerOr(minter) {\n        minter = newMinter;\n        emit MinterChanged(newMinter);\n    }\n\n    /// Change who holds the `pauser` role.\n    function changePauser(address newPauser) external onlyOwnerOr(pauser) {\n        pauser = newPauser;\n        emit PauserChanged(newPauser);\n    }\n\n    function changeFeeRecipient(address newFeeRecipient) external onlyOwnerOr(feeRecipient) {\n        feeRecipient = newFeeRecipient;\n        emit FeeRecipientChanged(newFeeRecipient);\n    }\n\n    /// Make a different address the EternalStorage contract's reserveAddress.\n    /// This will break this contract, so only do it if you're\n    /// abandoning this contract, e.g., for an upgrade.\n    function transferEternalStorage(address newReserveAddress) external onlyOwner isPaused {\n        require(newReserveAddress != address(0), \"zero address\");\n        emit EternalStorageTransferred(newReserveAddress);\n        trustedData.updateReserveAddress(newReserveAddress);\n    }\n\n    /// Change the contract that helps with transaction fee calculation.\n    function changeTxFeeHelper(address newTrustedTxFee) external onlyOwner {\n        trustedTxFee = ITXFee(newTrustedTxFee);\n        emit TxFeeHelperChanged(newTrustedTxFee);\n    }\n\n    /// Change the maximum supply allowed.\n    function changeMaxSupply(uint256 newMaxSupply) external onlyOwner {\n        maxSupply = newMaxSupply;\n        emit MaxSupplyChanged(newMaxSupply);\n    }\n\n    /// Pause the contract.\n    function pause() external only(pauser) {\n        paused = true;\n        emit Paused(pauser);\n    }\n\n    /// Unpause the contract.\n    function unpause() external only(pauser) {\n        paused = false;\n        emit Unpaused(pauser);\n    }\n\n    /// Modifies a function to run only when the contract is paused.\n    modifier isPaused() {\n        require(paused, \"contract is not paused\");\n        _;\n    }\n\n    /// Modifies a function to run only when the contract is not paused.\n    modifier notPaused() {\n        require(!paused, \"contract is paused\");\n        _;\n    }\n\n\n    // ==== Token transfers, allowances, minting, and burning ====\n\n\n    /// @return how many attoRSV are held by `holder`.\n    function balanceOf(address holder) external view returns (uint256) {\n        return trustedData.balance(holder);\n    }\n\n    /// @return how many attoRSV `holder` has allowed `spender` to control.\n    function allowance(address holder, address spender) external view returns (uint256) {\n        return trustedData.allowed(holder, spender);\n    }\n\n    /// Transfer `value` attoRSV from `msg.sender` to `to`.\n    function transfer(address to, uint256 value)\n        external\n        notPaused\n        returns (bool)\n    {\n        _transfer(msg.sender, to, value);\n        return true;\n    }\n\n    /**\n     * Approve `spender` to spend `value` attotokens on behalf of `msg.sender`.\n     *\n     * Beware that changing a nonzero allowance with this method brings the risk that\n     * someone may use both the old and the new allowance by unfortunate transaction ordering. One\n     * way to mitigate this risk is to first reduce the spender's allowance\n     * to 0, and then set the desired value afterwards, per\n     * [this ERC-20 issue](https://github.com/ethereum/EIPs/issues/20#issuecomment-263524729).\n     *\n     * A simpler workaround is to use `increaseAllowance` or `decreaseAllowance`, below.\n     *\n     * @param spender address The address which will spend the funds.\n     * @param value uint256 How many attotokens to allow `spender` to spend.\n     */\n    function approve(address spender, uint256 value)\n        external\n        notPaused\n        returns (bool)\n    {\n        _approve(msg.sender, spender, value);\n        return true;\n    }\n\n    /// Transfer approved tokens from one address to another.\n    /// @param from address The address to send tokens from.\n    /// @param to address The address to send tokens to.\n    /// @param value uint256 The number of attotokens to send.\n    function transferFrom(address from, address to, uint256 value)\n        external\n        notPaused\n        returns (bool)\n    {\n        _transfer(from, to, value);\n        _approve(from, msg.sender, trustedData.allowed(from, msg.sender).sub(value));\n        return true;\n    }\n\n    /// Increase `spender`'s allowance of the sender's tokens.\n    /// @dev From MonolithDAO Token.sol\n    /// @param spender The address which will spend the funds.\n    /// @param addedValue How many attotokens to increase the allowance by.\n    function increaseAllowance(address spender, uint256 addedValue)\n        external\n        notPaused\n        returns (bool)\n    {\n        _approve(msg.sender, spender, trustedData.allowed(msg.sender, spender).add(addedValue));\n        return true;\n    }\n\n    /// Decrease `spender`'s allowance of the sender's tokens.\n    /// @dev From MonolithDAO Token.sol\n    /// @param spender The address which will spend the funds.\n    /// @param subtractedValue How many attotokens to decrease the allowance by.\n    function decreaseAllowance(address spender, uint256 subtractedValue)\n        external\n        notPaused\n        returns (bool)\n    {\n        _approve(\n            msg.sender,\n            spender,\n            trustedData.allowed(msg.sender, spender).sub(subtractedValue)\n        );\n        return true;\n    }\n\n    /// Mint `value` new attotokens to `account`.\n    function mint(address account, uint256 value)\n        external\n        notPaused\n        only(minter)\n    {\n        require(account != address(0), \"can't mint to address zero\");\n\n        totalSupply = totalSupply.add(value);\n        require(totalSupply < maxSupply, \"max supply exceeded\");\n        trustedData.addBalance(account, value);\n        emit Transfer(address(0), account, value);\n    }\n\n    /// Burn `value` attotokens from `account`, if sender has that much allowance from `account`.\n    function burnFrom(address account, uint256 value)\n        external\n        notPaused\n        only(minter)\n    {\n        _burn(account, value);\n        _approve(account, msg.sender, trustedData.allowed(account, msg.sender).sub(value));\n    }\n\n    /// @dev Transfer of `value` attotokens from `from` to `to`.\n    /// Internal; doesn't check permissions.\n    function _transfer(address from, address to, uint256 value) internal {\n        require(to != address(0), \"can't transfer to address zero\");\n        trustedData.subBalance(from, value);\n        uint256 fee = 0;\n\n        if (address(trustedTxFee) != address(0)) {\n            fee = trustedTxFee.calculateFee(from, to, value);\n            require(fee <= value, \"transaction fee out of bounds\");\n\n            trustedData.addBalance(feeRecipient, fee);\n            emit Transfer(from, feeRecipient, fee);\n        }\n\n        trustedData.addBalance(to, value.sub(fee));\n        emit Transfer(from, to, value.sub(fee));\n    }\n\n    /// @dev Burn `value` attotokens from `account`.\n    /// Internal; doesn't check permissions.\n    function _burn(address account, uint256 value) internal {\n        require(account != address(0), \"can't burn from address zero\");\n\n        totalSupply = totalSupply.sub(value);\n        trustedData.subBalance(account, value);\n        emit Transfer(account, address(0), value);\n    }\n\n    /// @dev Set `spender`'s allowance on `holder`'s tokens to `value` attotokens.\n    /// Internal; doesn't check permissions.\n    function _approve(address holder, address spender, uint256 value) internal {\n        require(spender != address(0), \"spender cannot be address zero\");\n        require(holder != address(0), \"holder cannot be address zero\");\n\n        trustedData.setAllowed(holder, spender, value);\n        emit Approval(holder, spender, value);\n    }\n}\n",
  "sourcePath": "/Users/taylorbrent/reserve/simple-portal/contracts/rsv/Reserve.sol",
  "compiler": {
    "name": "solc",
    "version": "0.5.7+commit.6da8b019.Emscripten.clang"
  },
  "schemaVersion": "3.0.17",
  "updatedAt": "2019-12-12T02:12:42.244Z",
  "networkType": "ethereum",
  "devdoc": {
    "details": "An ERC-20 token with minting, burning, pausing, and user freezing. Based on OpenZeppelin's [implementation](https://github.com/OpenZeppelin/openzeppelin-solidity/blob/41aa39afbc13f0585634061701c883fe512a5469/contracts/token/ERC20/ERC20.sol). * Non-constant-sized data is held in ReserveEternalStorage, to facilitate potential future upgrades.",
    "methods": {
      "acceptOwnership()": {
        "details": "Accepts ownership of the contract."
      },
      "allowance(address,address)": {
        "return": "how many attoRSV `holder` has allowed `spender` to control."
      },
      "approve(address,uint256)": {
        "params": {
          "spender": "address The address which will spend the funds.",
          "value": "uint256 How many attotokens to allow `spender` to spend."
        }
      },
      "balanceOf(address)": {
        "return": "how many attoRSV are held by `holder`."
      },
      "decreaseAllowance(address,uint256)": {
        "details": "From MonolithDAO Token.sol",
        "params": {
          "spender": "The address which will spend the funds.",
          "subtractedValue": "How many attotokens to decrease the allowance by."
        }
      },
      "increaseAllowance(address,uint256)": {
        "details": "From MonolithDAO Token.sol",
        "params": {
          "addedValue": "How many attotokens to increase the allowance by.",
          "spender": "The address which will spend the funds."
        }
      },
      "nominateNewOwner(address)": {
        "details": "Nominates a new owner `newOwner`. Requires a follow-up `acceptOwnership`. Can only be called by the current owner."
      },
      "nominatedOwner()": {
        "details": "Returns the address of the current nominated owner."
      },
      "owner()": {
        "details": "Returns the address of the current owner."
      },
      "transferFrom(address,address,uint256)": {
        "params": {
          "from": "address The address to send tokens from.",
          "to": "address The address to send tokens to.",
          "value": "uint256 The number of attotokens to send."
        }
      }
    },
    "title": "The Reserve Token"
  },
  "userdoc": {
    "methods": {
      "approve(address,uint256)": {
        "notice": "Approve `spender` to spend `value` attotokens on behalf of `msg.sender`.     * Beware that changing a nonzero allowance with this method brings the risk that someone may use both the old and the new allowance by unfortunate transaction ordering. One way to mitigate this risk is to first reduce the spender's allowance to 0, and then set the desired value afterwards, per [this ERC-20 issue](https://github.com/ethereum/EIPs/issues/20#issuecomment-263524729).     * A simpler workaround is to use `increaseAllowance` or `decreaseAllowance`, below."
      },
      "burnFrom(address,uint256)": {
        "notice": "Burn `value` attotokens from `account`, if sender has that much allowance from `account`."
      },
      "changeMaxSupply(uint256)": {
        "notice": "Change the maximum supply allowed."
      },
      "changeMinter(address)": {
        "notice": "Change who holds the `minter` role."
      },
      "changePauser(address)": {
        "notice": "Change who holds the `pauser` role."
      },
      "changeTxFeeHelper(address)": {
        "notice": "Change the contract that helps with transaction fee calculation."
      },
      "constructor": "Initialize critical fields.",
      "decreaseAllowance(address,uint256)": {
        "notice": "Decrease `spender`'s allowance of the sender's tokens."
      },
      "getEternalStorageAddress()": {
        "notice": "Accessor for eternal storage contract address."
      },
      "increaseAllowance(address,uint256)": {
        "notice": "Increase `spender`'s allowance of the sender's tokens."
      },
      "mint(address,uint256)": {
        "notice": "Mint `value` new attotokens to `account`."
      },
      "pause()": {
        "notice": "Pause the contract."
      },
      "renounceOwnership(string)": {
        "notice": "Set `_owner` to the 0 address. Only do this to deliberately lock in the current permissions.     * THIS CANNOT BE UNDONE! Call this only if you know what you're doing and why you're doing it!"
      },
      "transfer(address,uint256)": {
        "notice": "Transfer `value` attoRSV from `msg.sender` to `to`."
      },
      "transferEternalStorage(address)": {
        "notice": "Make a different address the EternalStorage contract's reserveAddress. This will break this contract, so only do it if you're abandoning this contract, e.g., for an upgrade."
      },
      "transferFrom(address,address,uint256)": {
        "notice": "Transfer approved tokens from one address to another."
      },
      "unpause()": {
        "notice": "Unpause the contract."
      }
    }
  }
}