{
  "contractName": "ReserveEternalStorage",
  "abi": [
    {
      "constant": false,
      "inputs": [
        {
          "name": "newOwner",
          "type": "address"
        }
      ],
      "name": "nominateNewOwner",
      "outputs": [],
      "payable": false,
      "stateMutability": "nonpayable",
      "type": "function"
    },
    {
      "constant": false,
      "inputs": [
        {
          "name": "declaration",
          "type": "string"
        }
      ],
      "name": "renounceOwnership",
      "outputs": [],
      "payable": false,
      "stateMutability": "nonpayable",
      "type": "function"
    },
    {
      "constant": true,
      "inputs": [],
      "name": "nominatedOwner",
      "outputs": [
        {
          "name": "",
          "type": "address"
        }
      ],
      "payable": false,
      "stateMutability": "view",
      "type": "function"
    },
    {
      "constant": true,
      "inputs": [
        {
          "name": "",
          "type": "address"
        },
        {
          "name": "",
          "type": "address"
        }
      ],
      "name": "allowed",
      "outputs": [
        {
          "name": "",
          "type": "uint256"
        }
      ],
      "payable": false,
      "stateMutability": "view",
      "type": "function"
    },
    {
      "constant": false,
      "inputs": [],
      "name": "acceptOwnership",
      "outputs": [],
      "payable": false,
      "stateMutability": "nonpayable",
      "type": "function"
    },
    {
      "constant": true,
      "inputs": [],
      "name": "owner",
      "outputs": [
        {
          "name": "",
          "type": "address"
        }
      ],
      "payable": false,
      "stateMutability": "view",
      "type": "function"
    },
    {
      "constant": true,
      "inputs": [
        {
          "name": "",
          "type": "address"
        }
      ],
      "name": "balance",
      "outputs": [
        {
          "name": "",
          "type": "uint256"
        }
      ],
      "payable": false,
      "stateMutability": "view",
      "type": "function"
    },
    {
      "constant": true,
      "inputs": [],
      "name": "reserveAddress",
      "outputs": [
        {
          "name": "",
          "type": "address"
        }
      ],
      "payable": false,
      "stateMutability": "view",
      "type": "function"
    },
    {
      "inputs": [],
      "payable": false,
      "stateMutability": "nonpayable",
      "type": "constructor"
    },
    {
      "anonymous": false,
      "inputs": [
        {
          "indexed": true,
          "name": "oldReserveAddress",
          "type": "address"
        },
        {
          "indexed": true,
          "name": "newReserveAddress",
          "type": "address"
        }
      ],
      "name": "ReserveAddressTransferred",
      "type": "event"
    },
    {
      "anonymous": false,
      "inputs": [
        {
          "indexed": true,
          "name": "previousOwner",
          "type": "address"
        },
        {
          "indexed": true,
          "name": "nominee",
          "type": "address"
        }
      ],
      "name": "NewOwnerNominated",
      "type": "event"
    },
    {
      "anonymous": false,
      "inputs": [
        {
          "indexed": true,
          "name": "previousOwner",
          "type": "address"
        },
        {
          "indexed": true,
          "name": "newOwner",
          "type": "address"
        }
      ],
      "name": "OwnershipTransferred",
      "type": "event"
    },
    {
      "constant": false,
      "inputs": [
        {
          "name": "newReserveAddress",
          "type": "address"
        }
      ],
      "name": "updateReserveAddress",
      "outputs": [],
      "payable": false,
      "stateMutability": "nonpayable",
      "type": "function"
    },
    {
      "constant": false,
      "inputs": [
        {
          "name": "key",
          "type": "address"
        },
        {
          "name": "value",
          "type": "uint256"
        }
      ],
      "name": "addBalance",
      "outputs": [],
      "payable": false,
      "stateMutability": "nonpayable",
      "type": "function"
    },
    {
      "constant": false,
      "inputs": [
        {
          "name": "key",
          "type": "address"
        },
        {
          "name": "value",
          "type": "uint256"
        }
      ],
      "name": "subBalance",
      "outputs": [],
      "payable": false,
      "stateMutability": "nonpayable",
      "type": "function"
    },
    {
      "constant": false,
      "inputs": [
        {
          "name": "key",
          "type": "address"
        },
        {
          "name": "value",
          "type": "uint256"
        }
      ],
      "name": "setBalance",
      "outputs": [],
      "payable": false,
      "stateMutability": "nonpayable",
      "type": "function"
    },
    {
      "constant": false,
      "inputs": [
        {
          "name": "from",
          "type": "address"
        },
        {
          "name": "to",
          "type": "address"
        },
        {
          "name": "value",
          "type": "uint256"
        }
      ],
      "name": "setAllowed",
      "outputs": [],
      "payable": false,
      "stateMutability": "nonpayable",
      "type": "function"
    }
  ],
  "bytecode": "0x608060405234801561001057600080fd5b5060006100216100ca60201b60201c565b600080546001600160a01b0319166001600160a01b0383169081178255604051929350917f8be0079c531659141344cd1fd0a4f28419497f9722a3daafe3b4186f6b6457e0908290a3506100796100ca60201b60201c565b600280546001600160a01b0319166001600160a01b0392831617908190556040519116906000907feb667ad87f8e94a71252d18843f339e739a788f5641fd00d1404d93f4e547534908290a36100ce565b3390565b610c0a806100dd6000396000f3fe608060405234801561001057600080fd5b50600436106100cf5760003560e01c806379ba50971161008c578063e30443bc11610066578063e30443bc1461026e578063e3d670d71461029a578063f79ed94b146102c0578063f84afd48146102c8576100cf565b806379ba5097146102325780638da5cb5b1461023a578063cf8eeb7e14610242576100cf565b80631627540c146100d457806321e5383a146100fc57806333dd1b8a146101285780634fdb7f441461015e57806353a47bb7146101ce5780635c658165146101f2575b600080fd5b6100fa600480360360208110156100ea57600080fd5b50356001600160a01b03166102ee565b005b6100fa6004803603604081101561011257600080fd5b506001600160a01b0381351690602001356103af565b6100fa6004803603606081101561013e57600080fd5b506001600160a01b03813581169160208101359091169060400135610462565b6100fa6004803603602081101561017457600080fd5b81019060208101813564010000000081111561018f57600080fd5b8201836020820111156101a157600080fd5b803590602001918460018302840111640100000000831117156101c357600080fd5b5090925090506104f8565b6101d661065d565b604080516001600160a01b039092168252519081900360200190f35b6102206004803603604081101561020857600080fd5b506001600160a01b038135811691602001351661066c565b60408051918252519081900360200190f35b6100fa610689565b6101d6610757565b6100fa6004803603604081101561025857600080fd5b506001600160a01b038135169060200135610766565b6100fa6004803603604081101561028457600080fd5b506001600160a01b0381351690602001356107f9565b610220600480360360208110156102b057600080fd5b50356001600160a01b031661087f565b6101d6610891565b6100fa600480360360208110156102de57600080fd5b50356001600160a01b03166108a0565b6102f66109f6565b6001600160a01b0381166103545760408051600160e51b62461bcd02815260206004820152601660248201527f6e6577206f776e65722069732030206164647265737300000000000000000000604482015290519081900360640190fd5b600080546040516001600160a01b03808516939216917fb59bab42c554cfd49f4f001c983b6ed93ede25748b10114b7d1cb1b3c97df7af91a3600180546001600160a01b0319166001600160a01b0392909216919091179055565b6002546001600160a01b03166103c3610a6a565b6001600160a01b0316146104195760408051600160e51b62461bcd0281526020600482015260126024820152600160701b716f6e6c79526573657276654164647265737302604482015290519081900360640190fd5b6001600160a01b038216600090815260036020526040902054610442908263ffffffff610a6e16565b6001600160a01b0390921660009081526003602052604090209190915550565b6002546001600160a01b0316610476610a6a565b6001600160a01b0316146104cc5760408051600160e51b62461bcd0281526020600482015260126024820152600160701b716f6e6c79526573657276654164647265737302604482015290519081900360640190fd5b6001600160a01b0392831660009081526004602090815260408083209490951682529290925291902055565b6105006109f6565b6060604051806060016040528060358152602001610baa603591399050806040516020018082805190602001908083835b602083106105505780518252601f199092019160209182019101610531565b6001836020036101000a03801982511681845116808217855250505050505090500191505060405160208183030381529060405280519060200120838360405160200180838380828437808301925050509250505060405160208183030381529060405280519060200120146106105760408051600160e51b62461bcd02815260206004820152601560248201527f6465636c61726174696f6e20696e636f72726563740000000000000000000000604482015290519081900360640190fd5b600080546040516001600160a01b03909116907f8be0079c531659141344cd1fd0a4f28419497f9722a3daafe3b4186f6b6457e0908390a35050600080546001600160a01b031916905550565b6001546001600160a01b031690565b600460209081526000928352604080842090915290825290205481565b610691610a6a565b6001546001600160a01b039081169116146106f65760408051600160e51b62461bcd02815260206004820152600c60248201527f756e617574686f72697a65640000000000000000000000000000000000000000604482015290519081900360640190fd5b600154600080546040516001600160a01b0393841693909116917f8be0079c531659141344cd1fd0a4f28419497f9722a3daafe3b4186f6b6457e091a3600154600080546001600160a01b0319166001600160a01b03909216919091179055565b6000546001600160a01b031690565b6002546001600160a01b031661077a610a6a565b6001600160a01b0316146107d05760408051600160e51b62461bcd0281526020600482015260126024820152600160701b716f6e6c79526573657276654164647265737302604482015290519081900360640190fd5b6001600160a01b038216600090815260036020526040902054610442908263ffffffff610ad216565b6002546001600160a01b031661080d610a6a565b6001600160a01b0316146108635760408051600160e51b62461bcd0281526020600482015260126024820152600160701b716f6e6c79526573657276654164647265737302604482015290519081900360640190fd5b6001600160a01b03909116600090815260036020526040902055565b60036020526000908152604090205481565b6002546001600160a01b031681565b6001600160a01b0381166108fe5760408051600160e51b62461bcd02815260206004820152600c60248201527f7a65726f20616464726573730000000000000000000000000000000000000000604482015290519081900360640190fd5b6002546001600160a01b0316610912610a6a565b6001600160a01b03161480610946575061092a610757565b6001600160a01b031661093b610a6a565b6001600160a01b0316145b61099a5760408051600160e51b62461bcd02815260206004820152600e60248201527f6e6f7420617574686f72697a6564000000000000000000000000000000000000604482015290519081900360640190fd5b6002546040516001600160a01b038084169216907feb667ad87f8e94a71252d18843f339e739a788f5641fd00d1404d93f4e54753490600090a3600280546001600160a01b0319166001600160a01b0392909216919091179055565b6000546001600160a01b0316610a0a610a6a565b6001600160a01b031614610a685760408051600160e51b62461bcd02815260206004820152601360248201527f63616c6c6572206973206e6f74206f776e657200000000000000000000000000604482015290519081900360640190fd5b565b3390565b600082820183811015610acb5760408051600160e51b62461bcd02815260206004820152601b60248201527f536166654d6174683a206164646974696f6e206f766572666c6f770000000000604482015290519081900360640190fd5b9392505050565b6000610acb83836040518060400160405280601e81526020017f536166654d6174683a207375627472616374696f6e206f766572666c6f77000081525060008184841115610ba157604051600160e51b62461bcd0281526004018080602001828103825283818151815260200191508051906020019080838360005b83811015610b66578181015183820152602001610b4e565b50505050905090810190601f168015610b935780820380516001836020036101000a031916815260200191505b509250505060405180910390fd5b50505090039056fe49206865726562792072656e6f756e6365206f776e657273686970206f66207468697320636f6e747261637420666f72657665722ea165627a7a72305820fb2335e6fce5aa23d78ca2c48895bfb56c49fd584fa78ec531f5590b1b62ce7f0029",
  "source": "pragma solidity 0.5.7;\n\nimport \"../ownership/Ownable.sol\";\nimport \"../zeppelin/math/SafeMath.sol\";\n\n/**\n * @title Eternal Storage for the Reserve Token\n *\n * @dev Eternal Storage facilitates future upgrades.\n *\n * If Reserve chooses to release an upgraded contract for the Reserve in the future, Reserve will\n * have the option of reusing the deployed version of this data contract to simplify migration.\n *\n * The use of this contract does not imply that Reserve will choose to do a future upgrade, nor\n * that any future upgrades will necessarily re-use this storage. It merely provides option value.\n */\ncontract ReserveEternalStorage is Ownable {\n\n    using SafeMath for uint256;\n\n\n    // ===== auth =====\n\n    address public reserveAddress;\n\n    event ReserveAddressTransferred(\n        address indexed oldReserveAddress,\n        address indexed newReserveAddress\n    );\n\n    /// On construction, set auth fields.\n    constructor() public {\n        reserveAddress = _msgSender();\n        emit ReserveAddressTransferred(address(0), reserveAddress);\n    }\n\n    /// Only run modified function if sent by `reserveAddress`.\n    modifier onlyReserveAddress() {\n        require(_msgSender() == reserveAddress, \"onlyReserveAddress\");\n        _;\n    }\n\n    /// Set `reserveAddress`.\n    function updateReserveAddress(address newReserveAddress) external {\n        require(newReserveAddress != address(0), \"zero address\");\n        require(_msgSender() == reserveAddress || _msgSender() == owner(), \"not authorized\");\n        emit ReserveAddressTransferred(reserveAddress, newReserveAddress);\n        reserveAddress = newReserveAddress;\n    }\n\n\n\n    // ===== balance =====\n\n    mapping(address => uint256) public balance;\n\n    /// Add `value` to `balance[key]`, unless this causes integer overflow.\n    ///\n    /// @dev This is a slight divergence from the strict Eternal Storage pattern, but it reduces\n    /// the gas for the by-far most common token usage, it's a *very simple* divergence, and\n    /// `setBalance` is available anyway.\n    function addBalance(address key, uint256 value) external onlyReserveAddress {\n        balance[key] = balance[key].add(value);\n    }\n\n    /// Subtract `value` from `balance[key]`, unless this causes integer underflow.\n    function subBalance(address key, uint256 value) external onlyReserveAddress {\n        balance[key] = balance[key].sub(value);\n    }\n\n    /// Set `balance[key]` to `value`.\n    function setBalance(address key, uint256 value) external onlyReserveAddress {\n        balance[key] = value;\n    }\n\n\n\n    // ===== allowed =====\n\n    mapping(address => mapping(address => uint256)) public allowed;\n\n    /// Set `to`'s allowance of `from`'s tokens to `value`.\n    function setAllowed(address from, address to, uint256 value) external onlyReserveAddress {\n        allowed[from][to] = value;\n    }\n}\n",
  "sourcePath": "/Users/taylorbrent/reserve/simple-portal/contracts/rsv/ReserveEternalStorage.sol",
  "compiler": {
    "name": "solc",
    "version": "0.5.7+commit.6da8b019.Emscripten.clang"
  },
  "schemaVersion": "3.0.17",
  "updatedAt": "2020-01-03T19:43:25.466Z",
  "networkType": "ethereum",
  "devdoc": {
    "details": "Eternal Storage facilitates future upgrades. * If Reserve chooses to release an upgraded contract for the Reserve in the future, Reserve will have the option of reusing the deployed version of this data contract to simplify migration. * The use of this contract does not imply that Reserve will choose to do a future upgrade, nor that any future upgrades will necessarily re-use this storage. It merely provides option value.",
    "methods": {
      "acceptOwnership()": {
        "details": "Accepts ownership of the contract."
      },
      "addBalance(address,uint256)": {
        "details": "This is a slight divergence from the strict Eternal Storage pattern, but it reduces the gas for the by-far most common token usage, it's a *very simple* divergence, and `setBalance` is available anyway."
      },
      "nominateNewOwner(address)": {
        "details": "Nominates a new owner `newOwner`. Requires a follow-up `acceptOwnership`. Can only be called by the current owner."
      },
      "nominatedOwner()": {
        "details": "Returns the address of the current nominated owner."
      },
      "owner()": {
        "details": "Returns the address of the current owner."
      }
    },
    "title": "Eternal Storage for the Reserve Token"
  },
  "userdoc": {
    "methods": {
      "addBalance(address,uint256)": {
        "notice": "Add `value` to `balance[key]`, unless this causes integer overflow. "
      },
      "constructor": "On construction, set auth fields.",
      "renounceOwnership(string)": {
        "notice": "Set `_owner` to the 0 address. Only do this to deliberately lock in the current permissions.     * THIS CANNOT BE UNDONE! Call this only if you know what you're doing and why you're doing it!"
      },
      "setAllowed(address,address,uint256)": {
        "notice": "Set `to`'s allowance of `from`'s tokens to `value`."
      },
      "setBalance(address,uint256)": {
        "notice": "Set `balance[key]` to `value`."
      },
      "subBalance(address,uint256)": {
        "notice": "Subtract `value` from `balance[key]`, unless this causes integer underflow."
      },
      "updateReserveAddress(address)": {
        "notice": "Set `reserveAddress`."
      }
    }
  }
}