{
  "contractName": "USDC",
  "abi": [
    {
      "constant": false,
      "inputs": [
        {
          "name": "spender",
          "type": "address"
        },
        {
          "name": "amount",
          "type": "uint256"
        }
      ],
      "name": "approve",
      "outputs": [
        {
          "name": "",
          "type": "bool"
        }
      ],
      "payable": false,
      "stateMutability": "nonpayable",
      "type": "function"
    },
    {
      "constant": true,
      "inputs": [],
      "name": "totalSupply",
      "outputs": [
        {
          "name": "",
          "type": "uint256"
        }
      ],
      "payable": false,
      "stateMutability": "view",
      "type": "function"
    },
    {
      "constant": false,
      "inputs": [
        {
          "name": "sender",
          "type": "address"
        },
        {
          "name": "recipient",
          "type": "address"
        },
        {
          "name": "amount",
          "type": "uint256"
        }
      ],
      "name": "transferFrom",
      "outputs": [
        {
          "name": "",
          "type": "bool"
        }
      ],
      "payable": false,
      "stateMutability": "nonpayable",
      "type": "function"
    },
    {
      "constant": false,
      "inputs": [
        {
          "name": "spender",
          "type": "address"
        },
        {
          "name": "addedValue",
          "type": "uint256"
        }
      ],
      "name": "increaseAllowance",
      "outputs": [
        {
          "name": "",
          "type": "bool"
        }
      ],
      "payable": false,
      "stateMutability": "nonpayable",
      "type": "function"
    },
    {
      "constant": true,
      "inputs": [
        {
          "name": "account",
          "type": "address"
        }
      ],
      "name": "balanceOf",
      "outputs": [
        {
          "name": "",
          "type": "uint256"
        }
      ],
      "payable": false,
      "stateMutability": "view",
      "type": "function"
    },
    {
      "constant": false,
      "inputs": [
        {
          "name": "spender",
          "type": "address"
        },
        {
          "name": "subtractedValue",
          "type": "uint256"
        }
      ],
      "name": "decreaseAllowance",
      "outputs": [
        {
          "name": "",
          "type": "bool"
        }
      ],
      "payable": false,
      "stateMutability": "nonpayable",
      "type": "function"
    },
    {
      "constant": false,
      "inputs": [
        {
          "name": "recipient",
          "type": "address"
        },
        {
          "name": "amount",
          "type": "uint256"
        }
      ],
      "name": "transfer",
      "outputs": [
        {
          "name": "",
          "type": "bool"
        }
      ],
      "payable": false,
      "stateMutability": "nonpayable",
      "type": "function"
    },
    {
      "constant": true,
      "inputs": [
        {
          "name": "owner",
          "type": "address"
        },
        {
          "name": "spender",
          "type": "address"
        }
      ],
      "name": "allowance",
      "outputs": [
        {
          "name": "",
          "type": "uint256"
        }
      ],
      "payable": false,
      "stateMutability": "view",
      "type": "function"
    },
    {
      "inputs": [],
      "payable": false,
      "stateMutability": "nonpayable",
      "type": "constructor"
    },
    {
      "anonymous": false,
      "inputs": [
        {
          "indexed": true,
          "name": "from",
          "type": "address"
        },
        {
          "indexed": true,
          "name": "to",
          "type": "address"
        },
        {
          "indexed": false,
          "name": "value",
          "type": "uint256"
        }
      ],
      "name": "Transfer",
      "type": "event"
    },
    {
      "anonymous": false,
      "inputs": [
        {
          "indexed": true,
          "name": "owner",
          "type": "address"
        },
        {
          "indexed": true,
          "name": "spender",
          "type": "address"
        },
        {
          "indexed": false,
          "name": "value",
          "type": "uint256"
        }
      ],
      "name": "Approval",
      "type": "event"
    }
  ],
  "bytecode": "0x608060405234801561001057600080fd5b506100353373af298d050e4395d69670b12b7f4100000000000061003a60201b60201c565b6101c9565b6001600160a01b0382166100af57604080517f08c379a000000000000000000000000000000000000000000000000000000000815260206004820152601f60248201527f45524332303a206d696e7420746f20746865207a65726f206164647265737300604482015290519081900360640190fd5b6100c88160025461014e60201b6106b31790919060201c565b6002556001600160a01b038216600090815260208181526040909120546100f89183906106b361014e821b17901c565b6001600160a01b0383166000818152602081815260408083209490945583518581529351929391927fddf252ad1be2c89b69c2b068fc378daa952ba7f163c4a11628f55a4df523b3ef9281900390910190a35050565b6000828201838110156101c257604080517f08c379a000000000000000000000000000000000000000000000000000000000815260206004820152601b60248201527f536166654d6174683a206164646974696f6e206f766572666c6f770000000000604482015290519081900360640190fd5b9392505050565b610844806101d86000396000f3fe608060405234801561001057600080fd5b50600436106100885760003560e01c806370a082311161005b57806370a0823114610149578063a457c2d71461016f578063a9059cbb1461019b578063dd62ed3e146101c757610088565b8063095ea7b31461008d57806318160ddd146100cd57806323b872dd146100e7578063395093511461011d575b600080fd5b6100b9600480360360408110156100a357600080fd5b506001600160a01b0381351690602001356101f5565b604080519115158252519081900360200190f35b6100d5610212565b60408051918252519081900360200190f35b6100b9600480360360608110156100fd57600080fd5b506001600160a01b03813581169160208101359091169060400135610218565b6100b96004803603604081101561013357600080fd5b506001600160a01b0381351690602001356102a5565b6100d56004803603602081101561015f57600080fd5b50356001600160a01b03166102f9565b6100b96004803603604081101561018557600080fd5b506001600160a01b038135169060200135610314565b6100b9600480360360408110156101b157600080fd5b506001600160a01b038135169060200135610382565b6100d5600480360360408110156101dd57600080fd5b506001600160a01b0381358116916020013516610396565b60006102096102026103c1565b84846103c5565b50600192915050565b60025490565b60006102258484846104b7565b61029b846102316103c1565b61029685604051806060016040528060288152602001610783602891396001600160a01b038a1660009081526001602052604081209061026f6103c1565b6001600160a01b03168152602081019190915260400160002054919063ffffffff61061916565b6103c5565b5060019392505050565b60006102096102b26103c1565b8461029685600160006102c36103c1565b6001600160a01b03908116825260208083019390935260409182016000908120918c16815292529020549063ffffffff6106b316565b6001600160a01b031660009081526020819052604090205490565b60006102096103216103c1565b84610296856040518060600160405280602581526020016107f4602591396001600061034b6103c1565b6001600160a01b03908116825260208083019390935260409182016000908120918d1681529252902054919063ffffffff61061916565b600061020961038f6103c1565b84846104b7565b6001600160a01b03918216600090815260016020908152604080832093909416825291909152205490565b3390565b6001600160a01b03831661040d57604051600160e51b62461bcd0281526004018080602001828103825260248152602001806107d06024913960400191505060405180910390fd5b6001600160a01b03821661045557604051600160e51b62461bcd02815260040180806020018281038252602281526020018061073b6022913960400191505060405180910390fd5b6001600160a01b03808416600081815260016020908152604080832094871680845294825291829020859055815185815291517f8c5be1e5ebec7d5bd14f71427d1e84f3dd0314c0f7b2291e5b200ac8c7c3b9259281900390910190a3505050565b6001600160a01b0383166104ff57604051600160e51b62461bcd0281526004018080602001828103825260258152602001806107ab6025913960400191505060405180910390fd5b6001600160a01b03821661054757604051600160e51b62461bcd0281526004018080602001828103825260238152602001806107186023913960400191505060405180910390fd5b61058a8160405180606001604052806026815260200161075d602691396001600160a01b038616600090815260208190526040902054919063ffffffff61061916565b6001600160a01b0380851660009081526020819052604080822093909355908416815220546105bf908263ffffffff6106b316565b6001600160a01b038084166000818152602081815260409182902094909455805185815290519193928716927fddf252ad1be2c89b69c2b068fc378daa952ba7f163c4a11628f55a4df523b3ef92918290030190a3505050565b600081848411156106ab57604051600160e51b62461bcd0281526004018080602001828103825283818151815260200191508051906020019080838360005b83811015610670578181015183820152602001610658565b50505050905090810190601f16801561069d5780820380516001836020036101000a031916815260200191505b509250505060405180910390fd5b505050900390565b6000828201838110156107105760408051600160e51b62461bcd02815260206004820152601b60248201527f536166654d6174683a206164646974696f6e206f766572666c6f770000000000604482015290519081900360640190fd5b939250505056fe45524332303a207472616e7366657220746f20746865207a65726f206164647265737345524332303a20617070726f766520746f20746865207a65726f206164647265737345524332303a207472616e7366657220616d6f756e7420657863656564732062616c616e636545524332303a207472616e7366657220616d6f756e74206578636565647320616c6c6f77616e636545524332303a207472616e736665722066726f6d20746865207a65726f206164647265737345524332303a20617070726f76652066726f6d20746865207a65726f206164647265737345524332303a2064656372656173656420616c6c6f77616e63652062656c6f77207a65726fa165627a7a723058208ec6dc976e84dc82fb5a592caa526630ed27e67ea6015141936f9185d85048170029",
  "source": "pragma solidity 0.5.7;\n\nimport \"../zeppelin/token/ERC20/ERC20.sol\";\n\n/**\n * Simple ERC20 for testing. \n */\ncontract USDC is ERC20 {\n    constructor() public {\n        _mint(msg.sender, 1e48);\n    }\n}\n",
  "sourcePath": "/Users/taylorbrent/reserve/simple-portal/contracts/test/USDC.sol",
  "compiler": {
    "name": "solc",
    "version": "0.5.7+commit.6da8b019.Emscripten.clang"
  },
  "schemaVersion": "3.0.17",
  "updatedAt": "2020-01-03T19:43:25.439Z",
  "networkType": "ethereum",
  "devdoc": {
    "methods": {
      "allowance(address,address)": {
        "details": "See {IERC20-allowance}."
      },
      "approve(address,uint256)": {
        "details": "See {IERC20-approve}.     * Requirements:     * - `spender` cannot be the zero address."
      },
      "balanceOf(address)": {
        "details": "See {IERC20-balanceOf}."
      },
      "decreaseAllowance(address,uint256)": {
        "details": "Atomically decreases the allowance granted to `spender` by the caller.     * This is an alternative to {approve} that can be used as a mitigation for problems described in {IERC20-approve}.     * Emits an {Approval} event indicating the updated allowance.     * Requirements:     * - `spender` cannot be the zero address. - `spender` must have allowance for the caller of at least `subtractedValue`."
      },
      "increaseAllowance(address,uint256)": {
        "details": "Atomically increases the allowance granted to `spender` by the caller.     * This is an alternative to {approve} that can be used as a mitigation for problems described in {IERC20-approve}.     * Emits an {Approval} event indicating the updated allowance.     * Requirements:     * - `spender` cannot be the zero address."
      },
      "totalSupply()": {
        "details": "See {IERC20-totalSupply}."
      },
      "transfer(address,uint256)": {
        "details": "See {IERC20-transfer}.     * Requirements:     * - `recipient` cannot be the zero address. - the caller must have a balance of at least `amount`."
      },
      "transferFrom(address,address,uint256)": {
        "details": "See {IERC20-transferFrom}.     * Emits an {Approval} event indicating the updated allowance. This is not required by the EIP. See the note at the beginning of {ERC20};     * Requirements: - `sender` and `recipient` cannot be the zero address. - `sender` must have a balance of at least `amount`. - the caller must have allowance for `sender`'s tokens of at least `amount`."
      }
    }
  },
  "userdoc": {
    "methods": {},
    "notice": "Simple ERC20 for testing. "
  }
}