{
  "contractName": "VaultV2",
  "abi": [
    {
      "constant": false,
      "inputs": [
        {
          "name": "newOwner",
          "type": "address"
        }
      ],
      "name": "nominateNewOwner",
      "outputs": [],
      "payable": false,
      "stateMutability": "nonpayable",
      "type": "function"
    },
    {
      "constant": true,
      "inputs": [],
      "name": "manager",
      "outputs": [
        {
          "name": "",
          "type": "address"
        }
      ],
      "payable": false,
      "stateMutability": "view",
      "type": "function"
    },
    {
      "constant": false,
      "inputs": [
        {
          "name": "declaration",
          "type": "string"
        }
      ],
      "name": "renounceOwnership",
      "outputs": [],
      "payable": false,
      "stateMutability": "nonpayable",
      "type": "function"
    },
    {
      "constant": true,
      "inputs": [],
      "name": "nominatedOwner",
      "outputs": [
        {
          "name": "",
          "type": "address"
        }
      ],
      "payable": false,
      "stateMutability": "view",
      "type": "function"
    },
    {
      "constant": false,
      "inputs": [],
      "name": "acceptOwnership",
      "outputs": [],
      "payable": false,
      "stateMutability": "nonpayable",
      "type": "function"
    },
    {
      "constant": true,
      "inputs": [],
      "name": "owner",
      "outputs": [
        {
          "name": "",
          "type": "address"
        }
      ],
      "payable": false,
      "stateMutability": "view",
      "type": "function"
    },
    {
      "constant": false,
      "inputs": [
        {
          "name": "newManager",
          "type": "address"
        }
      ],
      "name": "changeManager",
      "outputs": [],
      "payable": false,
      "stateMutability": "nonpayable",
      "type": "function"
    },
    {
      "constant": false,
      "inputs": [
        {
          "name": "token",
          "type": "address"
        },
        {
          "name": "amount",
          "type": "uint256"
        },
        {
          "name": "to",
          "type": "address"
        }
      ],
      "name": "withdrawTo",
      "outputs": [],
      "payable": false,
      "stateMutability": "nonpayable",
      "type": "function"
    },
    {
      "anonymous": false,
      "inputs": [
        {
          "indexed": true,
          "name": "previousManager",
          "type": "address"
        },
        {
          "indexed": true,
          "name": "newManager",
          "type": "address"
        }
      ],
      "name": "ManagerTransferred",
      "type": "event"
    },
    {
      "anonymous": false,
      "inputs": [
        {
          "indexed": true,
          "name": "token",
          "type": "address"
        },
        {
          "indexed": true,
          "name": "amount",
          "type": "uint256"
        },
        {
          "indexed": true,
          "name": "to",
          "type": "address"
        }
      ],
      "name": "Withdrawal",
      "type": "event"
    },
    {
      "anonymous": false,
      "inputs": [
        {
          "indexed": true,
          "name": "previousOwner",
          "type": "address"
        },
        {
          "indexed": true,
          "name": "nominee",
          "type": "address"
        }
      ],
      "name": "NewOwnerNominated",
      "type": "event"
    },
    {
      "anonymous": false,
      "inputs": [
        {
          "indexed": true,
          "name": "previousOwner",
          "type": "address"
        },
        {
          "indexed": true,
          "name": "newOwner",
          "type": "address"
        }
      ],
      "name": "OwnershipTransferred",
      "type": "event"
    },
    {
      "constant": false,
      "inputs": [
        {
          "name": "previousVaultAddress",
          "type": "address"
        },
        {
          "name": "managerAddress",
          "type": "address"
        }
      ],
      "name": "completeHandoff",
      "outputs": [],
      "payable": false,
      "stateMutability": "nonpayable",
      "type": "function"
    }
  ],
  "bytecode": "0x608060405260006100146100bd60201b60201c565b600080546001600160a01b0319166001600160a01b0383169081178255604051929350917f8be0079c531659141344cd1fd0a4f28419497f9722a3daafe3b4186f6b6457e0908290a35061006c6100bd60201b60201c565b600280546001600160a01b0319166001600160a01b0392831617908190556040519116906000907f9cb45c728de594dab506a1f1a8554e24c8eeaf983618d5ec5dd7bc6f3c49feee908290a36100c1565b3390565b610ec5806100d06000396000f3fe608060405234801561001057600080fd5b50600436106100935760003560e01c806353a47bb71161006657806353a47bb71461018257806379ba50971461018a5780638da5cb5b14610192578063a3fbbaae1461019a578063c4e2c1e6146101c057610093565b80631627540c146100985780631b940229146100c0578063481c6a75146100ee5780634fdb7f4414610112575b600080fd5b6100be600480360360208110156100ae57600080fd5b50356001600160a01b03166101f6565b005b6100be600480360360408110156100d657600080fd5b506001600160a01b03813581169160200135166102b7565b6100f6610772565b604080516001600160a01b039092168252519081900360200190f35b6100be6004803603602081101561012857600080fd5b81019060208101813564010000000081111561014357600080fd5b82018360208201111561015557600080fd5b8035906020019184600183028401116401000000008311171561017757600080fd5b509092509050610781565b6100f66108e6565b6100be6108f5565b6100f66109c3565b6100be600480360360208110156101b057600080fd5b50356001600160a01b03166109d2565b6100be600480360360608110156101d657600080fd5b506001600160a01b03813581169160208101359160409091013516610a94565b6101fe610b65565b6001600160a01b03811661025c5760408051600160e51b62461bcd02815260206004820152601660248201527f6e6577206f776e65722069732030206164647265737300000000000000000000604482015290519081900360640190fd5b600080546040516001600160a01b03808516939216917fb59bab42c554cfd49f4f001c983b6ed93ede25748b10114b7d1cb1b3c97df7af91a3600180546001600160a01b0319166001600160a01b0392909216919091179055565b6102bf610b65565b60008290506000829050816001600160a01b03166379ba50976040518163ffffffff1660e01b8152600401600060405180830381600087803b15801561030457600080fd5b505af1158015610318573d6000803e3d6000fd5b505060408051600160e11b6351fddd5702815230600482015290516001600160a01b038616935063a3fbbaae9250602480830192600092919082900301818387803b15801561036657600080fd5b505af115801561037a573d6000803e3d6000fd5b505050506000816001600160a01b031663a5ea7fdd6040518163ffffffff1660e01b815260040160206040518083038186803b1580156103b957600080fd5b505afa1580156103cd573d6000803e3d6000fd5b505050506040513d60208110156103e357600080fd5b5051905060005b816001600160a01b031663949d225d6040518163ffffffff1660e01b815260040160206040518083038186803b15801561042357600080fd5b505afa158015610437573d6000803e3d6000fd5b505050506040513d602081101561044d57600080fd5b50518110156105c7576000826001600160a01b0316634f64b2be836040518263ffffffff1660e01b81526004018082815260200191505060206040518083038186803b15801561049c57600080fd5b505afa1580156104b0573d6000803e3d6000fd5b505050506040513d60208110156104c657600080fd5b505160408051600160e01b6370a082310281526001600160a01b038a81166004830152915192935083928289169263c4e2c1e6928592918316916370a0823191602480820192602092909190829003018186803b15801561052657600080fd5b505afa15801561053a573d6000803e3d6000fd5b505050506040513d602081101561055057600080fd5b50516040805163ffffffff851660e01b81526001600160a01b039093166004840152602483019190915230604483015251606480830192600092919082900301818387803b1580156105a157600080fd5b505af11580156105b5573d6000803e3d6000fd5b5050600190940193506103ea92505050565b50816001600160a01b03166379ba50976040518163ffffffff1660e01b8152600401600060405180830381600087803b15801561060357600080fd5b505af1158015610617573d6000803e3d6000fd5b505060408051600160e01b636817031b02815230600482015290516001600160a01b0386169350636817031b9250602480830192600092919082900301818387803b15801561066557600080fd5b505af1158015610679573d6000803e3d6000fd5b50505050816001600160a01b0316631627540c610694610bd9565b6040518263ffffffff1660e01b815260040180826001600160a01b03166001600160a01b03168152602001915050600060405180830381600087803b1580156106dc57600080fd5b505af11580156106f0573d6000803e3d6000fd5b50505050826001600160a01b0316631627540c61070b610bd9565b6040518263ffffffff1660e01b815260040180826001600160a01b03166001600160a01b03168152602001915050600060405180830381600087803b15801561075357600080fd5b505af1158015610767573d6000803e3d6000fd5b505050505050505050565b6002546001600160a01b031681565b610789610b65565b6060604051806060016040528060358152602001610e3b603591399050806040516020018082805190602001908083835b602083106107d95780518252601f1990920191602091820191016107ba565b6001836020036101000a03801982511681845116808217855250505050505090500191505060405160208183030381529060405280519060200120838360405160200180838380828437808301925050509250505060405160208183030381529060405280519060200120146108995760408051600160e51b62461bcd02815260206004820152601560248201527f6465636c61726174696f6e20696e636f72726563740000000000000000000000604482015290519081900360640190fd5b600080546040516001600160a01b03909116907f8be0079c531659141344cd1fd0a4f28419497f9722a3daafe3b4186f6b6457e0908390a35050600080546001600160a01b031916905550565b6001546001600160a01b031690565b6108fd610bd9565b6001546001600160a01b039081169116146109625760408051600160e51b62461bcd02815260206004820152600c60248201527f756e617574686f72697a65640000000000000000000000000000000000000000604482015290519081900360640190fd5b600154600080546040516001600160a01b0393841693909116917f8be0079c531659141344cd1fd0a4f28419497f9722a3daafe3b4186f6b6457e091a3600154600080546001600160a01b0319166001600160a01b03909216919091179055565b6000546001600160a01b031690565b6109da610b65565b6001600160a01b038116610a385760408051600160e51b62461bcd02815260206004820152601360248201527f63616e6e6f742062652030206164647265737300000000000000000000000000604482015290519081900360640190fd5b6002546040516001600160a01b038084169216907f9cb45c728de594dab506a1f1a8554e24c8eeaf983618d5ec5dd7bc6f3c49feee90600090a3600280546001600160a01b0319166001600160a01b0392909216919091179055565b6002546001600160a01b0316610aa8610bd9565b6001600160a01b031614610b065760408051600160e51b62461bcd02815260206004820152600f60248201527f6d757374206265206d616e616765720000000000000000000000000000000000604482015290519081900360640190fd5b610b206001600160a01b038416828463ffffffff610bdd16565b806001600160a01b031682846001600160a01b03167e1a143d5b175701cb3246058ffac3d63945192075a926ff73a19930f09d587a60405160405180910390a4505050565b6000546001600160a01b0316610b79610bd9565b6001600160a01b031614610bd75760408051600160e51b62461bcd02815260206004820152601360248201527f63616c6c6572206973206e6f74206f776e657200000000000000000000000000604482015290519081900360640190fd5b565b3390565b604080516001600160a01b038416602482015260448082018490528251808303909101815260649091019091526020810180516001600160e01b0316600160e01b63a9059cbb02179052610c32908490610c37565b505050565b610c49826001600160a01b0316610dfe565b610c9d5760408051600160e51b62461bcd02815260206004820152601f60248201527f5361666545524332303a2063616c6c20746f206e6f6e2d636f6e747261637400604482015290519081900360640190fd5b60006060836001600160a01b0316836040518082805190602001908083835b60208310610cdb5780518252601f199092019160209182019101610cbc565b6001836020036101000a0380198251168184511680821785525050505050509050019150506000604051808303816000865af19150503d8060008114610d3d576040519150601f19603f3d011682016040523d82523d6000602084013e610d42565b606091505b509150915081610d9c5760408051600160e51b62461bcd02815260206004820181905260248201527f5361666545524332303a206c6f772d6c6576656c2063616c6c206661696c6564604482015290519081900360640190fd5b805115610df857808060200190516020811015610db857600080fd5b5051610df857604051600160e51b62461bcd02815260040180806020018281038252602a815260200180610e70602a913960400191505060405180910390fd5b50505050565b6000813f7fc5d2460186f7233c927e7db2dcc703c0e500b653ca82273b7bfad8045d85a4708115801590610e325750808214155b94935050505056fe49206865726562792072656e6f756e6365206f776e657273686970206f66207468697320636f6e747261637420666f72657665722e5361666545524332303a204552433230206f7065726174696f6e20646964206e6f742073756363656564a165627a7a723058207c5f2728123ba87a64a029e3539496c1eb6ca5d253fa3cca5d314ea3333852f40029",
  "source": "pragma solidity ^0.5.7;\n\nimport \"../Basket.sol\";\nimport \"../Manager.sol\";\nimport \"../Vault.sol\";\nimport \"../rsv/IRSV.sol\";\n\ncontract VaultV2 is Vault {\n\n    function completeHandoff(address previousVaultAddress, address managerAddress) external onlyOwner {\n        Vault previousVault = Vault(previousVaultAddress);\n        Manager manager = Manager(managerAddress);\n\n        previousVault.acceptOwnership();\n\n        previousVault.changeManager(address(this));\n\n        // Transfer tokens from old vault to new vault.\n        Basket trustedBasket = manager.trustedBasket();\n\n        for (uint256 i = 0; i < trustedBasket.size(); i++) {\n            address tokenAddr = trustedBasket.tokens(i);\n            IERC20 token = IERC20(tokenAddr);\n\n            previousVault.withdrawTo(\n                tokenAddr,\n                token.balanceOf(address(previousVaultAddress)),\n                address(this)\n            );\n        }\n\n        // Point manager at the new vault.\n        manager.acceptOwnership();\n        manager.setVault(address(this));\n        manager.nominateNewOwner(_msgSender());\n        previousVault.nominateNewOwner(_msgSender());\n    }\n}\n",
  "sourcePath": "/Users/taylorbrent/reserve/simple-portal/contracts/test/VaultV2.sol",
  "compiler": {
    "name": "solc",
    "version": "0.5.7+commit.6da8b019.Emscripten.clang"
  },
  "schemaVersion": "3.0.17",
  "updatedAt": "2019-12-12T00:07:39.158Z",
  "devdoc": {
    "methods": {
      "acceptOwnership()": {
        "details": "Accepts ownership of the contract."
      },
      "nominateNewOwner(address)": {
        "details": "Nominates a new owner `newOwner`. Requires a follow-up `acceptOwnership`. Can only be called by the current owner."
      },
      "nominatedOwner()": {
        "details": "Returns the address of the current nominated owner."
      },
      "owner()": {
        "details": "Returns the address of the current owner."
      }
    }
  },
  "userdoc": {
    "methods": {
      "changeManager(address)": {
        "notice": "Changes `manager` account. "
      },
      "renounceOwnership(string)": {
        "notice": "Set `_owner` to the 0 address. Only do this to deliberately lock in the current permissions.     * THIS CANNOT BE UNDONE! Call this only if you know what you're doing and why you're doing it!"
      },
      "withdrawTo(address,uint256,address)": {
        "notice": "Withdraw `amount` of `token` to address `to`. Only callable by `manager`."
      }
    }
  }
}