{
  "contractName": "Vault",
  "abi": [
    {
      "constant": false,
      "inputs": [
        {
          "name": "newOwner",
          "type": "address"
        }
      ],
      "name": "nominateNewOwner",
      "outputs": [],
      "payable": false,
      "stateMutability": "nonpayable",
      "type": "function"
    },
    {
      "constant": true,
      "inputs": [],
      "name": "manager",
      "outputs": [
        {
          "name": "",
          "type": "address"
        }
      ],
      "payable": false,
      "stateMutability": "view",
      "type": "function"
    },
    {
      "constant": false,
      "inputs": [
        {
          "name": "declaration",
          "type": "string"
        }
      ],
      "name": "renounceOwnership",
      "outputs": [],
      "payable": false,
      "stateMutability": "nonpayable",
      "type": "function"
    },
    {
      "constant": true,
      "inputs": [],
      "name": "nominatedOwner",
      "outputs": [
        {
          "name": "",
          "type": "address"
        }
      ],
      "payable": false,
      "stateMutability": "view",
      "type": "function"
    },
    {
      "constant": false,
      "inputs": [],
      "name": "acceptOwnership",
      "outputs": [],
      "payable": false,
      "stateMutability": "nonpayable",
      "type": "function"
    },
    {
      "constant": true,
      "inputs": [],
      "name": "owner",
      "outputs": [
        {
          "name": "",
          "type": "address"
        }
      ],
      "payable": false,
      "stateMutability": "view",
      "type": "function"
    },
    {
      "inputs": [],
      "payable": false,
      "stateMutability": "nonpayable",
      "type": "constructor"
    },
    {
      "anonymous": false,
      "inputs": [
        {
          "indexed": true,
          "name": "previousManager",
          "type": "address"
        },
        {
          "indexed": true,
          "name": "newManager",
          "type": "address"
        }
      ],
      "name": "ManagerTransferred",
      "type": "event"
    },
    {
      "anonymous": false,
      "inputs": [
        {
          "indexed": true,
          "name": "token",
          "type": "address"
        },
        {
          "indexed": true,
          "name": "amount",
          "type": "uint256"
        },
        {
          "indexed": true,
          "name": "to",
          "type": "address"
        }
      ],
      "name": "Withdrawal",
      "type": "event"
    },
    {
      "anonymous": false,
      "inputs": [
        {
          "indexed": true,
          "name": "previousOwner",
          "type": "address"
        },
        {
          "indexed": true,
          "name": "nominee",
          "type": "address"
        }
      ],
      "name": "NewOwnerNominated",
      "type": "event"
    },
    {
      "anonymous": false,
      "inputs": [
        {
          "indexed": true,
          "name": "previousOwner",
          "type": "address"
        },
        {
          "indexed": true,
          "name": "newOwner",
          "type": "address"
        }
      ],
      "name": "OwnershipTransferred",
      "type": "event"
    },
    {
      "constant": false,
      "inputs": [
        {
          "name": "newManager",
          "type": "address"
        }
      ],
      "name": "changeManager",
      "outputs": [],
      "payable": false,
      "stateMutability": "nonpayable",
      "type": "function"
    },
    {
      "constant": false,
      "inputs": [
        {
          "name": "token",
          "type": "address"
        },
        {
          "name": "amount",
          "type": "uint256"
        },
        {
          "name": "to",
          "type": "address"
        }
      ],
      "name": "withdrawTo",
      "outputs": [],
      "payable": false,
      "stateMutability": "nonpayable",
      "type": "function"
    }
  ],
  "bytecode": "0x608060405234801561001057600080fd5b5060006100216100ca60201b60201c565b600080546001600160a01b0319166001600160a01b0383169081178255604051929350917f8be0079c531659141344cd1fd0a4f28419497f9722a3daafe3b4186f6b6457e0908290a3506100796100ca60201b60201c565b600280546001600160a01b0319166001600160a01b0392831617908190556040519116906000907f9cb45c728de594dab506a1f1a8554e24c8eeaf983618d5ec5dd7bc6f3c49feee908290a36100ce565b3390565b6109d1806100dd6000396000f3fe608060405234801561001057600080fd5b50600436106100885760003560e01c806379ba50971161005b57806379ba5097146101515780638da5cb5b14610159578063a3fbbaae14610161578063c4e2c1e61461018757610088565b80631627540c1461008d578063481c6a75146100b55780634fdb7f44146100d957806353a47bb714610149575b600080fd5b6100b3600480360360208110156100a357600080fd5b50356001600160a01b03166101bd565b005b6100bd61027e565b604080516001600160a01b039092168252519081900360200190f35b6100b3600480360360208110156100ef57600080fd5b81019060208101813564010000000081111561010a57600080fd5b82018360208201111561011c57600080fd5b8035906020019184600183028401116401000000008311171561013e57600080fd5b50909250905061028d565b6100bd6103f2565b6100b3610401565b6100bd6104cf565b6100b36004803603602081101561017757600080fd5b50356001600160a01b03166104de565b6100b36004803603606081101561019d57600080fd5b506001600160a01b038135811691602081013591604090910135166105a0565b6101c5610671565b6001600160a01b0381166102235760408051600160e51b62461bcd02815260206004820152601660248201527f6e6577206f776e65722069732030206164647265737300000000000000000000604482015290519081900360640190fd5b600080546040516001600160a01b03808516939216917fb59bab42c554cfd49f4f001c983b6ed93ede25748b10114b7d1cb1b3c97df7af91a3600180546001600160a01b0319166001600160a01b0392909216919091179055565b6002546001600160a01b031681565b610295610671565b6060604051806060016040528060358152602001610947603591399050806040516020018082805190602001908083835b602083106102e55780518252601f1990920191602091820191016102c6565b6001836020036101000a03801982511681845116808217855250505050505090500191505060405160208183030381529060405280519060200120838360405160200180838380828437808301925050509250505060405160208183030381529060405280519060200120146103a55760408051600160e51b62461bcd02815260206004820152601560248201527f6465636c61726174696f6e20696e636f72726563740000000000000000000000604482015290519081900360640190fd5b600080546040516001600160a01b03909116907f8be0079c531659141344cd1fd0a4f28419497f9722a3daafe3b4186f6b6457e0908390a35050600080546001600160a01b031916905550565b6001546001600160a01b031690565b6104096106e5565b6001546001600160a01b0390811691161461046e5760408051600160e51b62461bcd02815260206004820152600c60248201527f756e617574686f72697a65640000000000000000000000000000000000000000604482015290519081900360640190fd5b600154600080546040516001600160a01b0393841693909116917f8be0079c531659141344cd1fd0a4f28419497f9722a3daafe3b4186f6b6457e091a3600154600080546001600160a01b0319166001600160a01b03909216919091179055565b6000546001600160a01b031690565b6104e6610671565b6001600160a01b0381166105445760408051600160e51b62461bcd02815260206004820152601360248201527f63616e6e6f742062652030206164647265737300000000000000000000000000604482015290519081900360640190fd5b6002546040516001600160a01b038084169216907f9cb45c728de594dab506a1f1a8554e24c8eeaf983618d5ec5dd7bc6f3c49feee90600090a3600280546001600160a01b0319166001600160a01b0392909216919091179055565b6002546001600160a01b03166105b46106e5565b6001600160a01b0316146106125760408051600160e51b62461bcd02815260206004820152600f60248201527f6d757374206265206d616e616765720000000000000000000000000000000000604482015290519081900360640190fd5b61062c6001600160a01b038416828463ffffffff6106e916565b806001600160a01b031682846001600160a01b03167e1a143d5b175701cb3246058ffac3d63945192075a926ff73a19930f09d587a60405160405180910390a4505050565b6000546001600160a01b03166106856106e5565b6001600160a01b0316146106e35760408051600160e51b62461bcd02815260206004820152601360248201527f63616c6c6572206973206e6f74206f776e657200000000000000000000000000604482015290519081900360640190fd5b565b3390565b604080516001600160a01b038416602482015260448082018490528251808303909101815260649091019091526020810180516001600160e01b0316600160e01b63a9059cbb0217905261073e908490610743565b505050565b610755826001600160a01b031661090a565b6107a95760408051600160e51b62461bcd02815260206004820152601f60248201527f5361666545524332303a2063616c6c20746f206e6f6e2d636f6e747261637400604482015290519081900360640190fd5b60006060836001600160a01b0316836040518082805190602001908083835b602083106107e75780518252601f1990920191602091820191016107c8565b6001836020036101000a0380198251168184511680821785525050505050509050019150506000604051808303816000865af19150503d8060008114610849576040519150601f19603f3d011682016040523d82523d6000602084013e61084e565b606091505b5091509150816108a85760408051600160e51b62461bcd02815260206004820181905260248201527f5361666545524332303a206c6f772d6c6576656c2063616c6c206661696c6564604482015290519081900360640190fd5b805115610904578080602001905160208110156108c457600080fd5b505161090457604051600160e51b62461bcd02815260040180806020018281038252602a81526020018061097c602a913960400191505060405180910390fd5b50505050565b6000813f7fc5d2460186f7233c927e7db2dcc703c0e500b653ca82273b7bfad8045d85a470811580159061093e5750808214155b94935050505056fe49206865726562792072656e6f756e6365206f776e657273686970206f66207468697320636f6e747261637420666f72657665722e5361666545524332303a204552433230206f7065726174696f6e20646964206e6f742073756363656564a165627a7a72305820bd1882931536a581c6f1c2e863eabdf72ba6b48eafb6fce660cc0d4a51a5c2910029",
  "source": "pragma solidity 0.5.7;\n\nimport \"./zeppelin/token/ERC20/SafeERC20.sol\";\nimport \"./zeppelin/token/ERC20/IERC20.sol\";\nimport \"./zeppelin/math/SafeMath.sol\";\nimport \"./ownership/Ownable.sol\";\n\n/**\n* The Vault contract has an owner who is able to set the manager. The manager is\n* able to perform withdrawals. \n*/\ncontract Vault is Ownable {\n    using SafeMath for uint256;\n    using SafeERC20 for IERC20;\n\n    address public manager;\n\n    event ManagerTransferred(\n        address indexed previousManager,\n        address indexed newManager\n    );\n\n    event Withdrawal(\n        address indexed token,\n        uint256 indexed amount,\n        address indexed to\n    );\n\n    constructor() public {\n        // Initialize manager as _msgSender()\n        manager = _msgSender();\n        emit ManagerTransferred(address(0), manager);\n    }\n\n    /// Modifies a function to run only when called by `manager`.\n    modifier onlyManager() {\n        require(_msgSender() == manager, \"must be manager\");\n        _;\n    }\n\n    /// Changes `manager` account. \n    function changeManager(address newManager) external onlyOwner {\n        require(newManager != address(0), \"cannot be 0 address\");\n        emit ManagerTransferred(manager, newManager);\n        manager = newManager;\n    }\n\n    /// Withdraw `amount` of `token` to address `to`. Only callable by `manager`.\n    function withdrawTo(address token, uint256 amount, address to) external onlyManager {\n        IERC20(token).safeTransfer(to, amount);\n        emit Withdrawal(token, amount, to);\n    }\n}\n",
  "sourcePath": "/Users/taylorbrent/reserve/simple-portal/contracts/Vault.sol",
  "compiler": {
    "name": "solc",
    "version": "0.5.7+commit.6da8b019.Emscripten.clang"
  },
  "schemaVersion": "3.0.17",
  "updatedAt": "2019-12-17T01:34:26.182Z",
  "networkType": "ethereum",
  "devdoc": {
    "methods": {
      "acceptOwnership()": {
        "details": "Accepts ownership of the contract."
      },
      "nominateNewOwner(address)": {
        "details": "Nominates a new owner `newOwner`. Requires a follow-up `acceptOwnership`. Can only be called by the current owner."
      },
      "nominatedOwner()": {
        "details": "Returns the address of the current nominated owner."
      },
      "owner()": {
        "details": "Returns the address of the current owner."
      }
    }
  },
  "userdoc": {
    "methods": {
      "changeManager(address)": {
        "notice": "Changes `manager` account. "
      },
      "renounceOwnership(string)": {
        "notice": "Set `_owner` to the 0 address. Only do this to deliberately lock in the current permissions.     * THIS CANNOT BE UNDONE! Call this only if you know what you're doing and why you're doing it!"
      },
      "withdrawTo(address,uint256,address)": {
        "notice": "Withdraw `amount` of `token` to address `to`. Only callable by `manager`."
      }
    },
    "notice": "The Vault contract has an owner who is able to set the manager. The manager is able to perform withdrawals. "
  }
}