{
  "contractName": "WeightProposal",
  "abi": [
    {
      "constant": false,
      "inputs": [
        {
          "name": "newOwner",
          "type": "address"
        }
      ],
      "name": "nominateNewOwner",
      "outputs": [],
      "payable": false,
      "stateMutability": "nonpayable",
      "type": "function"
    },
    {
      "constant": true,
      "inputs": [],
      "name": "time",
      "outputs": [
        {
          "name": "",
          "type": "uint256"
        }
      ],
      "payable": false,
      "stateMutability": "view",
      "type": "function"
    },
    {
      "constant": false,
      "inputs": [
        {
          "name": "_time",
          "type": "uint256"
        }
      ],
      "name": "accept",
      "outputs": [],
      "payable": false,
      "stateMutability": "nonpayable",
      "type": "function"
    },
    {
      "constant": false,
      "inputs": [
        {
          "name": "declaration",
          "type": "string"
        }
      ],
      "name": "renounceOwnership",
      "outputs": [],
      "payable": false,
      "stateMutability": "nonpayable",
      "type": "function"
    },
    {
      "constant": true,
      "inputs": [],
      "name": "nominatedOwner",
      "outputs": [
        {
          "name": "",
          "type": "address"
        }
      ],
      "payable": false,
      "stateMutability": "view",
      "type": "function"
    },
    {
      "constant": false,
      "inputs": [],
      "name": "acceptOwnership",
      "outputs": [],
      "payable": false,
      "stateMutability": "nonpayable",
      "type": "function"
    },
    {
      "constant": true,
      "inputs": [],
      "name": "owner",
      "outputs": [
        {
          "name": "",
          "type": "address"
        }
      ],
      "payable": false,
      "stateMutability": "view",
      "type": "function"
    },
    {
      "constant": true,
      "inputs": [],
      "name": "trustedBasket",
      "outputs": [
        {
          "name": "",
          "type": "address"
        }
      ],
      "payable": false,
      "stateMutability": "view",
      "type": "function"
    },
    {
      "constant": true,
      "inputs": [],
      "name": "proposer",
      "outputs": [
        {
          "name": "",
          "type": "address"
        }
      ],
      "payable": false,
      "stateMutability": "view",
      "type": "function"
    },
    {
      "constant": true,
      "inputs": [],
      "name": "state",
      "outputs": [
        {
          "name": "",
          "type": "uint8"
        }
      ],
      "payable": false,
      "stateMutability": "view",
      "type": "function"
    },
    {
      "constant": false,
      "inputs": [
        {
          "name": "rsv",
          "type": "address"
        },
        {
          "name": "oldBasket",
          "type": "address"
        }
      ],
      "name": "complete",
      "outputs": [
        {
          "name": "",
          "type": "address"
        }
      ],
      "payable": false,
      "stateMutability": "nonpayable",
      "type": "function"
    },
    {
      "constant": false,
      "inputs": [],
      "name": "cancel",
      "outputs": [],
      "payable": false,
      "stateMutability": "nonpayable",
      "type": "function"
    },
    {
      "inputs": [
        {
          "name": "_proposer",
          "type": "address"
        },
        {
          "name": "_trustedBasket",
          "type": "address"
        }
      ],
      "payable": false,
      "stateMutability": "nonpayable",
      "type": "constructor"
    },
    {
      "anonymous": false,
      "inputs": [
        {
          "indexed": true,
          "name": "proposer",
          "type": "address"
        }
      ],
      "name": "ProposalCreated",
      "type": "event"
    },
    {
      "anonymous": false,
      "inputs": [
        {
          "indexed": true,
          "name": "proposer",
          "type": "address"
        },
        {
          "indexed": true,
          "name": "time",
          "type": "uint256"
        }
      ],
      "name": "ProposalAccepted",
      "type": "event"
    },
    {
      "anonymous": false,
      "inputs": [
        {
          "indexed": true,
          "name": "proposer",
          "type": "address"
        }
      ],
      "name": "ProposalCancelled",
      "type": "event"
    },
    {
      "anonymous": false,
      "inputs": [
        {
          "indexed": true,
          "name": "proposer",
          "type": "address"
        },
        {
          "indexed": true,
          "name": "basket",
          "type": "address"
        }
      ],
      "name": "ProposalCompleted",
      "type": "event"
    },
    {
      "anonymous": false,
      "inputs": [
        {
          "indexed": true,
          "name": "previousOwner",
          "type": "address"
        },
        {
          "indexed": true,
          "name": "nominee",
          "type": "address"
        }
      ],
      "name": "NewOwnerNominated",
      "type": "event"
    },
    {
      "anonymous": false,
      "inputs": [
        {
          "indexed": true,
          "name": "previousOwner",
          "type": "address"
        },
        {
          "indexed": true,
          "name": "newOwner",
          "type": "address"
        }
      ],
      "name": "OwnershipTransferred",
      "type": "event"
    }
  ],
  "bytecode": "0x608060405234801561001057600080fd5b50604051604080610aea8339810180604052604081101561003057600080fd5b5080516020918201519091829060009061004d906101e8811b901c565b600080546001600160a01b0319166001600160a01b0383169081178255604051929350917f8be0079c531659141344cd1fd0a4f28419497f9722a3daafe3b4186f6b6457e0908290a350600380546001600160a01b0319166001600160a01b0383811691909117600160a01b60ff021981169092556040519116907f488fccde177d9377f35d8d9a4f0b3462fcc7cdb926a00d3d99630ef1d672a2cd90600090a2506000816001600160a01b031663949d225d6040518163ffffffff1660e01b815260040160206040518083038186803b15801561012a57600080fd5b505afa15801561013e573d6000803e3d6000fd5b505050506040513d602081101561015457600080fd5b5051116101c257604080517f08c379a000000000000000000000000000000000000000000000000000000000815260206004820152601860248201527f70726f706f73616c2063616e6e6f7420626520656d7074790000000000000000604482015290519081900360640190fd5b600480546001600160a01b0319166001600160a01b0392909216919091179055506101ec565b3390565b6108ef806101fb6000396000f3fe608060405234801561001057600080fd5b50600436106100b45760003560e01c80638da5cb5b116100715780638da5cb5b146101b4578063a5ea7fdd146101bc578063a8e4fb90146101c4578063c19d93fb146101cc578063e5892f64146101f8578063ea8a1af014610226576100b4565b80631627540c146100b957806316ada547146100e157806319b05f49146100fb5780634fdb7f441461011857806353a47bb71461018857806379ba5097146101ac575b600080fd5b6100df600480360360208110156100cf57600080fd5b50356001600160a01b031661022e565b005b6100e96102ef565b60408051918252519081900360200190f35b6100df6004803603602081101561011157600080fd5b50356102f5565b6100df6004803603602081101561012e57600080fd5b81019060208101813564010000000081111561014957600080fd5b82018360208201111561015b57600080fd5b8035906020019184600183028401116401000000008311171561017d57600080fd5b5090925090506103c1565b610190610526565b604080516001600160a01b039092168252519081900360200190f35b6100df610535565b610190610603565b610190610612565b610190610621565b6101d4610630565b604051808260038111156101e457fe5b60ff16815260200191505060405180910390f35b6101906004803603604081101561020e57600080fd5b506001600160a01b0381358116916020013516610640565b6100df61078a565b610236610805565b6001600160a01b0381166102945760408051600160e51b62461bcd02815260206004820152601660248201527f6e6577206f776e65722069732030206164647265737300000000000000000000604482015290519081900360640190fd5b600080546040516001600160a01b03808516939216917fb59bab42c554cfd49f4f001c983b6ed93ede25748b10114b7d1cb1b3c97df7af91a3600180546001600160a01b0319166001600160a01b0392909216919091179055565b60025481565b6102fd610805565b600060038054600160a01b900460ff169081111561031757fe5b1461036c5760408051600160e51b62461bcd02815260206004820152601460248201527f70726f706f73616c206e6f742063726561746564000000000000000000000000604482015290519081900360640190fd5b600281905560038054600160a01b60ff021916600160a01b179081905560405182916001600160a01b0316907f0447e15907813bfb966eab36935a68eeb6360426cc5d554898d37c9cb475cca690600090a350565b6103c9610805565b606060405180606001604052806035815260200161088f603591399050806040516020018082805190602001908083835b602083106104195780518252601f1990920191602091820191016103fa565b6001836020036101000a03801982511681845116808217855250505050505090500191505060405160208183030381529060405280519060200120838360405160200180838380828437808301925050509250505060405160208183030381529060405280519060200120146104d95760408051600160e51b62461bcd02815260206004820152601560248201527f6465636c61726174696f6e20696e636f72726563740000000000000000000000604482015290519081900360640190fd5b600080546040516001600160a01b03909116907f8be0079c531659141344cd1fd0a4f28419497f9722a3daafe3b4186f6b6457e0908390a35050600080546001600160a01b031916905550565b6001546001600160a01b031690565b61053d610879565b6001546001600160a01b039081169116146105a25760408051600160e51b62461bcd02815260206004820152600c60248201527f756e617574686f72697a65640000000000000000000000000000000000000000604482015290519081900360640190fd5b600154600080546040516001600160a01b0393841693909116917f8be0079c531659141344cd1fd0a4f28419497f9722a3daafe3b4186f6b6457e091a3600154600080546001600160a01b0319166001600160a01b03909216919091179055565b6000546001600160a01b031690565b6004546001600160a01b031681565b6003546001600160a01b031681565b600354600160a01b900460ff1681565b600061064a610805565b600160038054600160a01b900460ff169081111561066457fe5b146106b95760408051600160e51b62461bcd02815260206004820152601960248201527f70726f706f73616c206d75737420626520616363657074656400000000000000604482015290519081900360640190fd5b60025442116107125760408051600160e51b62461bcd02815260206004820152600f60248201527f7761697420746f20657865637574650000000000000000000000000000000000604482015290519081900360640190fd5b60038054600160a01b60ff021916740300000000000000000000000000000000000000001790556000610745848461087d565b6003546040519192506001600160a01b03808416929116907f8e5e44707220324282c02b68f904d080b620c1d4317a000ab94a09bcb32a209590600090a39392505050565b610792610805565b6003808054600160a01b900460ff16908111156107ab57fe5b14156107b657600080fd5b60038054600160a01b60ff021916600160a11b17908190556040516001600160a01b03909116907f4538f80e606dc112c529fe1c118bb3d8f3d492a812f776b70e409a0b1853865790600090a2565b6000546001600160a01b0316610819610879565b6001600160a01b0316146108775760408051600160e51b62461bcd02815260206004820152601360248201527f63616c6c6572206973206e6f74206f776e657200000000000000000000000000604482015290519081900360640190fd5b565b3390565b50506004546001600160a01b03169056fe49206865726562792072656e6f756e6365206f776e657273686970206f66207468697320636f6e747261637420666f72657665722ea165627a7a723058205f9db32954ce2a88dd8ca9eac2ecd228b79c8f1f6930d8a2ed2f5bc67c7592c20029",
  "source": "pragma solidity 0.5.7;\n\nimport \"./zeppelin/token/ERC20/IERC20.sol\";\nimport \"./zeppelin/token/ERC20/SafeERC20.sol\";\nimport \"./rsv/IRSV.sol\";\nimport \"./ownership/Ownable.sol\";\nimport \"./Basket.sol\";\n\n/**\n * A Proposal represents a suggestion to change the backing for RSV.\n *\n * The lifecycle of a proposal:\n * 1. Creation\n * 2. Acceptance\n * 3. Completion\n *\n * A time can be set during acceptance to determine when completion is eligible.  A proposal can\n * also be cancelled before it is completed. If a proposal is cancelled, it can no longer become\n * Completed.\n *\n * This contract is intended to be used in one of two possible ways. Either:\n * - A target RSV basket is proposed, and quantities to be exchanged are deduced at the time of\n *   proposal execution.\n * - A specific quantity of tokens to be exchanged is proposed, and the resultant RSV basket is\n *   determined at the time of proposal execution.\n */\n\ninterface IProposal {\n    function proposer() external returns(address);\n    function accept(uint256 time) external;\n    function cancel() external;\n    function complete(IRSV rsv, Basket oldBasket) external returns(Basket);\n    function nominateNewOwner(address newOwner) external;\n    function acceptOwnership() external;\n}\n\ninterface IProposalFactory {\n    function createSwapProposal(address,\n        address[] calldata tokens,\n        uint256[] calldata amounts,\n        bool[] calldata toVault\n    ) external returns (IProposal);\n\n    function createWeightProposal(address proposer, Basket basket) external returns (IProposal);\n}\n\ncontract ProposalFactory is IProposalFactory {\n    function createSwapProposal(\n        address proposer,\n        address[] calldata tokens,\n        uint256[] calldata amounts,\n        bool[] calldata toVault\n    )\n        external returns (IProposal)\n    {\n        IProposal proposal = IProposal(new SwapProposal(proposer, tokens, amounts, toVault));\n        proposal.nominateNewOwner(msg.sender);\n        return proposal;\n    }\n\n    function createWeightProposal(address proposer, Basket basket) external returns (IProposal) {\n        IProposal proposal = IProposal(new WeightProposal(proposer, basket));\n        proposal.nominateNewOwner(msg.sender);\n        return proposal;\n    }\n}\n\ncontract Proposal is IProposal, Ownable {\n    using SafeMath for uint256;\n    using SafeERC20 for IERC20;\n\n    uint256 public time;\n    address public proposer;\n\n    enum State { Created, Accepted, Cancelled, Completed }\n    State public state;\n    \n    event ProposalCreated(address indexed proposer);\n    event ProposalAccepted(address indexed proposer, uint256 indexed time);\n    event ProposalCancelled(address indexed proposer);\n    event ProposalCompleted(address indexed proposer, address indexed basket);\n\n    constructor(address _proposer) public {\n        proposer = _proposer;\n        state = State.Created;\n        emit ProposalCreated(proposer);\n    }\n\n    /// Moves a proposal from the Created to Accepted state.\n    function accept(uint256 _time) external onlyOwner {\n        require(state == State.Created, \"proposal not created\");\n        time = _time;\n        state = State.Accepted;\n        emit ProposalAccepted(proposer, _time);\n    }\n\n    /// Cancels a proposal if it has not been completed.\n    function cancel() external onlyOwner {\n        require(state != State.Completed);\n        state = State.Cancelled;\n        emit ProposalCancelled(proposer);\n    }\n\n    /// Moves a proposal from the Accepted to Completed state.\n    /// Returns the tokens, quantitiesIn, and quantitiesOut, required to implement the proposal.\n    function complete(IRSV rsv, Basket oldBasket)\n        external onlyOwner returns(Basket)\n    {\n        require(state == State.Accepted, \"proposal must be accepted\");\n        require(now > time, \"wait to execute\");\n        state = State.Completed;\n\n        Basket b = _newBasket(rsv, oldBasket);\n        emit ProposalCompleted(proposer, address(b));\n        return b;\n    }\n\n    /// Returns the newly-proposed basket. This varies for different types of proposals,\n    /// so it's abstract here.\n    function _newBasket(IRSV trustedRSV, Basket oldBasket) internal returns(Basket);\n}\n\n/**\n * A WeightProposal represents a suggestion to change the backing for RSV to a new distribution\n * of tokens. You can think of it as designating what a _single RSV_ should be backed by, but\n * deferring on the precise quantities of tokens that will be need to be exchanged until a later\n * point in time.\n *\n * When this proposal is completed, it simply returns the target basket.\n */\ncontract WeightProposal is Proposal {\n    Basket public trustedBasket;\n\n    constructor(address _proposer, Basket _trustedBasket) Proposal(_proposer) public {\n        require(_trustedBasket.size() > 0, \"proposal cannot be empty\");\n        trustedBasket = _trustedBasket;\n    }\n\n    /// Returns the newly-proposed basket\n    function _newBasket(IRSV, Basket) internal returns(Basket) {\n        return trustedBasket;\n    }\n}\n\n/**\n * A SwapProposal represents a suggestion to transfer fixed amounts of tokens into and out of the\n * vault. Whereas a WeightProposal designates how much a _single RSV_ should be backed by,\n * a SwapProposal first designates what quantities of tokens to transfer in total and then\n * solves for the new resultant basket later.\n *\n * When this proposal is completed, it calculates what the weights for the new basket will be\n * and returns it. If RSV supply is 0, this kind of Proposal cannot be used. \n */\n\n// On \"unit\" comments, see comment at top of Manager.sol.\ncontract SwapProposal is Proposal {\n    address[] public tokens;\n    uint256[] public amounts; // unit: qToken\n    bool[] public toVault;\n\n    uint256 constant WEIGHT_SCALE = uint256(10)**18; // unit: aqToken / qToken\n\n    constructor(address _proposer,\n                address[] memory _tokens,\n                uint256[] memory _amounts, // unit: qToken\n                bool[] memory _toVault )\n        Proposal(_proposer) public\n    {\n        require(_tokens.length > 0, \"proposal cannot be empty\");\n        require(_tokens.length == _amounts.length && _amounts.length == _toVault.length,\n                \"unequal array lengths\");\n        tokens = _tokens;\n        amounts = _amounts;\n        toVault = _toVault;\n    }\n\n    /// Return the newly-proposed basket, based on the current vault and the old basket.\n    function _newBasket(IRSV trustedRSV, Basket trustedOldBasket) internal returns(Basket) {\n\n        uint256[] memory weights = new uint256[](tokens.length);\n        // unit: aqToken/RSV\n\n        uint256 scaleFactor = WEIGHT_SCALE.mul(uint256(10)**(trustedRSV.decimals()));\n        // unit: aqToken/qToken * qRSV/RSV\n\n        uint256 rsvSupply = trustedRSV.totalSupply();\n        // unit: qRSV\n\n        for (uint256 i = 0; i < tokens.length; i++) {\n            uint256 oldWeight = trustedOldBasket.weights(tokens[i]);\n            // unit: aqToken/RSV\n\n            if (toVault[i]) {\n                // We require that the execution of a SwapProposal takes in no more than the funds\n                // offered in its proposal -- that's part of the premise. It turns out that,\n                // because we're rounding down _here_ and rounding up in\n                // Manager._executeBasketShift(), it's possible for the naive implementation of\n                // this mechanism to overspend the proposer's tokens by 1 qToken. We avoid that,\n                // here, by making the effective proposal one less. Yeah, it's pretty fiddly.\n                \n                weights[i] = oldWeight.add( (amounts[i].sub(1)).mul(scaleFactor).div(rsvSupply) );\n                //unit: aqToken/RSV == aqToken/RSV == [qToken] * [aqToken/qToken*qRSV/RSV] / [qRSV]\n            } else {\n                weights[i] = oldWeight.sub( amounts[i].mul(scaleFactor).div(rsvSupply) );\n                //unit: aqToken/RSV\n            }\n        }\n\n        return new Basket(trustedOldBasket, tokens, weights);\n        // unit check for weights: aqToken/RSV\n    }\n}\n\n\n",
  "sourcePath": "/Users/taylorbrent/reserve/simple-portal/contracts/Proposal.sol",
  "compiler": {
    "name": "solc",
    "version": "0.5.7+commit.6da8b019.Emscripten.clang"
  },
  "schemaVersion": "3.0.17",
  "updatedAt": "2019-12-12T00:07:39.130Z",
  "devdoc": {
    "methods": {
      "acceptOwnership()": {
        "details": "Accepts ownership of the contract."
      },
      "nominateNewOwner(address)": {
        "details": "Nominates a new owner `newOwner`. Requires a follow-up `acceptOwnership`. Can only be called by the current owner."
      },
      "nominatedOwner()": {
        "details": "Returns the address of the current nominated owner."
      },
      "owner()": {
        "details": "Returns the address of the current owner."
      }
    }
  },
  "userdoc": {
    "methods": {
      "accept(uint256)": {
        "notice": "Moves a proposal from the Created to Accepted state."
      },
      "cancel()": {
        "notice": "Cancels a proposal if it has not been completed."
      },
      "complete(address,address)": {
        "notice": "Moves a proposal from the Accepted to Completed state. Returns the tokens, quantitiesIn, and quantitiesOut, required to implement the proposal."
      },
      "renounceOwnership(string)": {
        "notice": "Set `_owner` to the 0 address. Only do this to deliberately lock in the current permissions.     * THIS CANNOT BE UNDONE! Call this only if you know what you're doing and why you're doing it!"
      }
    },
    "notice": "A WeightProposal represents a suggestion to change the backing for RSV to a new distribution of tokens. You can think of it as designating what a _single RSV_ should be backed by, but deferring on the precise quantities of tokens that will be need to be exchanged until a later point in time. * When this proposal is completed, it simply returns the target basket."
  }
}